:020000040000FA
:100000006FEF26F083EF34F0C1EF2EF0D9CFE5FF8C
:10001000E1CFD9FF00C0E5FF01C0E5FF02C0E5FF69
:1000200003C0E5FF04C0E5FF05C0E5FF06C0E5FF2E
:1000300007C0E5FF08C0E5FF09C0E5FF0AC0E5FF0E
:100040000BC0E5FF0CC0E5FF0DC0E5FF0EC0E5FFEE
:10005000020EDBCF00F0030EDBCF01F0040EDBCF8E
:1000600002F033C803F0046AF80E0326D8A0040691
:1000700003C01CFF04C01DFF0050060F056E000EDC
:100080000120066E000E0220076E05C0E9FF06C0C3
:10009000F3FF075063EC34F0086E0850940A0BE04D
:1000A0000850950A08E00850960A05E00850C80A6A
:1000B00002E0B7EF02F00850940A01E0DFD00050F0
:1000C000070F096E000E01200A6E000E02200B6E53
:1000D00009C0E9FF0AC0F3FF0B5063EC34F0096E6E
:1000E00008013551E56E08013451E56E000EE56EEC
:1000F0000A0EE56EC0EC25F00A6EF3CF0BF0040E8D
:10010000E1260A509A080A6E000E0B5609C00CF040
:100110000D6A0D500B5C02E10C500A5C05E208010F
:10012000DF6BE86ACDEF03F00050040F0A6E000E9B
:1001300001200B6E000E02200C6E0AC0E9FF0BC0FE
:10014000F3FF0C503FEC33F00A6EF3CF0BF00801D5
:10015000DC510A1804E10801DD510B1801E016D04A
:1001600000C0E9FF01C0F3FF02503FEC33F00A6E1C
:10017000F3CF0BF00801D8510A1804E10801D95156
:100180000B1801E003D0010ECDEF03F00950180D5C
:10019000F4500A6EF3CF09F03B0E0801D55D0B6EEB
:1001A000080E0801D6590C6E0B5090080B6E000E0D
:1001B0000C560C50800FF36E0A50800FF35C02E176
:1001C00009500B5C09E2010E08012B11096E095060
:1001D00008012B6F2EEC23F0080E0A6ED80E096E64
:1001E000800E0B6E080E0D6E070E0C6E800E0E6EDE
:1001F000000EE56E080EE56E0E50E56E0D50E56ED4
:100200000C50E56E0B50E56E0A50E56E0950E56E38
:10021000CFEC1FF0080EE1260801E4510B6E080137
:10022000E3510A6E0801E251096E080E0D6E0F0EC1
:100230000C6E800E0E6E0450E56E0350E56E0E508F
:10024000E56E0D50E56E0C50E56E0B50E56E0A50F4
:10025000E56E0950E56ECFEC1FF0080EE126035065
:100260000801E06F04500801E16F0801DF05096E25
:1002700009500801DF6F010ECDEF03F00850960A18
:1002800007E00850950A04E00850C80A01E0AAD126
:10029000E0C809F0E1C80AF0035009240B6E0450CD
:1002A0000A200C6E000E0C5C02E1910E0B5C05E363
:1002B0000801DF6BE86ACDEF03F0DFC80BF00B50ED
:1002C00032E00850960A14E00050070F0C6E000E42
:1002D00001200D6E000E02200E6E0CC0E9FF0DC055
:1002E000F3FF0E5063EC34F00C6E0C500B181BE156
:1002F0000050040F0B6E000E01200C6E000E022049
:100300000D6E0BC0E9FF0CC0F3FF0D503FEC33F056
:100310000B6EF3CF0CF00801DC510B1804E108015F
:10032000DD510C1803E0E86ACDEF03F00B6A080119
:10033000E25109260801E3510A220801E4510B2287
:100340000B500B6E0A500A6E0950096E080E0D6EA6
:100350000F0E0C6E800E0E6E0450E56E0350E56EAF
:100360000E50E56E0D50E56E0C50E56E0B50E56ECF
:100370000A50E56E0950E56ECFEC1FF0080EE1263D
:1003800003500801E025096E04500801E1210A6EBE
:1003900009500801E06F0A500801E16F05C0E9FF4C
:1003A00006C0F3FF075063EC34F0056E0550960A63
:1003B00009E00801DF05056E05500801DF6F010E39
:1003C000CDEF03F00801DF6B070E0026000E0122BF
:1003D000022200C0E9FF01C0F3FF025063EC34F0D9
:1003E000006E00500801DE6F0050830A03E1020E28
:1003F000CDEF03F0D5C800F0D6C801F0D7C802F0A1
:100400003B0E005C056E080E0158066E0550900804
:10041000056E000E06560801E151065C03E1080175
:10042000E051055CD8A098D00250026E0150016ED8
:100430000050006E080E066ED80E056E800E076E18
:10044000000EE56E0A0EE56E0750E56E0650E56E8D
:100450000550E56E0250E56E0150E56E0050E56E08
:10046000CFEC1FF0080EE1260801D5510A0F006EEF
:10047000000E0801D621016E000E0801D721026E80
:100480000250026E0150016E0050006E0801E451EE
:10049000076E0801E351066E0801E251056E08017E
:1004A000E151E56E0801E051E56E0750E56E06503A
:1004B000E56E0550E56E0250E56E0150E56E0050A8
:1004C000E56ECFEC1FF0080EE1260801E0510A0F9F
:1004D000006E000E0801E121016E026A0801D5518B
:1004E00000260801D65101220801D75102220050EE
:1004F0000801D56F01500801D66F02500801D76F6F
:100500000801E0510A0F006E000E0801E121016EA2
:10051000030E0016016A00C001F000501BE0006AE3
:1005200001500408016E000E0056026A00BE026807
:100530000801D55101260801D65100220801D751E2
:10054000022201500801D56F00500801D66F0250F9
:100550000801D76F010E21D12EEC23F0010E080106
:100560002B11006E005008012B6FE86A16D108505D
:10057000830A01E037D0080E016ED80E006E800E9F
:10058000026E080E066E070E056E800E076E000ED8
:10059000E56E080EE56E0750E56E0650E56E0550F7
:1005A000E56E0250E56E0150E56E0050E56ECFEC51
:1005B0001FF0080EE126080E016E0F0E006E800E71
:1005C000026E00500801E26F01500801E36F025013
:1005D0000801E46F03500801E06F04500801E16F67
:1005E000020EDBD0D5C800F0D6C801F0D7C802F0A3
:1005F0003B0E005C056E080E0158066E0550032682
:1006000006500422000E045C02E19B0E035CD8B08D
:10061000C2D00250026E0150016E0050006E080EF2
:10062000046E070E036E800E056E000EE56E080E5A
:10063000E56E0550E56E0450E56E0350E56E025020
:10064000E56E0150E56E0050E56ECFEC1FF0080E30
:10065000E1260801D551080F006E000E0801D621D1
:10066000016E000E0801D721026E0250026E015089
:10067000016E0050006E0F0E046E1C0E036E800E95
:10068000056E000EE56E020EE56E0550E56E045037
:10069000E56E0350E56E0250E56E0150E56E0050C8
:1006A000E56ECFEC1FF0080EE1260801D5510A0FC8
:1006B000006E000E0801D621016E000E0801D72140
:1006C000026E0250026E0150016E0050006E080E64
:1006D000046E0F0E036E800E056E0F011D51E56E48
:1006E0000F011C51E56E0550E56E0450E56E035098
:1006F000E56E0250E56E0150E56E0050E56ECFEC00
:100700001FF0080EE1260F011C510A0F006E000EAB
:100710000F011D21016E026A0801D5510026080152
:10072000D65101220801D751022200500801D56F8D
:1007300001500801D66F02500801D76F0F011C51FC
:100740000A0F006E000E0F011D21016E030E001630
:10075000016A00C001F000501BE0006A015004086B
:10076000016E000E0056026A00BE02680801D551F3
:1007700001260801D65100220801D751022201505A
:100780000801D56F00500801D66F02500801D76FDD
:10079000010E006E01D0006A0050E4CF0EF0E4CFED
:1007A0000DF0E4CF0CF0E4CF0BF0E4CF0AF0E4CF8F
:1007B00009F0E4CF08F0E4CF07F0E4CF06F0E4CF8F
:1007C00005F0E4CF04F0E4CF03F0E4CF02F0E4CF8F
:1007D00001F0E4CF00F0E4CFD9FF1200D9CFE5FF5C
:1007E000E1CFD9FF00C0E5FF01C0E5FF02C0E5FF92
:1007F00003C0E5FF04C0E5FF05C0E5FF06C0E5FF57
:1008000007C0E5FF08C0E5FF09C0E5FF0AC0E5FF36
:100810000BC0E5FF0CC0E5FF0DC0E5FF0EC0E5FF16
:10082000006A2BC801F001B225D001B013D03B0EF5
:100830000801D55D016E080E0801D659026E220E20
:100840000126D8B0022A0250800F800F02E19B0ED1
:10085000015C10E3FEEC30F0016E015008E1FE0E89
:1008600008012B15016E015008012B6F03D0E86AB7
:100870003DEF06F0E3EC32F0016E0150D8B43CEFEE
:1008800006F00F0E026E280E016E800E036E0350EE
:10089000E56E0250E56E0150E56E0EEC2DF0016E36
:1008A000030EE1260150D8B4E7D15CEC30F0016EC4
:1008B00001500801336F080E015C09E2000EE56E7D
:1008C0000A0EE56E6EEC27F0E652E652D3D7080E1C
:1008D000026E070E016E800E036E08013351E56E45
:1008E0000350E56E0250E56E0150E56E88EC2DF088
:1008F000040EE126080E026E070E016E800E036ED6
:100900000150020F046E000E0220056E000E03203F
:10091000066E04C0E9FF05C0F3FF06503FEC33F05C
:10092000076EF3CF08F00850E56E0750E56E4EEC09
:100930002DF0076EE652E6520750D8B49BD701500F
:10094000060F076E000E0220086E000E0320096ECF
:1009500007C0E9FF08C0F3FF095063EC34F00A6EEA
:100960000AC000F004C0E9FF05C0F3FF06503FECE9
:1009700033F00B6EF3CF0CF031C80DF032C80EF02F
:100980000B500D1803E10C500E1801E0CBD00A50AB
:10099000820A01E16FD70A50800A01E043D00D506E
:1009A000240A04E10E50090A01E13CD0240EE56E50
:1009B000090EF46E04C0E9FF05C0F3FF065091EC88
:1009C00034F004C0E9FF05C0F3FF06503FEC33F0FC
:1009D0000B6EF3CF0CF0020EE56E0C50E56E0B5073
:1009E000E56E4AEC0CF0030EE126000EE56E0A0EF1
:1009F000E56E6EEC27F0E652E65204C0E9FF05C052
:100A0000F3FF06503FEC33F00B6EF3CF0CF0020E09
:100A1000E56E0C50E56E0B50E56E4AEC0CF0030EE3
:100A2000E12628D707C0E9FF08C0F3FF095063ECAF
:100A300034F00B6E0B50C30A32E131C80BF032C8F0
:100A40000CF00B500C102BE00BC0E5FF0CC0F4FFBA
:100A500001C0E9FF02C0F3FF035091EC34F0000E37
:100A6000E56E000EF46E04C0E9FF05C0F3FF06500A
:100A700091EC34F004C0E9FF05C0F3FF06503FECF1
:100A800033F00B6EF3CF0CF0000EE56E0C50E56EFC
:100A90000B50E56E4AEC0CF0030EE126EBD6080194
:100AA0002A510BE007C0E9FF08C0F3FF095063ECCF
:100AB00034F00B6E800E0B5C0BE207C0E9FF08C040
:100AC000F3FF095063EC34F00B6E0B50C10A19E1CF
:100AD00007C0E9FF08C0F3FF095063EC34F0076E6C
:100AE0000750940A0EE00750950A0BE00750C80A19
:100AF00008E00750830A05E00750960A02E000501C
:100B0000BCD00350E56E0250E56E0150E56E06EC78
:100B100000F0076E030EE1260750020A01E0AAD694
:100B2000830EABD004C0E9FF05C0F3FF06503FECD5
:100B300033F0076EF3CF08F00750400A02E1085087
:100B400001E084D00A50C20A01E04ED008012BB760
:100B500091D60D50240A04E10E50090A01E18AD60B
:100B600001C0E9FF02C0F3FF03503FEC33F0076E12
:100B7000F3CF08F007C0E5FF08C0F4FF04C0E9FFA9
:100B800005C0F3FF065091EC34F031C807F032C8CD
:100B900008F007C0E5FF08C0F4FF01C0E9FF02C08C
:100BA000F3FF035091EC34F038C807F0086A08509E
:100BB000E56E0750E56E6EEC27F0E652E65204C093
:100BC000E9FF05C0F3FF06503FEC33F0076EF3CFAB
:100BD00008F0020EE56E0850E56E0750E56E4AEC2F
:100BE0000CF0030EE12646D60350E56E0250E56E8A
:100BF0000150E56E06EC00F0016E030EE1260801DF
:100C000000511EE008013051E56E30EC2BF0026E11
:100C1000F3CF03F0E6520250076E07260334086E46
:100C2000D89007360836D89007360836040EE56E99
:100C30000850E56E0750E56E4AEC0CF0030EE12615
:100C40000150020A01E016D6830E17D004C0E9FF56
:100C500005C0F3FF06503FEC33F0046EF3CF05F010
:100C6000010EE56E0550E56E0450E56E4AEC0CF0A1
:100C7000030EE1263AEF04F00050E4CF0EF0E4CF8B
:100C80000DF0E4CF0CF0E4CF0BF0E4CF0AF0E4CFAA
:100C900009F0E4CF08F0E4CF07F0E4CF06F0E4CFAA
:100CA00005F0E4CF04F0E4CF03F0E4CF02F0E4CFAA
:100CB00001F0E4CF00F0E4CFD9FF1200D9CFE5FF77
:100CC000E1CFD9FF00C0E5FF01C0E5FF02C0E5FFAD
:100CD00003C0E5FF04C0E5FF05C0E5FF06C0E5FF72
:100CE00007C0E5FF08C0E5FF09C0E5FF0AC0E5FF52
:100CF0000BC0E5FF0CC0E5FF0DC0E5FF0EC0E5FF32
:100D00000FC0E5FF10C0E5FF11C0E5FF12C0E5FF11
:100D100013C0E5FF14C0E5FF15C0E5FF16C0E5FFF1
:100D200017C0E5FF18C0E5FF19C0E5FF1AC0E5FFD1
:100D3000020EDBCF00F0030EDBCF01F0040EDBCFA1
:100D400002F0050EDBCF03F0060EDBCF04F0070E3A
:100D5000DBCF05F0080EDBCF06F0090EDBCF07F086
:100D60000A0EDBCF08F00B0EDBCF09F074EC34F089
:100D70000A6EF3CF0BF0F4CF0CF0E9CF0DF00801C1
:100D80002C510A5E08012D510B5A08012E510C5AA4
:100D900008012F510D5A000E0D5C08E1000E0C5C8D
:100DA00005E1000E0B5C02E1190E0A5C06E2EEECB6
:100DB00003F00A6E800E0A5CD9E3C80EE56EBFEC44
:100DC0002BF0E65234C80AF035C80BF007500B5C24
:100DD00002E106500A5CD8A03BD006500C6E080E0B
:100DE0000C260C500801336F0950E56E0850E56E73
:100DF0000750E56E0650E56E0550E56E0450E56E51
:100E00000350E56E0250E56E0150E56E0050E56E50
:100E1000BEEC13F00C6E0A0EE1260C5002E0010E3F
:100E20007CD174EC34F00C6EF3CF0DF0F4CF0EF0F7
:100E3000E9CF0FF00C5008012C6F0D5008012D6FF9
:100E40000E5008012E6F0F5008012F6FE86A65D110
:100E5000000E075C02E1910E065C02E3E86A5DD1D8
:100E60000B50E56E0A50E56E0750E56E0650E56ED4
:100E7000B1EC24F00C6EF3CF0DF0040EE1260C5013
:100E80000D1003E0010E0C6E01D00C6A0B50E56EE4
:100E90000A50E56E0750E56E0650E56EC0EC25F091
:100EA0000A6EF3CF0BF0040EE1260C500A26005018
:100EB000020F0B6E000E01200C6E000E02200D6E54
:100EC0000BC0E9FF0CC0F3FF0D503FEC33F00B6E8D
:100ED000F3CF0CF00B50400A02E10C5009E0040E75
:100EE00008012B110B6E0B5008012B6F2EEC23F019
:100EF0000B6A0050060F0C6E000E01200D6E000EE6
:100F000002200E6E0CC0E9FF0DC0F3FF0E5063EC23
:100F100034F00F6E106A0AC011F0126A1150D8B482
:100F2000ACD00050070F136E000E0120146E000E9F
:100F30000220156E11C0E5FF13C0E9FF14C0F3FFD6
:100F40001550C2EC34F01150010A13E1960EE56E13
:100F50000CC0E9FF0DC0F3FF0E50C2EC34F00FC01F
:100F6000E5FF13C0E9FF14C0F3FF1550C2EC34F0E5
:100F700015D012500AE1940EE56E0CC0E9FF0DC0C9
:100F8000F3FF0E50C2EC34F009D0950EE56E0CC0A4
:100F9000E9FF0DC0F3FF0E50C2EC34F034C813F07B
:100FA00035C814F012C015F0166A1450E56E1350CF
:100FB000E56E1650E56E1550E56EADEC29F0156E38
:100FC000F3CF16F0040EE1261550065C176E16508E
:100FD0000758186E1450185C02E11350175C04E3B4
:100FE00013C017F014C018F01750136E080E132614
:100FF00013500801336F0550196E0450146E0350DE
:10100000136E1A6A135015261450162219501A22FC
:101010001A501A6E1650166E1550156E0950E56E60
:101020000850E56E1850E56E1750E56E1A50E56EE3
:101030001650E56E1550E56E0250E56E0150E56EF6
:101040000050E56EBEEC13F0106E0A0EE126105053
:101050000AE1000EE56E020EE56E6EEC27F0E65238
:10106000E6520B2A03D00B6A1106122A1050D8A49C
:1010700055D7030E0B5CD8A051D711C00AF00FC092
:10108000E5FF0CC0E9FF0DC0F3FF0E50C2EC34F0D9
:1010900008012BA51DD0000EE56E08010451E56E78
:1010A00008010351E56E08010251E56E0801015186
:1010B000E56E59EC1AF0106E050EE1260EEC25F0E7
:1010C000000EE56E000EE56E04EC2CF0E652E652E2
:1010D000FB0E08012B15006E005008012B6F1050FD
:1010E00002E1E86A1AD00A5017E074EC34F0006E9E
:1010F000F3CF01F0F4CF02F0E9CF03F00050080184
:101100002C6F015008012D6F025008012E6F035003
:1011100008012F6FE86A01D0010EE4CF1AF0E4CF86
:1011200019F0E4CF18F0E4CF17F0E4CF16F0E4CFD5
:1011300015F0E4CF14F0E4CF13F0E4CF12F0E4CFD5
:1011400011F0E4CF10F0E4CF0FF0E4CF0EF0E4CFD5
:101150000DF0E4CF0CF0E4CF0BF0E4CF0AF0E4CFD5
:1011600009F0E4CF08F0E4CF07F0E4CF06F0E4CFD5
:1011700005F0E4CF04F0E4CF03F0E4CF02F0E4CFD5
:1011800001F0E4CF00F0E4CFD9FF1200D9CFE5FFA2
:10119000E1CFD9FF00C0E5FF01C0E5FF020EDBCFC4
:1011A00000F0030EDBCF01F0020E005CD8A0A9D145
:1011B000290E005CD8B0A5D1FE0E0026FA6AFB6AA3
:1011C0000034FA36E834FA36FC0BDA0FE56E110E0D
:1011D000FA22000EFB22E450F96E3BEF09F043EFD8
:1011E00009F04CEF09F056EF09F060EF09F069EFF4
:1011F00009F073EF09F07BEF09F084EF09F081EF5C
:101200000AF081EF0AF08EEF09F097EF09F0A1EFF5
:1012100009F0A9EF09F0B2EF09F0BCEF09F0C6EF51
:1012200009F0CEEF09F0D7EF09F0E1EF09F0EBEFAD
:1012300009F0F4EF09F0FEEF09F008EF0AF011EF02
:101240000AF01AEF0AF024EF0AF02EEF0AF081EF0D
:101250000AF081EF0AF037EF0AF03FEF0AF048EFAB
:101260000AF052EF0AF05CEF0AF065EF0AF06FEF58
:101270000AF079EF0AF00150010BF46E8950FE0B71
:10128000F410896E3ED10150010BE844F46E895090
:10129000FD0BF410896E35D10150010BE844E84490
:1012A000F46E8950FB0BF410896E2BD10150010BA9
:1012B000E838E840F46E8950F70BF410896E21D1BC
:1012C0000150010BE838F46E8950EF0BF410896E71
:1012D00018D10150010BE838E844F46E8950DF0B57
:1012E000F410896E0ED10150010BF46E8D50FE0B7F
:1012F000F4108D6E06D10150010BE844F46E8D5050
:10130000FD0BF4108D6EFDD00150010BE844E84454
:10131000F46E8D50FB0BF4108D6EF3D00150010B69
:10132000E840F46E89507F0BF410896EEAD00150CA
:10133000010BE840E840F46E8950BF0BF410896E51
:10134000E0D00150010BF46E8B50FE0BF4108B6E4D
:10135000D8D00150010BE844F46E8B50FD0BF41013
:101360008B6ECFD00150010BE844E844F46E8B50F3
:10137000FB0BF4108B6EC5D00150010BE838E84030
:10138000F46E8B50F70BF4108B6EBBD00150010B39
:10139000F46E8C50FE0BF4108C6EB3D00150010B28
:1013A000E844F46E8C50FD0BF4108C6EAAD0015002
:1013B000010BE844E844F46E8C50FB0BF4108C6E87
:1013C000A0D00150010BE838E840F46E8C50F70BC8
:1013D000F4108C6E96D00150010BE838F46E8B50EF
:1013E000EF0BF4108B6E8DD00150010BE838E84400
:1013F000F46E8B50DF0BF4108B6E83D00150010B19
:10140000E840E840F46E8B50BF0BF4108B6E79D03F
:101410000150010BE840F46E8B507F0BF4108B6E83
:1014200070D00150010BE838F46E8C50EF0BF410C3
:101430008C6E67D00150010BE838E844F46E8C5094
:10144000DF0BF4108C6E5DD00150010BE840E840DA
:10145000F46E8C50BF0BF4108C6E53D00150010B06
:10146000E840F46E8C507F0BF4108C6E4AD0015023
:10147000010BF46E8A50FE0BF4108A6E42D00150BC
:10148000010BE844F46E8A50FD0BF4108A6E39D0DB
:101490000150010BE844E844F46E8A50FB0BF41051
:1014A0008A6E2FD00150010BE838E840F46E8A5064
:1014B000F70BF4108A6E25D00150010BE838F46E5A
:1014C0008A50EF0BF4108A6E1CD00150010BE838E3
:1014D000E844F46E8A50DF0BF4108A6E12D001508B
:1014E000010BE840E840F46E8A50BF0BF4108A6E9E
:1014F00008D00150010BE840F46E8A507F0BF410C5
:101500008A6EE4CF01F0E4CF00F0E4CFD9FF1200FF
:10151000D9CFE5FFE1CFD9FF00C0E5FF01C0E5FF6E
:10152000020EDBCF00F0030EDBCF01F0020E005CF9
:10153000D8A0A9D1290E005CD8B0A5D1FE0E0026F6
:10154000FA6AFB6A0034FA36E834FA36FC0B5E0FAE
:10155000E56E150EFA22000EFB22E450F96EFDEF47
:101560000AF005EF0BF00EEF0BF018EF0BF022EF87
:101570000BF02BEF0BF035EF0BF03DEF0BF046EFE0
:101580000BF043EF0CF043EF0CF050EF0BF059EF82
:101590000BF063EF0BF06BEF0BF074EF0BF07EEFE3
:1015A0000BF088EF0BF090EF0BF099EF0BF0A3EF3F
:1015B0000BF0ADEF0BF0B6EF0BF0C0EF0BF0CAEF96
:1015C0000BF0D3EF0BF0DCEF0BF0E6EF0BF0F0EFEE
:1015D0000BF043EF0CF043EF0CF0F9EF0BF001EFE1
:1015E0000CF00AEF0CF014EF0CF01EEF0CF027EFEC
:1015F0000CF031EF0CF03BEF0CF00150010BF46EEE
:101600009250FE0BF410926E3ED10150010BE84453
:10161000F46E9250FD0BF410926E35D10150010B17
:10162000E844E844F46E9250FB0BF410926E2BD118
:101630000150010BE838E840F46E9250F70BF410BB
:10164000926E21D10150010BE838F46E9250EF0BED
:10165000F410926E18D10150010BE838E844F46E92
:101660009250DF0BF410926E0ED10150010BF46E0C
:101670009650FE0BF410966E06D10150010BE84413
:10168000F46E9650FD0BF410966EFDD00150010BD8
:10169000E844E844F46E9650FB0BF410966EF3D0D9
:1016A0000150010BE840F46E92507F0BF410926EE3
:1016B000EAD00150010BE840E840F46E9250BF0BB5
:1016C000F410926EE0D00150010BF46E9450FE0BBA
:1016D000F410946ED8D00150010BE844F46E94508D
:1016E000FD0BF410946ECFD00150010BE844E84498
:1016F000F46E9450FB0BF410946EC5D00150010BA6
:10170000E838E840F46E9450F70BF410946EBBD0B8
:101710000150010BF46E9550FE0BF410956EB3D092
:101720000150010BE844F46E9550FD0BF410956EDA
:10173000AAD00150010BE844E844F46E9550FB0B2D
:10174000F410956EA0D00150010BE838E840F46E1B
:101750009550F70BF410956E96D00150010BE838B8
:10176000F46E9450EF0BF410946E8DD00150010B79
:10177000E838E844F46E9450DF0BF410946E83D094
:101780000150010BE840E840F46E9450BF0BF41098
:10179000946E79D00150010BE840F46E94507F0BA9
:1017A000F410946E70D00150010BE838F46E95502F
:1017B000EF0BF410956E67D00150010BE838E84448
:1017C000F46E9550DF0BF410956E5DD00150010B57
:1017D000E840E840F46E9550BF0BF410956E53D07E
:1017E0000150010BE840F46E95507F0BF410956E9C
:1017F0004AD00150010BF46E9350FE0BF410936E1F
:1018000042D00150010BE844F46E9350FD0BF410EC
:10181000936E39D00150010BE844E844F46E9350C4
:10182000FB0BF410936E2FD00150010BE838E84009
:10183000F46E9350F70BF410936E25D00150010B0A
:10184000E838F46E9350EF0BF410936E1CD00150F7
:10185000010BE838E844F46E9350DF0BF410936EFC
:1018600012D00150010BE840E840F46E9350BF0BDA
:10187000F410936E08D00150010BE840F46E9350C1
:101880007F0BF410936EE4CF01F0E4CF00F0E4CFCF
:10189000D9FF1200D9CFE5FFE1CFD9FF00C0E5FFA6
:1018A00001C0E5FF02C0E5FF03C0E5FF04C0E5FF9E
:1018B00005C0E5FF06C0E5FF07C0E5FF08C0E5FF7E
:1018C00009C0E5FF0AC0E5FF0BC0E5FF0CC0E5FF5E
:1018D000020EDBCF00F0030EDBCF01F0040EDBCFF6
:1018E00002F0036A0DC804F0410E045C05E3C00E6B
:1018F000045C02E2010E036E0150E56E0050E56EDD
:101900004EEC2DF0046EE652E652045002E1E86A15
:1019100025D100500F01046F01500F01056F0250D7
:101920000F01066F0F01076B0F0E056E040E046E9C
:10193000800E066E0650E56E0550E56E0450E56EAD
:10194000B8EC17F0030EE1260F010751E56E0F0109
:101950000651E56E0F010551E56E0F010451E56E6C
:1019600044EC1CF0046E040EE1260250010A01E072
:1019700081D00450D8B47ED00F010451001804E186
:101980000F010551011801E075D00350D8B472D091
:10199000070E056E080E066E0650066E0550056EA3
:1019A000800E076E0550060F086E000E0620096EA9
:1019B000000E07200A6EC10EE56E08C0E9FF09C0DF
:1019C000F3FF0A50C2EC34F00550020F086E000E0F
:1019D0000620096E000E07200A6E05C0E9FF06C04A
:1019E000F3FF07503FEC33F00B6EF3CF0CF00BC05E
:1019F000E5FF0CC0F4FF08C0E9FF09C0F3FF0A507F
:101A000091EC34F005C0E9FF06C0F3FF07503FEC4E
:101A100033F0056EF3CF06F005500F01046F06504A
:101A20000F01056F010E0F01066F0F01076B0F0EFF
:101A3000066E040E056E800E076E0750E56E0650AA
:101A4000E56E0550E56EB8EC17F0030EE126080EC2
:101A50000801336F0F010751E56E0F010651E56E66
:101A60000F010551E56E0F010451E56E44EC1CF0C9
:101A7000040EE1260450D8B46BD00F0104510018B5
:101A800005E10F010551011801E162D0025004E0A7
:101A90000250030A01E05CD00350D8B459D00801C9
:101AA0002BA521D0000EE56E08010451E56E08015A
:101AB0000351E56E08010251E56E08010151E56E22
:101AC00059EC1AF0050EE126FB0E08012B15006EED
:101AD000005008012B6F000EE56E000EE56E04EC61
:101AE0002CF0E652E6520EEC25F074EC34F0006E69
:101AF000F3CF01F0F4CF02F0E9CF03F0EEEC03F006
:101B0000056E0550C10A24E074EC34F0056EF3CF85
:101B100006F0F4CF07F0E9CF08F00050055E015061
:101B2000065A0250075A0350085A05C809F006C859
:101B30000AF00B6A0C6A08500C5C08E107500B5C59
:101B400005E106500A5C02E10550095CD7E2046A2F
:101B500008012BB502D00EEC25F00450E4CF0CF0B8
:101B6000E4CF0BF0E4CF0AF0E4CF09F0E4CF08F0C3
:101B7000E4CF07F0E4CF06F0E4CF05F0E4CF04F0C3
:101B8000E4CF03F0E4CF02F0E4CF01F0E4CF00F0C3
:101B9000E4CFD9FF1200D9CFE5FFE1CFD9FF00C0D4
:101BA000E5FF01C0E5FF020EDBCF00F0016A010E88
:101BB000005CD8A03BD1290E005CD8B037D100061C
:101BC000FA6AFB6A0034FA36E834FA36FC0BDE0FA8
:101BD000E56E1B0EFA22000EFB22E450F96E3FEF79
:101BE0000EF045EF0EF04BEF0EF051EF0EF057EF09
:101BF0000EF05DEF0EF063EF0EF069EF0EF06FEF99
:101C00000EF075EF0EF016EF0FF016EF0FF07BEF02
:101C10000EF081EF0EF087EF0EF08DEF0EF093EFE8
:101C20000EF099EF0EF09FEF0EF0A5EF0EF0ABEF78
:101C30000EF0B1EF0EF0B7EF0EF0BDEF0EF0C3EF08
:101C40000EF0C9EF0EF0CFEF0EF0D5EF0EF0DBEF98
:101C50000EF0E1EF0EF016EF0FF016EF0FF0E7EFDA
:101C60000EF0EDEF0EF0F3EF0EF0F9EF0EF0FFEFE8
:101C70000EF005EF0FF00BEF0FF011EF0FF0006A11
:101C800084B6002A00C001F0D1D0006A80B0002ADA
:101C900000C001F0CBD0006A80B2002A00C001F081
:101CA000C5D0006A80B4002A00C001F0BFD0006A2D
:101CB00080B6002A00C001F0B9D0006A80B8002ABE
:101CC00000C001F0B3D0006A80BA002A00C001F061
:101CD000ADD0006A84B0002A00C001F0A7D0006A2D
:101CE00084B2002A00C001F0A1D0006A84B4002AA6
:101CF00000C001F09BD0006A80BE002A00C001F045
:101D000095D0006A80BC002A00C001F08FD0006A24
:101D100082B0002A00C001F089D0006A82B2002A95
:101D200000C001F083D0006A82B4002A00C001F034
:101D30007DD0006A82B6002A00C001F077D0006A28
:101D400083B0002A00C001F071D0006A83B2002A7B
:101D500000C001F06BD0006A83B4002A00C001F01B
:101D600065D0006A83B6002A00C001F05FD0006A27
:101D700082B8002A00C001F059D0006A82BA002A55
:101D800000C001F053D0006A82BC002A00C001F0FC
:101D90004DD0006A82BE002A00C001F047D0006A20
:101DA00083B8002A00C001F041D0006A83BA002A3B
:101DB00000C001F03BD0006A83BC002A00C001F0E3
:101DC00035D0006A83BE002A00C001F02FD0006A1F
:101DD00081B0002A00C001F029D0006A81B2002A37
:101DE00000C001F023D0006A81B4002A00C001F0D5
:101DF0001DD0006A81B6002A00C001F017D0006A29
:101E000081B8002A00C001F011D0006A81BA002A0E
:101E100000C001F00BD0006A81BC002A00C001F0B4
:101E200005D0006A81BE002A00C001F00150E4CF55
:101E300001F0E4CF00F0E4CFD9FF1200D9CFE5FFE5
:101E4000E1CFD9FF00C0E5FF01C0E5FF02C0E5FF1B
:101E500003C0E5FF04C0E5FF05C0E5FF06C0E5FFE0
:101E600007C0E5FF08C0E5FF09C0E5FF0AC0E5FFC0
:101E7000020EDBCF00F0030EDBCF01F0040EDBCF50
:101E800002F0050EDBCF03F0060EDBCF04F0070EE9
:101E9000DBCF05F0080EDBCF06F0090EDBCF07F035
:101EA0000F01206B0F01216BFEEC30F0086E085023
:101EB000D8B4F6D00250026E0150016E0050006E90
:101EC000080E096E3B0E086E800E0A6E000EE56E5F
:101ED000080EE56E0A50E56E0950E56E0850E56E95
:101EE0000250E56E0150E56E0050E56ECFEC1FF03C
:101EF000080EE1260F0E016E200E006E800E026E9F
:101F0000080E096E430E086E800E0A6E000EE56E16
:101F1000020EE56E0A50E56E0950E56E0850E56E5A
:101F20000250E56E0150E56E0050E56ECFEC1FF0FB
:101F3000080EE126065007102FE00F012151075C23
:101F400003E10F012051065C05E206C000F007C066
:101F500001F004D020CF00F021CF01F000C006F046
:101F600001C007F0080E016E450E006E800E026E75
:101F70000750E56E0650E56E0250E56E0150E56EC5
:101F80000050E56E0550E56E0450E56E0350E56EB9
:101F9000CFEC1FF0080EE1260F0120510A0F006E52
:101FA000000E0F012121016E026A00500801D55D6B
:101FB000006E01500801D659016E02500801D75930
:101FC000026E00500801D56F01500801D66F025013
:101FD0000801D76F0F0120510A0F006E000E0F018C
:101FE0002121016E030E0016016A00C001F00050AD
:101FF0001EE001500408016E01C000F0026A036A8D
:1020000002BE036800500801D55D006E0250080151
:10201000D659026E03500801D759036E00500801CB
:10202000D56F02500801D66F03500801D76F080E14
:10203000026E3B0E006E800E036E3B0E0F012025DC
:10204000046E080E0F012121056E0A0E0426D8B079
:10205000052A066A04500126055006220650066E1F
:102060000150016E800E046E0F0120519A08056E1A
:10207000000E0F012155076E0750E56E0550E56E05
:102080000450E56E0650E56E0150E56E0350E56EB6
:102090000250E56E0050E56EC5EC15F0080EE12625
:1020A00021CFF3FF0F012051E4CF0AF0E4CF09F074
:1020B000E4CF08F0E4CF07F0E4CF06F0E4CF05F07A
:1020C000E4CF04F0E4CF03F0E4CF02F0E4CF01F07A
:1020D000E4CF00F0E4CFD9FF1200D9CFE5FFE1CF84
:1020E000D9FF00C0E5FF01C0E5FF02C0E5FF03C066
:1020F000E5FF04C0E5FF05C0E5FF06C0E5FF07C03A
:10210000E5FF08C0E5FF09C0E5FF020EDBCF00F0E8
:10211000030EDBCF01F0040EDBCF02F0050EDBCFA8
:1021200003F0046ADF0E0424056E066A000E062220
:1021300004C007F0086A07500408076E000E08562E
:10214000096A08BE09680150072602500822035098
:10215000092207C0E9FF08C0F3FF095063EC34F01F
:10216000076E05C0E9FF06C0EAFF07C0EFFF042ABB
:10217000050E045CD7E3005023E1000E026EA70EAB
:10218000016E800E036E000E056EDF0E046E800E73
:10219000066EACC007F0086A0850E56E0750E56EA1
:1021A0000650E56E0550E56E0450E56E0350E56E91
:1021B0000250E56E0150E56ECFEC1FF0080EE126EF
:1021C000070E005CD8B096D0020E005C28E2560ED6
:1021D0000024016E026A600E0222036A000E0322CE
:1021E00001C0F6FF02C0F7FF03C0F8FF0900F5CFFA
:1021F00001F0000E036EDF0E026E800E046E000111
:10220000AC51E56E0450E56E0350E56E0250E56E8C
:102210000150E56E14EC28F0050EE12626D0560E8E
:102220000024016E026A600E0222036A000E03227D
:1022300001C0F6FF02C0F7FF03C0F8FF0900F5CFA9
:1022400001F0000E036EDF0E026E800E046E010EB2
:10225000E56E0450E56E0350E56E0250E56E0150E8
:10226000E56E14EC28F0050EE1265C0E0024016EEC
:10227000026A600E0222036A000E032201C0F6FF0A
:1022800002C0F7FF03C0F8FF0900F5CF01F000011D
:10229000A551E56E0150E56EAEEC30F0E652E65227
:1022A000020EE56E90EC31F0016EE652026A036AAE
:1022B000500E0026600E0222000E032200C0F6FF20
:1022C00002C0F7FF03C0F8FF0900F5CF00F0010ED0
:1022D000026E005005E0E86CD8900236010FFDE375
:1022E000025001120150E56E020EE56EAEEC30F0C8
:1022F000E652E652E4CF09F0E4CF08F0E4CF07F06D
:10230000E4CF06F0E4CF05F0E4CF04F0E4CF03F02F
:10231000E4CF02F0E4CF01F0E4CF00F0E4CFD9FF46
:102320001200D9CFE5FFE1CFD9FF00C0E5FF01C022
:10233000E5FF02C0E5FF03C0E5FF04C0E5FF05C0FF
:10234000E5FF06C0E5FF07C0E5FF08C0E5FF09C0DF
:10235000E5FF0AC0E5FF0BC0E5FFEEEC03F074EC0F
:1023600034F0006EF3CF01F0F4CF02F0E9CF03F0C8
:102370000001F851005C046E0001F9510158056E2E
:102380000001FA510258066E0001FB510358076E16
:10239000100EF66E600EF76E000EF86E0900F5CFA7
:1023A00008F00900F5CF09F00900F5CF0AF009009F
:1023B000F5CF0BF00B50075C08E10A50065C05E115
:1023C0000950055C02E10850045CD8A0B2D000C0FE
:1023D000F8F001C0F9F002C0FAF003C0FBF0000E03
:1023E000026E600E016E380E006E0250E56E0150F6
:1023F000E56E0050E56E4BEC2AF0030EE12674EC1E
:1024000034F0006EF3CF01F0F4CF02F0E9CF03F027
:1024100000500001CA6F01500001CB6F0250000153
:10242000CC6F03500001CD6FFCC000F0FDC001F087
:10243000FEC002F0FFC003F00001FC2B08E3000126
:10244000FD2B05E30001FE3F02D00001FF2B0050F1
:102450000001CE6F01500001CF6F02500001D06F1C
:1024600003500001D16F000E016ED20E006E800E7F
:10247000026E0E0EF66E600EF76E000EF86E09001C
:10248000F5CF03F00900F5CF04F0000EE56E04501F
:10249000E56E0350E56E0250E56E0150E56E0050AA
:1024A000E56E4DEC21F0060EE126000E016ED20E17
:1024B000006E800E026E000E046ECA0E036E800E59
:1024C000056E000EE56E080EE56E0550E56E0450D3
:1024D000E56E0350E56E0250E56E0150E56E00506A
:1024E000E56E67EC25F0006E080EE126005011E065
:1024F000000E026E600E016E440E006E0250E56E1C
:102500000150E56E0050E56EBFEC2DF0030EE126A4
:1025100010D0000E026E600E016E480E006E02506A
:10252000E56E0150E56E0050E56EBFEC2DF0030E38
:10253000E126E4CF0BF0E4CF0AF0E4CF09F0E4CFDA
:1025400008F0E4CF07F0E4CF06F0E4CF05F0E4CFE5
:1025500004F0E4CF03F0E4CF02F0E4CF01F0E4CFE5
:1025600000F0E4CFD9FF1200D9CFE5FFE1CFD9FFCA
:1025700000C0E5FF01C0E5FF02C0E5FF03C0E5FFC5
:1025800004C0E5FF05C0E5FF06C0E5FF07C0E5FFA5
:10259000020EDBCF00F0030EDBCF01F0040EDBCF29
:1025A00002F0050EDBCF03F0060EDBCF04F0070EC2
:1025B000DBCF05F0080EDBCF06F0090EDBCF07F00E
:1025C00000500F01086F0150096F02500A6F03504D
:1025D0000B6F04500F010C6F05500D6F06500E6FFE
:1025E00007500F6F0F0108510F010E03F4CF01F0D8
:1025F000F3CF00F000500F01126F0150136F0F0165
:1026000008510F010C03F4CF01F0F3CF00F000509C
:102610000F01106F0150116F0F010B510F010C03CF
:10262000F3CF00F00F01135100260050136F0F017C
:102630000A510F010D03F3CF00F00F0113510026D3
:102640000050136F0F010A510F010C03F4CF01F07A
:10265000F3CF00F00F011251002613510122005058
:10266000126F0150136F0F0109510F010D03F4CFC9
:1026700001F0F3CF00F00F01125100261351012297
:102680000050126F0150136F0F0109510F010E031B
:10269000F3CF00F000500F01176F0F0109510F0128
:1026A0000C03F4CF01F0F3CF00F000500F01156FD1
:1026B0000150166F0F0108510F010F03F3CF00F007
:1026C00000500F011B6F0F0108510F010D03F4CFD4
:1026D00001F0F3CF00F000500F01196F01501A6F95
:1026E0000F01146B0F01186B0F0114510F0110250E
:1026F000006E0F0115510F011121016E0F011651CE
:102700000F011221026E0F0117510F011321036EE9
:102710000050106F0150116F0250126F0350136F71
:102720000F0118510F011025006E0F0119510F01F3
:102730001121016E0F011A510F011221026E0F01BA
:102740001B510F011321036E03C0E9FF02C0F4FF08
:1027500001C0F3FF0050E4CF07F0E4CF06F0E4CF70
:1027600005F0E4CF04F0E4CF03F0E4CF02F0E4CFCF
:1027700001F0E4CF00F0E4CFD9FF1200D9CFE5FF9C
:10278000E1CFD9FF00C0E5FF01C0E5FF02C0E5FFD2
:1027900003C0E5FF04C0E5FF05C0E5FF06C0E5FF97
:1027A00007C0E5FF08C0E5FF09C0E5FF0AC0E5FF77
:1027B0000BC0E5FF0CC0E5FF0DC0E5FF0EC0E5FF57
:1027C0000FC0E5FF020EDBCF00F0030EDBCF01F000
:1027D000040EDBCF02F0050EDBCF03F0060EDBCFDD
:1027E00004F0070EDBCF05F0080EDBCF06F0090E74
:1027F000DBCF07F00A0EDBCF08F00B0EDBCF09F0C2
:1028000031C80AF032C80BF00AC0E5FF0BC0F4FF74
:1028100000C0E9FF01C0F3FF025091EC34F0080E54
:102820000B6E070E0A6E800E0C6E02500F6E01507A
:102830000E6E00500D6E000EE56E080EE56E0F5028
:10284000E56E0E50E56E0D50E56E0C50E56E0B50CA
:10285000E56E0A50E56ECFEC1FF0080EE12606503B
:1028600007101AE0080E0B6E0F0E0A6E800E0C6E2B
:102870000750E56E0650E56E0550E56E0450E56EB6
:102880000350E56E0C50E56E0B50E56E0A50E56E98
:10289000CFEC1FF0080EE1260850380A02E109507B
:1028A00033E0030E036E0050020F046E000E012091
:1028B000056E000E0220066E04C0E9FF05C0F3FF9E
:1028C00006503FEC33F0046EF3CF05F00450400A9D
:1028D00002E1055001E002D0040E036E0450081816
:1028E00003E10550091801E002D0020E036E035007
:1028F000E56E0950E56E0850E56E4AEC0CF0036E8B
:10290000030EE12603501BD0020E0026000E01220A
:10291000022200C0E9FF01C0F3FF02503FEC33F098
:10292000006EF3CF01F0000EE56E0150E56E005031
:10293000E56E4AEC0CF0006E030EE1260050E4CF89
:102940000FF0E4CF0EF0E4CF0DF0E4CF0CF0E4CFC5
:102950000BF0E4CF0AF0E4CF09F0E4CF08F0E4CFC5
:1029600007F0E4CF06F0E4CF05F0E4CF04F0E4CFC5
:1029700003F0E4CF02F0E4CF01F0E4CF00F0E4CFC5
:10298000D9FF1200D9CFE5FFE1CFD9FF00C0E5FFA5
:1029900001C0E5FF02C0E5FF03C0E5FF04C0E5FF9D
:1029A00005C0E5FF06C0E5FF07C0E5FF08C0E5FF7D
:1029B00009C0E5FF0AC0E5FF0BC0E5FF0CC0E5FF5D
:1029C0000DC0E5FF0EC0E5FF0FC0E5FF10C0E5FF3D
:1029D000020EDBCF00F0030EDBCF01F0040EDBCFE5
:1029E00002F0050EDBCF03F0060EDBCF04F0070E7E
:1029F000DBCF05F0CC0E0001F36FCC0E0001F46FBD
:102A0000CC0E0001F56FCC0E0001F66FCC0E00016C
:102A1000F76F000E076EF30E066E800E086E00C094
:102A200009F001C00AF0010E0B6E09500A1030E0E7
:102A3000025003E10050011020E10B5006240C6EFF
:102A4000E86A07200D6EE86A08200E6E070E09146A
:102A50000F6E106AC20E0F26000E10220FC0E9FF83
:102A600010C0EAFFEFCF0FF00FC0E5FF0CC0E9FF89
:102A70000DC0F3FF0E50C2EC34F0D8900A32093288
:102A8000D8900A320932D8900A3209320B2ACDD7AF
:102A9000025003E10050011015E1006AC20E022647
:102AA000000E002202C0E9FF00C0EAFFEFCF02F0F3
:102AB00002C0E5FF06C0E9FF07C0F3FF0850C2EC03
:102AC00034F019D0062A02E3074A082A0B06006AE6
:102AD000C20E0B26000E00220BC0E9FF00C0EAFF69
:102AE000EFCF0BF00BC0E5FF06C0E9FF07C0F3FF17
:102AF0000850C2EC34F0006A00500324016EE86A0A
:102B00000420026EE86A0520066E00500408076E75
:102B1000086AF30E0726000E082207C0E9FF08C066
:102B2000EAFFEFCF07F007C0E5FF01C0E9FF02C0F1
:102B3000F3FF0650C2EC34F0002A050E005CDCE323
:102B4000E4CF10F0E4CF0FF0E4CF0EF0E4CF0DF0BF
:102B5000E4CF0CF0E4CF0BF0E4CF0AF0E4CF09F0BF
:102B6000E4CF08F0E4CF07F0E4CF06F0E4CF05F0BF
:102B7000E4CF04F0E4CF03F0E4CF02F0E4CF01F0BF
:102B8000E4CF00F0E4CFD9FF1200D9CFE5FFE1CFC9
:102B9000D9FF00C0E5FF01C0E5FF02C0E5FF03C0AB
:102BA000E5FF04C0E5FF05C0E5FF06C0E5FF07C07F
:102BB000E5FF08C0E5FF09C0E5FF0AC0E5FF0BC05F
:102BC000E5FF0CC0E5FF0DC0E5FF0EC0E5FF0FC03F
:102BD000E5FF10C0E5FF11C0E5FF020EDBCF00F0FE
:102BE000030EDBCF01F0040EDBCF02F0050EDBCFCE
:102BF00003F0060EDBCF04F0070EDBCF05F0080E66
:102C0000DBCF06F0090EDBCF07F00350086E04504F
:102C1000096E00500A6E01500B6E0950800FF36E62
:102C20000B50800FF35C02E10A50085CD8B054D01E
:102C3000065008260750092209500B5C02E1085093
:102C40000A5CD8B049D002500A6E0150096E00509B
:102C5000086E0650082607500922E86A0A22FF0E6D
:102C6000082609220A2205500D6E04500C6E0350EE
:102C70000B6E06500B2607500C22E86A0D22FF0E41
:102C80000B260C220D2206C00EF007C00FF00EC05E
:102C900010F00FC011F0FF0E0E260F221050111071
:102CA000D8B444D00BC0E9FF0CC0F3FF0D5063EC67
:102CB00034F0106EFF0E0B260C220D2210C0E5FF23
:102CC00008C0E9FF09C0F3FF0A50C2EC34F0FF0E60
:102CD000082609220A22DBD702500A6E0150096E2B
:102CE0000050086E06C00BF007C00CF0FF0E062661
:102CF00007220B500C101AE003C0E9FF04C0F3FFD9
:102D0000055063EC34F00B6E032A02E3044A052AF3
:102D10000BC0E5FF08C0E9FF09C0F3FF0A50C2EC91
:102D200034F0082ADFE3094A0A2ADCD702C0F4FF9C
:102D300001C0F3FF0050E4CF11F0E4CF10F0E4CF76
:102D40000FF0E4CF0EF0E4CF0DF0E4CF0CF0E4CFC1
:102D50000BF0E4CF0AF0E4CF09F0E4CF08F0E4CFC1
:102D600007F0E4CF06F0E4CF05F0E4CF04F0E4CFC1
:102D700003F0E4CF02F0E4CF01F0E4CF00F0E4CFC1
:102D8000D9FF1200D9CFE5FFE1CFD9FF00C0E5FFA1
:102D900001C0E5FF02C0E5FF03C0E5FF04C0E5FF99
:102DA00005C0E5FF06C0E5FF07C0E5FF08C0E5FF79
:102DB00009C0E5FF0AC0E5FF0BC0E5FF020EDBCF4F
:102DC00000F0030EDBCF01F0040EDBCF02F0050EA6
:102DD000DBCF03F0005023E1000E056EA70E046E5A
:102DE000800E066E0350096E0250086E0150076E89
:102DF000ACC00AF00B6A0B50E56E0A50E56E095044
:102E0000E56E0850E56E0750E56E0650E56E05501C
:102E1000E56E0450E56ECFEC1FF0080EE126070EBC
:102E2000005CD8B08AD0020E005C22E2560E00246C
:102E3000046E056A600E0522066A000E062204C0B2
:102E4000F6FF05C0F7FF06C0F8FF0900F5CF04F054
:102E50000001AC51E56E0350E56E0250E56E015085
:102E6000E56E0450E56E14EC28F0050EE12620D046
:102E7000560E0024046E056A600E0522066A000ED6
:102E8000062204C0F6FF05C0F7FF06C0F8FF0900E0
:102E9000F5CF04F0010EE56E0350E56E0250E56ECD
:102EA0000150E56E0450E56E14EC28F0050EE126A5
:102EB0005C0E0024016E026A600E0222036A000E9C
:102EC000032201C0F6FF02C0F7FF03C0F8FF0900AC
:102ED000F5CF01F00001A551E56E0150E56EAEECB5
:102EE00030F0E652E652020EE56E90EC31F0016EE3
:102EF000E652026A036A500E0026600E0222000E9D
:102F0000032200C0F6FF02C0F7FF03C0F8FF09006C
:102F1000F5CF00F0010E026E005005E0E86CD8908D
:102F20000236010FFDE3025001120150E56E020E60
:102F3000E56EAEEC30F0E652E652E4CF0BF0E4CFB3
:102F40000AF0E4CF09F0E4CF08F0E4CF07F0E4CFD3
:102F500006F0E4CF05F0E4CF04F0E4CF03F0E4CFD3
:102F600002F0E4CF01F0E4CF00F0E4CFD9FF12008B
:102F7000D9CFE5FFE1CFD9FF00C0E5FF01C0E5FFF4
:102F800002C0E5FF03C0E5FF04C0E5FF05C0E5FFA3
:102F900006C0E5FF07C0E5FF08C0E5FF09C0E5FF83
:102FA0000AC0E5FF0BC0E5FF0CC0E5FF0DC0E5FF63
:102FB0000EC0E5FF0FC0E5FF020EDBCF00F0030EF1
:102FC000DBCF01F0040EDBCF02F000C003F001C044
:102FD00004F002C005F00050020F066E000E012042
:102FE000076E000E0220086E0050030F096E000EDF
:102FF00001200A6E000E02200B6E36C80CF037C896
:103000000DF038C80EF006C0E9FF07C0F3FF085006
:1030100063EC34F00F6E020E0F5C15E300C0E9FFA5
:1030200001C0F3FF02503FEC33F00C6EF3CF0DF014
:10303000010EE56E09C0E9FF0AC0F3FF0B50C2ECB8
:1030400034F00E6A4ED000C0E9FF01C0F3FF025019
:103050003FEC33F0096EF3CF0AF00A50E56E0950E9
:10306000E56E5CEC29F0096EE652E65209500DE07F
:1030700000C0E9FF01C0F3FF02503FEC33F00C6EDB
:10308000F3CF0DF0050E0E6E2CD000C0E9FF01C08D
:10309000F3FF02503FEC33F0096EF3CF0AF00A5011
:1030A000E56E0950E56ED6EC30F0096EE652E65258
:1030B000095017E000C0E9FF01C0F3FF02503FECE8
:1030C00033F0006EF3CF01F00150E56E0050E56E75
:1030D0008EEC2EF00C6EF3CF0DF0E652E652050E9C
:1030E0000E6E0CC0E5FF0DC0F4FF03C0E9FF04C085
:1030F000F3FF055091EC34F00EC0E5FF06C0E9FF88
:1031000007C0F3FF0850C2EC34F0010EE4CF0FF01B
:10311000E4CF0EF0E4CF0DF0E4CF0CF0E4CF0BF0F1
:10312000E4CF0AF0E4CF09F0E4CF08F0E4CF07F0F1
:10313000E4CF06F0E4CF05F0E4CF04F0E4CF03F0F1
:10314000E4CF02F0E4CF01F0E4CF00F0E4CFD9FF08
:103150001200D9CFE5FFE1CFD9FF00C0E5FF01C0E4
:10316000E5FF02C0E5FF03C0E5FF04C0E5FF05C0C1
:10317000E5FF06C0E5FF07C0E5FF08C0E5FF09C0A1
:10318000E5FF0AC0E5FF0BC0E5FF0CC0E5FF0DC081
:10319000E5FF0EC0E5FF0FC0E5FF020EDBCF00F03C
:1031A000030EDBCF01F0040EDBCF02F0050EDBCF08
:1031B00003F0060EDBCF04F0070EDBCF05F0080EA0
:1031C000DBCF06F0200E076E086A06C009F00A6A17
:1031D0000B6A0C6AE56AE56AE56A0950E56E035018
:1031E000E56E0250E56E0150E56E0050E56EE6ECCE
:1031F0001CF00D6E080EE126300E0D263A0E0D5C09
:1032000005E30D500E6E270E0E240D6EFF0E0726E1
:103210000822800E07240E6E000E08200F6E0EC0CE
:10322000E9FF0FC0EAFF0DC0EFFF0C50E56E0B5039
:10323000E56E0A50E56E0950E56E0350E56E0250EA
:10324000E56E0150E56E0050E56E3FEC1FF0006E3C
:10325000F3CF01F0F4CF02F0E9CF03F0080EE1263E
:103260000050011002100310D8A4AFD707C000F01F
:1032700008C001F004C002F005C003F000C004F073
:1032800001C005F0004A012A800E0426000E052226
:1032900004C0E9FF05C0EAFFEFCF04F002C0E9FF78
:1032A00003C0EAFF04C0EFFF024A032A000E015CDC
:1032B00002E1200E005CE2E302C0E9FF03C0EAFF86
:1032C000000EEF6AE4CF0FF0E4CF0EF0E4CF0DF084
:1032D000E4CF0CF0E4CF0BF0E4CF0AF0E4CF09F038
:1032E000E4CF08F0E4CF07F0E4CF06F0E4CF05F038
:1032F000E4CF04F0E4CF03F0E4CF02F0E4CF01F038
:10330000E4CF00F0E4CFD9FF1200D9CFE5FFE1CF41
:10331000D9FF00C0E5FF01C0E5FF02C0E5FF03C023
:10332000E5FF04C0E5FF05C0E5FF020EDBCF00F0BE
:10333000030EDBCF01F0040EDBCF02F00250E56E8E
:103340000150E56E4EEC2DF0036EE652E65203504E
:1033500001E1A0D001500801316F02500801326F25
:10336000E3EC32F0036E035001E194D00050FF0A09
:1033700005E00050E56E62EC32F0E652000EE56EBC
:10338000000EE56E04EC2CF0E652E652ADEC2FF0A8
:10339000000EE56E060EE56E08013251E56E08017D
:1033A0003151E56EB1EC24F0006EF3CF03F0040E62
:1033B000E126002A0050020DF3CF00F0030E002694
:1033C000050EE56E0050E56EDAEC2FF0E652E6529F
:1033D000190E0801016F0801026B0801036B080157
:1033E000046B08010451E56E08010351E56E080104
:1033F0000251E56E08010151E56E000EE56E000E0A
:10340000E56E000EE56E030EE56EB4EC12F0006E94
:10341000F3CF03F0F4CF04F0E9CF05F0080EE12676
:1034200000500801056F03500801066FBAEC22F046
:10343000060E006E00C003F00006035029E0000EE7
:10344000046EE40E036E800E056E0550E56E0450AA
:10345000E56E0350E56E0050E56E0250E56E0150DA
:10346000E56EC2EC14F0060EE126000E046EE40ECA
:10347000036E800E056E0550E56E0450E56E035038
:10348000E56E0050E56E6DEC10F0040EE126D2D72B
:103490000EEC25F0E4CF05F0E4CF04F0E4CF03F028
:1034A000E4CF02F0E4CF01F0E4CF00F0E4CFD9FFA5
:1034B0001200D9CFE5FFE1CFD9FF00C0E5FF01C081
:1034C000E5FF02C0E5FF03C0E5FF04C0E5FF05C05E
:1034D000E5FF06C0E5FF07C0E5FF08C0E5FF09C03E
:1034E000E5FF0AC0E5FF0BC0E5FF020EDBCF00F0F1
:1034F000030EDBCF01F0040EDBCF02F0050EDBCFB5
:1035000003F0060EDBCF04F0045007E02EEC23F0AE
:10351000010EE56E2BEC32F0E65274EC34F0046EE2
:10352000F3CF05F0F4CF06F0E9CF07F0170EE56E04
:1035300090EC31F0086EE65208B83ED01BEC34F047
:10354000086E08A8F3D7100EE56E070EE56EAEEC18
:1035500030F0E652E652000EE56E2BEC32F0E65209
:10356000010EE56E2BEC32F0E65274EC34F0086E8E
:10357000F3CF09F0F4CF0AF0E9CF0BF00450085E66
:103580000550095A06500A5A07500B5A03500B5C53
:1035900008E102500A5C05E10150095C02E10050BB
:1035A000085CD8A0C3D7000EE56E2BEC32F0E652D3
:1035B0002DEC34F0E86A06D0000EE56E2BEC32F00C
:1035C000E652010EE4CF0BF0E4CF0AF0E4CF09F0AD
:1035D000E4CF08F0E4CF07F0E4CF06F0E4CF05F045
:1035E000E4CF04F0E4CF03F0E4CF02F0E4CF01F045
:1035F000E4CF00F0E4CFD9FF1200D9CFE5FFE1CF4F
:10360000D9FF00C0E5FF01C0E5FF02C0E5FF03C030
:10361000E5FF04C0E5FF05C0E5FF06C0E5FF07C004
:10362000E5FF08C0E5FF09C0E5FF0AC0E5FF0BC0E4
:10363000E5FF0CC0E5FF0DC0E5FF0EC0E5FF0FC0C4
:10364000E5FF020EDBCF00F0030EDBCF01F0040E2E
:10365000DBCF02F0050EDBCF03F0060EDBCF04F06C
:10366000070EDBCF05F0080EDBCF06F0090EDBCF2F
:1036700007F074EC34F0086EF3CF09F0F4CF0AF0E1
:10368000E9CF0BF01BEC34F00C6E0CA026D01BEC39
:1036900034F00C6E0CA8F6D70DEC32F074EC34F06C
:1036A0000C6EF3CF0DF0F4CF0EF0E9CF0FF0085011
:1036B0000C5E09500D5A0A500E5A0B500F5A0F50FB
:1036C000075C08E10E50065C05E10D50055C02E167
:1036D0000C50045CD7E2E86A11D0010EE56E000ED2
:1036E000E56E0350E56E0250E56E0150E56E005048
:1036F000E56E98EC2AF0060EE126010EE4CF0FF0FD
:10370000E4CF0EF0E4CF0DF0E4CF0CF0E4CF0BF0FB
:10371000E4CF0AF0E4CF09F0E4CF08F0E4CF07F0FB
:10372000E4CF06F0E4CF05F0E4CF04F0E4CF03F0FB
:10373000E4CF02F0E4CF01F0E4CF00F0E4CFD9FF12
:103740001200D9CFE5FFE1CFD9FF00C0E5FF01C0EE
:10375000E5FF0001A0510001A11909E0000EE56E8E
:103760000001A051E56E88EC0AF0E652E652A1C0D5
:1037700000F00001A051001808E0000EE56E0050B6
:10378000E56E88EC0AF0E652E652D0EC33F0000E1B
:10379000E56E2BEC32F0E652010EE56ECFEC31F027
:1037A000E652000EE56E050EE56E6EEC27F0E65271
:1037B000E6520C0EE56E000EE56EAEEC30F0E65211
:1037C000E6520F0EE56E050EE56EDAEC2FF0E652CE
:1037D000E652020EE56E18EC26F0006EE65200503E
:1037E00003E0010E0001A46F060EE56E90EC31F0CF
:1037F000006EE652000EE56E18EC26F0E6526BEC19
:1038000033F0000EE56E1D0EE56EAEEC30F0E652C4
:10381000E652000EE56E1C0EE56EAEEC30F0E652A0
:10382000E652700EE56E070EE56EAEEC30F0E65235
:10383000E6524C0EE56E62EC32F0E6523FEC34F0AC
:103840002DEC34F04BEC31F0000EE56E90EC31F0E5
:10385000016EE65201900150E56E000EE56EAEEC91
:1038600030F0E652E652005003E00050FF0A02E159
:10387000006A02D0010E006E0050E4CF01F0E4CFE8
:1038800000F0E4CFD9FF1200D9CFE5FFE1CFD9FF97
:1038900000C0E5FF01C0E5FF02C0E5FF03C0E5FF92
:1038A00004C0E5FF05C0E5FF06C0E5FF020EDBCF63
:1038B00000F0030EDBCF01F0040EDBCF02F0050EAB
:1038C000DBCF03F0000E056EE90E046E800E066E6F
:1038D0000650E56E0550E56E0450E56E0250E56E4B
:1038E0000150E56E0050E56EC2EC14F0060EE126C4
:1038F00008012BB502D02EEC23F0035009E0000E96
:10390000E56E000EE56E04EC2CF0E652E65208D0AF
:10391000010EE56E000EE56E04EC2CF0E652E65268
:10392000000E016EE90E006E800E026E0250E56E12
:103930000150E56E0050E56EAEEC1EF0030EE12680
:10394000080E016E070E006E800E026E000EE56E10
:1039500008013351E56E0250E56E0150E56E0050EE
:10396000E56EC1EC27F0006E050EE12608012BB5CF
:103970001BD0000EE56E08010451E56E08010351ED
:10398000E56E08010251E56E08010151E56E59EC42
:103990001AF0006E050EE126000EE56E000EE56ED3
:1039A00004EC2CF0E652E6520050E4CF06F0E4CFEF
:1039B00005F0E4CF04F0E4CF03F0E4CF02F0E4CF6D
:1039C00001F0E4CF00F0E4CFD9FF1200D9CFE5FF3A
:1039D000E1CFD9FF00C0E5FF01C0E5FF02C0E5FF70
:1039E00003C0E5FF04C0E5FF05C0E5FF06C0E5FF35
:1039F00007C0E5FF08C0E5FF09C0E5FF0AC0E5FF15
:103A0000020EDBCF00F0030EDBCF01F0040EDBCFA4
:103A100002F0050EDBCF03F0060EDBCF04F0070E3D
:103A2000DBCF05F0080EDBCF06F0090EDBCF07F089
:103A3000086A045005100610071005E1E968F468EB
:103A4000F368E86847D0096A0750800BE8440A6EBB
:103A50000A501BE104500426053606360736075087
:103A6000035C08E10650025C05E10550015C02E1DF
:103A70000450005C06E2D890073206320532043268
:103A800004D0092A09C008F0DFD70750035C08E119
:103A90000650025C05E10550015C02E10450005C47
:103AA00008E30450005E0550015A0650025A0750C0
:103AB000035AD890073206320532043208C009F0A2
:103AC00008060950E2E103C0E9FF02C0F4FF01C0AB
:103AD000F3FF0050E4CF0AF0E4CF09F0E4CF08F0A0
:103AE000E4CF07F0E4CF06F0E4CF05F0E4CF04F034
:103AF000E4CF03F0E4CF02F0E4CF01F0E4CF00F034
:103B0000E4CFD9FF1200D9CFE5FFE1CFD9FF00C044
:103B1000E5FF01C0E5FF02C0E5FF03C0E5FF04C00B
:103B2000E5FF05C0E5FF06C0E5FF07C0E5FF08C0EB
:103B3000E5FF09C0E5FF0AC0E5FF0BC0E5FF020E87
:103B4000DBCF00F0030EDBCF01F0040EDBCF02F081
:103B5000050EDBCF03F0060EDBCF04F0070EDBCF44
:103B600005F0080EDBCF06F0090EDBCF07F00A0EDA
:103B7000DBCF08F00050020F096E000E01200A6E24
:103B8000000E02200B6E400EE56E000EF46E09C0B2
:103B9000E9FF0AC0F3FF0B5091EC34F031C809F093
:103BA00032C80AF009C0E5FF0AC0F4FF00C0E9FF0F
:103BB00001C0F3FF025091EC34F00850E56E30EC98
:103BC0002BF0086EF3CF09F0E6520950E56E08506D
:103BD000E56E0750E56E0650E56E0550E56E045043
:103BE000E56E0350E56E0250E56E0150E56E005043
:103BF000E56E5EEC06F0006E0A0EE1260050E4CFA2
:103C00000BF0E4CF0AF0E4CF09F0E4CF08F0E4CF02
:103C100007F0E4CF06F0E4CF05F0E4CF04F0E4CF02
:103C200003F0E4CF02F0E4CF01F0E4CF00F0E4CF02
:103C3000D9FF1200D9CFE5FFE1CFD9FF00C0E5FFE2
:103C400001C0E5FF02C0E5FF03C0E5FF04C0E5FFDA
:103C500005C0E5FF06C0E5FF07C0E5FF020EDBCFAC
:103C600000F0030EDBCF01F0040EDBCF02F0050EF7
:103C7000DBCF03F0948C948E0350E56E0250E56E1A
:103C80000150E56E0050E56E000EE56E000EE56E2B
:103C9000000EE56E040EE56EB4EC12F0046EF3CF88
:103CA00005F0F4CF06F0E9CF07F0080EE126075043
:103CB000E56E0650E56E0550E56E0450E56E010EAA
:103CC000E56EE80EE56E480EE56E000EE56E3FEC23
:103CD0001FF0046EF3CF05F0F4CF06F0E9CF07F044
:103CE000080EE1260450FF0F006EFF0E0520016E46
:103CF000FF0E0620026EFF0E0720036E0050046EBA
:103D0000056A066A076A0450AF6E006A026A036AAF
:103D10000150006E0250016E0350026E036A0050A3
:103D2000B06EAC9CAC98AC84B886AB9CAB88AC8ACB
:103D3000AB8EE4CF07F0E4CF06F0E4CF05F0E4CF9C
:103D400004F0E4CF03F0E4CF02F0E4CF01F0E4CFDD
:103D500000F0E4CFD9FF12000D0A0000D9CFE5FF33
:103D6000E1CFD9FF00C0E5FF01C0E5FF02C0E5FFDC
:103D700003C0E5FF04C0E5FF05C0E5FF06C0E5FFA1
:103D800007C0E5FF08C0E5FF020EDBCF00F0030E21
:103D9000DBCF01F0040EDBCF02F0036ADA0E03245E
:103DA000046E056A000E052203C006F0076A06507D
:103DB0000408066E000E0756086A07BE0868005021
:103DC0000626015007220250082206C0E9FF07C05C
:103DD000F3FF085063EC34F0066E04C0E9FF05C041
:103DE000EAFF06C0EFFF032A050E035CD7E3000ECF
:103DF000016EDA0E006E800E026E0001AC51E56EAF
:103E00000250E56E0150E56E0050E56E0A0EE56E5B
:103E100014EC28F0050EE126000E016EDA0E006E9D
:103E2000800E026E0001AC51E56E0250E56E01504D
:103E3000E56E0050E56E100EE56E14EC28F0050EF0
:103E4000E1260001A551E56E110EE56EAEEC30F0F5
:103E5000E652E652E4CF08F0E4CF07F0E4CF06F0F4
:103E6000E4CF05F0E4CF04F0E4CF03F0E4CF02F0B8
:103E7000E4CF01F0E4CF00F0E4CFD9FF1200D9CFB6
:103E8000E5FFE1CFD9FF00C0E5FF01C0E5FF02C0BB
:103E9000E5FF03C0E5FF04C0E5FF05C0E5FF06C080
:103EA000E5FF07C0E5FF08C0E5FF09C0E5FF0AC060
:103EB000E5FF0BC0E5FF0CC0E5FF0DC0E5FF020EFE
:103EC000DBCF00F0030EDBCF01F0040EDBCF02F0FE
:103ED000050EDBCF03F0060EDBCF04F0070EDBCFC1
:103EE00005F0080EDBCF06F0090EDBCF07F0086AFD
:103EF000096A0A6A0B6A200E0C6E0350800BE844B4
:103F00000D6E005000260136023603360850082692
:103F100009360A360B360D50D8A4088007500B5CC2
:103F200008E106500A5C05E10550095C02E1045015
:103F3000085C09E30450085E0550095A06500A5A05
:103F400007500B5A00800C040D6E0DC00CF00D5084
:103F5000D4E103C0E9FF02C0F4FF01C0F3FF005049
:103F6000E4CF0DF0E4CF0CF0E4CF0BF0E4CF0AF097
:103F7000E4CF09F0E4CF08F0E4CF07F0E4CF06F097
:103F8000E4CF05F0E4CF04F0E4CF03F0E4CF02F097
:103F9000E4CF01F0E4CF00F0E4CFD9FF1200D9CF95
:103FA000E5FFE1CFD9FF00C0E5FF01C0E5FF02C09A
:103FB000E5FF03C0E5FF04C0E5FF05C0E5FF06C05F
:103FC000E5FF07C0E5FF08C0E5FF09C0E5FF0AC03F
:103FD000E5FF0BC0E5FF0CC0E5FF020EDBCF00F0F4
:103FE000030EDBCF01F0040EDBCF02F0050EDBCFBA
:103FF00003F0060EDBCF04F0070EDBCF05F0080E52
:10400000DBCF06F0090EDBCF07F002500A6E01503D
:10401000096E0050086E06C00BF007C00CF0FF0ED2
:10402000062607220B500C101AE003C0E9FF04C05B
:10403000F3FF055063EC34F00B6E032A02E3044AED
:10404000052A0BC0E5FF08C0E9FF09C0F3FF0A50CD
:10405000C2EC34F0082ADFE3094A0A2ADCD702C09E
:10406000F4FF01C0F3FF0050E4CF0CF0E4CF0BF0FD
:10407000E4CF0AF0E4CF09F0E4CF08F0E4CF07F092
:10408000E4CF06F0E4CF05F0E4CF04F0E4CF03F092
:10409000E4CF02F0E4CF01F0E4CF00F0E4CFD9FFA9
:1040A0001200D9CFE5FFE1CFD9FF00C0E5FF01C085
:1040B000E5FF02C0E5FF03C0E5FF04C0E5FF05C062
:1040C000E5FF020EDBCF00F0030EDBCF01F0040EA4
:1040D000DBCF02F0FEEC30F0036E0350D8B44FD0CB
:1040E0003B0E036E080E046E0450046E0350036E04
:1040F000800E056E0250026E0150016E0050006E7F
:104100000550056E0450046E0350036E000EE56EFC
:10411000080EE56E0550E56E0450E56E0350E56E41
:104120000250E56E0150E56E0050E56ECFEC1FF0D9
:10413000080EE1260F0E016E1E0E006E800E026E3E
:10414000080E046E430E036E800E056E000EE56EC3
:10415000020EE56E0550E56E0450E56E0350E56E07
:104160000250E56E0150E56E0050E56ECFEC1FF099
:10417000080EE1261FCFF3FF0F011E5102D0F36A94
:10418000E86AE4CF05F0E4CF04F0E4CF03F0E4CF35
:1041900002F0E4CF01F0E4CF00F0E4CFD9FF120049
:1041A000D9CFE5FFE1CFD9FF00C0E5FF01C0E5FFB2
:1041B00002C0E5FF03C0E5FF04C0E5FF05C0E5FF61
:1041C00006C0E5FF020EDBCF00F0030EDBCF01F0EF
:1041D000040EDBCF02F0050EDBCF03F0060EDBCFC3
:1041E00004F00250026E0150016E0050006EA5C036
:1041F00005F00550035C03E203C006F002D005C0E1
:1042000006F006C003F00001A65102E0066A03D0E2
:104210000350055C066E06C005F0B6EC34F00450A1
:10422000E56E80EC33F0046EE65203C006F0030640
:10423000065012E000C0E9FF01C0F3FF025063EC3A
:1042400034F0066E002A02E3014A022A0650E56EA7
:1042500080EC33F0E652E9D705C000F000C001F071
:104260000006015006E0000EE56E80EC33F0E652E9
:10427000F5D7AAEC34F00450E4CF06F0E4CF05F013
:10428000E4CF04F0E4CF03F0E4CF02F0E4CF01F098
:10429000E4CF00F0E4CFD9FF1200D9CFE5FFE1CFA2
:1042A000D9FF00C0E5FF01C0E5FF02C0E5FF03C084
:1042B000E5FF04C0E5FF05C0E5FF06C0E5FF07C058
:1042C000E5FF08C0E5FF020EDBCF00F0030EDBCFF9
:1042D00001F0040EDBCF02F0050EDBCF03F0060E7B
:1042E000DBCF04F0070EDBCF05F00050020F066EA7
:1042F000000E0120076E000E0220086E03C0E5FFCD
:1043000004C0F4FF06C0E9FF07C0F3FF085091ECBA
:1043100034F00050040F036E000E0120046E000EF6
:104320000220066EC0C007F0C1C008F00001C03F07
:1043300002D00001C12B07C0E5FF08C0F4FF03C095
:10434000E9FF04C0F3FF065091EC34F0060E00269E
:10435000000E0122022205C0E5FF00C0E9FF01C0F6
:10436000F3FF0250C2EC34F0E4CF08F0E4CF07F0E2
:10437000E4CF06F0E4CF05F0E4CF04F0E4CF03F09F
:10438000E4CF02F0E4CF01F0E4CF00F0E4CFD9FFB6
:104390001200D9CFE5FFE1CFD9FF00C0E5FF01C092
:1043A000E5FF02C0E5FF03C0E5FF04C0E5FF05C06F
:1043B000E5FF06C0E5FF07C0E5FF08C0E5FF09C04F
:1043C000E5FF0AC0E5FF020EDBCF00F0030EDBCFF6
:1043D00001F0040EDBCF02F0050EDBCF03F0060E7A
:1043E000DBCF04F0070EDBCF05F0080EDBCF06F0C5
:1043F000090EDBCF07F00A0EDBCF08F0700EE56E7A
:10440000070EE56EAEEC30F0096EE652E652200E75
:1044100009140A6E0AC0E5FF00C0E9FF01C0F3FFFE
:104420000250C2EC34F0100E0914006E00C0E5FF1B
:1044300003C0E9FF04C0F3FF0550C2EC34F0400EA6
:10444000091609C0E5FF06C0E9FF07C0F3FF0850E1
:10445000C2EC34F0E4CF0AF0E4CF09F0E4CF08F086
:10446000E4CF07F0E4CF06F0E4CF05F0E4CF04F0AA
:10447000E4CF03F0E4CF02F0E4CF01F0E4CF00F0AA
:10448000E4CFD9FF1200D9CFE5FFE1CFD9FF00C0BB
:10449000E5FF01C0E5FF02C0E5FF03C0E5FF04C082
:1044A000E5FF05C0E5FF06C0E5FF020EDBCF00F02B
:1044B000030EDBCF01F0040EDBCF02F0050EDBCFE5
:1044C00003F00250026E0150016E0050006EA5C054
:1044D00004F00350045C02E204C003F00001A651A2
:1044E00002E0056A03D00350045C056E05C004F0C9
:1044F000B6EC34F0610EE56E80EC33F0056EE652FA
:1045000003C006F00306065014E0FF0EE56E80ECD3
:1045100033F0066EE65206C0E5FF00C0E9FF01C0B9
:10452000F3FF0250C2EC34F0002AEAE3014A022A07
:10453000E7D704C000F000C001F00006015006E01B
:10454000FF0EE56E80EC33F0E652F5D7AAEC34F0BE
:104550000550E4CF06F0E4CF05F0E4CF04F0E4CF5B
:1045600003F0E4CF02F0E4CF01F0E4CF00F0E4CFB9
:10457000D9FF1200D9CFE5FFE1CFD9FF00C0E5FF99
:1045800001C0E5FF02C0E5FF03C0E5FF04C0E5FF91
:10459000FF0E006E016E026A005008013115036EB5
:1045A000015008013215046E035004100BE0005056
:1045B00000260136D89000360136D89000360136F4
:1045C000022AEAD702500801306F001E011E005077
:1045D0000801396F015008013A6FD890013200325A
:1045E000D89001320032D8900132003200500801D8
:1045F0003115026E015008013215036E0250080198
:10460000366F03500801376F31C802F032C803F02B
:104610000050011013E0D89003320232D8900332D8
:104620000232D89003320232D89001320032D89050
:1046300001320032D89001320032EAD7025008012C
:10464000386FE4CF04F0E4CF03F0E4CF02F0E4CF1E
:1046500001F0E4CF00F0E4CFD9FF1200D9CFE5FF9D
:10466000E1CFD9FF00C0E5FF01C0E5FF02C0E5FFD3
:10467000000EE56E2BEC32F0E6520001AD51006EFB
:104680000050E56EBFEC2BF0E6521D0EE56E90EC8F
:1046900031F0006EE65200A20AD00001AD51006E6A
:1046A0000050E56EBFEC2BF0E6522DEC34F0000E1E
:1046B000E56E90EC31F0006EE65200900050E56E31
:1046C000000EE56EAEEC30F0E652E652020EE56EFC
:1046D00090EC31F0006EE652500EF66E600EF76E02
:1046E000000EF86E0900F5CF01F0010E026E0150C8
:1046F00005E0E86CD8900236010FFDE3025000128D
:104700000050E56E020EE56EAEEC30F0E652E65279
:10471000E4CF02F0E4CF01F0E4CF00F0E4CFD9FF22
:104720001200D9CFE5FFE1CFD9FF00C0E5FF01C0FE
:10473000E5FF02C0E5FF03C0E5FF04C0E5FF05C0DB
:10474000E5FF06C0E5FF020EDBCF00F0030EDBCF76
:1047500001F0040EDBCF02F0050EDBCF03F0060EF6
:10476000DBCF04F0070EDBCF05F0080EDBCF06F041
:10477000D88003AED89015E306500A0A12E104C0AF
:10478000E9FF05C0EAFF2D0EEF6E044A052A031E5D
:10479000021E011E006C05E1012A03E1022AD8B4C1
:1047A000032A0650E56E0550E56E0450E56E035091
:1047B000E56E0250E56E0150E56E0050E56EA9EC25
:1047C00018F0070EE126E4CF06F0E4CF05F0E4CFC1
:1047D00004F0E4CF03F0E4CF02F0E4CF01F0E4CF43
:1047E00000F0E4CFD9FF1200D9CFE5FFE1CFD9FF28
:1047F00000C0E5FF01C0E5FF02C0E5FF03C0E5FF23
:1048000004C0E5FF020EDBCF00F0030EDBCF01F0AA
:10481000040EDBCF02F0050EDBCF03F0060EDBCF7C
:1048200004F00350036E0250026E0150016E200E20
:10483000045C02E3200E046EB6EC34F0070E0016A2
:10484000A80E00120050E56E80EC33F0E65201C075
:1048500000F002C001F003C002F004C003F004063F
:10486000035012E000C0E9FF01C0F3FF025063EC07
:1048700034F0036E002A02E3014A022A0350E56E77
:1048800080EC33F0E652E9D7AAEC34F0E4CF04F040
:10489000E4CF03F0E4CF02F0E4CF01F0E4CF00F086
:1048A000E4CFD9FF1200D9CFE5FFE1CFD9FF00C097
:1048B000E5FF01C0E5FF02C0E5FF03C0E5FF04C05E
:1048C000E5FF05C0E5FF06C0E5FF07C0E5FF020EF6
:1048D000DBCF00F0030EDBCF01F0040EDBCF02F0E4
:1048E000D89008013A31046E08013931036ED8902E
:1048F00004320332D89004320332056A03500410A4
:1049000005E0D89004320332052AF8D7036A02C0C2
:1049100004F003C006F0055006E0E86CD8900436B9
:104920000636010FFCE30450056E0650076E055075
:1049300000120750011201C0F3FF0050E4CF07F04E
:10494000E4CF06F0E4CF05F0E4CF04F0E4CF03F0C9
:10495000E4CF02F0E4CF01F0E4CF00F0E4CFD9FFE0
:104960001200D9CFE5FFE1CFD9FF00C0E5FF01C0BC
:10497000E5FF02C0E5FF03C0E5FF04C0E5FF05C099
:10498000E5FF06C0E5FF020EDBCF00F0030EDBCF34
:1049900001F0040EDBCF02F0050EDBCF03F0046A5A
:1049A000056A0350800BE844066E065011E1025080
:1049B000022603360350015C02E10250005C04E26F
:1049C000D8900332023204D0052A05C004F0E9D79A
:1049D0000350015C02E10250005C04E30250005EFF
:1049E0000350015AD8900332023204C005F0040685
:1049F0000550EEE101C0F3FF0050E4CF06F0E4CF34
:104A000005F0E4CF04F0E4CF03F0E4CF02F0E4CF0C
:104A100001F0E4CF00F0E4CFD9FF1200D9CFE5FFD9
:104A2000E1CFD9FF00C0E5FF01C0E5FF02C0E5FF0F
:104A30004BEC31F0000EE56E90EC31F0006EE6527A
:104A400000800050E56E000EE56EAEEC30F0E652F0
:104A5000E652700EE56E070EE56EAEEC30F0E652F3
:104A6000E652010EE56E2BEC32F0E6520001A75142
:104A700016E0000E016EA70E006E800E026E0001A1
:104A8000AC51E56E0250E56E0150E56E0050E56EEA
:104A90000A0EE56E14EC28F0050EE12605D0000E96
:104AA000E56E79EC2BF0E6521D0EE56E90EC31F0E0
:104AB000006EE65200A202D02DEC34F0E4CF02F0FA
:104AC000E4CF01F0E4CF00F0E4CFD9FF1200D9CF5A
:104AD000E5FFE1CFD9FF00C0E5FF01C0E5FF02C05F
:104AE000E5FF03C0E5FF04C0E5FF05C0E5FF06C024
:104AF000E5FF07C0E5FF020EDBCF00F0030EDBCFC2
:104B000001F0040EDBCF02F0050EDBCF03F0060E42
:104B1000DBCF04F0070EDBCF05F0080EDBCF06F08D
:104B2000090EDBCF07F0000EE56E380EE56E07507C
:104B3000E56E0650E56E0550E56E0450E56E0350D7
:104B4000E56E0250E56E0150E56E0050E56E5EECDC
:104B500006F0006E0A0EE1260050E4CF07F0E4CF25
:104B600006F0E4CF05F0E4CF04F0E4CF03F0E4CFA7
:104B700002F0E4CF01F0E4CF00F0E4CFD9FF12005F
:104B8000D9CFE5FFE1CFD9FF00C0E5FF01C0E5FFC8
:104B900002C0E5FF03C0E5FF04C0E5FF05C0E5FF77
:104BA00006C0E5FF07C0E5FF020EDBCF00F0030EF5
:104BB000DBCF01F0040EDBCF02F0050EDBCF03F0FC
:104BC000046A056A100E066E0150800BE844076EF9
:104BD0000050002601360450042605360750D8A49C
:104BE00004800350055C02E10250045C05E30250BE
:104BF000045E0350055A00800604076E07C006F0E5
:104C00000750E2E101C0F3FF0050E4CF07F0E4CF2A
:104C100006F0E4CF05F0E4CF04F0E4CF03F0E4CFF6
:104C200002F0E4CF01F0E4CF00F0E4CFD9FF1200AE
:104C3000D9CFE5FFE1CFD9FF00C0E5FF01C0E5FF17
:104C400002C0E5FF020EDBCF00F0016A060EE56E42
:104C500090EC31F0026EE652D70E0216550E0001AE
:104C6000AD6F0001AE6B0001AF6B0001B06B005087
:104C7000020A0BE1028A9B0E0001AD6F0001AE6BD0
:104C80000001AF6B0001B06B0DD00050010A0AE1CA
:104C90000286410E0001AD6F0001AE6B0001AF6BEB
:104CA0000001B06B0250E56E060EE56EAEEC30F022
:104CB000E652E652060EE56E90EC31F0006EE652DA
:104CC0000050021802E1010E016E0150E4CF02F023
:104CD000E4CF01F0E4CF00F0E4CFD9FF120017EEEB
:104CE000FFF027EEFFF0F86AA68EA69CE9680E0E8C
:104CF000EA6E0068ED6A0050FDE1D00EF66E690EB6
:104D0000F76E000EF86E0900F5CF05F00900F5CF3B
:104D100006F034D00900F5CF00F00900F5CF01F01E
:104D20000900F5CF02F009000900F5CFE9FF0900FD
:104D3000F5CFEAFF090009000900F5CF03F00900EB
:104D4000F5CF04F009000900F6CF07F0F7CF08F01F
:104D5000F8CF09F000C0F6FF01C0F7FF02C0F8FF6E
:104D600003D00900F5CFEEFF0306FBE20406F9E2EB
:104D700007C0F6FF08C0F7FF09C0F8FF0506CAE242
:104D80000606C8E2B1EC32F0FFD7D9CFE5FFE1CF9C
:104D9000D9FF00C0E5FF01C0E5FF02C0E5FF03C089
:104DA000E5FF04C0E5FF020EDBCF00F0030EDBCF12
:104DB00001F0040EDBCF02F0050EDBCF03F0060E90
:104DC000DBCF04F0010EE56E0450E56E0350E56E96
:104DD0000250E56E0150E56E0050E56E98EC2AF049
:104DE000060EE1261BEC34F0006E0050300BFAE0AA
:104DF000000EE56E2BEC32F0E652700EE56E070EFB
:104E0000E56EAEEC30F0006EE652E65200A804D03B
:104E10002DEC34F0E86A01D0010EE4CF04F0E4CFC9
:104E200003F0E4CF02F0E4CF01F0E4CF00F0E4CFF0
:104E3000D9FF1200D9CFE5FFE1CFD9FF00C0E5FFD0
:104E400001C0E5FF02C0E5FF03C0E5FF04C0E5FFC8
:104E500005C0E5FF020EDBCF00F0030EDBCF01F053
:104E6000040EDBCF02F0050EDBCF03F0060EDBCF26
:104E700004F0B6EC34F01F0E00160050E56E80EC26
:104E800033F0006EE65204C005F00406055014E04D
:104E9000FF0EE56E80EC33F0056EE65205C0E5FFCF
:104EA00001C0E9FF02C0F3FF0350C2EC34F0012A55
:104EB000EAE3024A032AE7D7AAEC34F00050E4CF31
:104EC00005F0E4CF04F0E4CF03F0E4CF02F0E4CF48
:104ED00001F0E4CF00F0E4CFD9FF1200D9CFE5FF15
:104EE000E1CFD9FF00C0E5FF01C0E5FF02C0E5FF4B
:104EF00003C0E5FF04C0E5FF05C0E5FF06C0E5FF10
:104F000007C0E5FF020EDBCF00F0030EDBCF01F0A0
:104F1000026A036A0150035C02E10050025C1EE277
:104F2000200E046E030E056E00000000000000005D
:104F30000000000000000000000000000450FF0F0F
:104F4000066EFF0E0520076E06C004F007C005F0D0
:104F500006500710E9E1024A032ADCD7E4CF07F044
:104F6000E4CF06F0E4CF05F0E4CF04F0E4CF03F0A3
:104F7000E4CF02F0E4CF01F0E4CF00F0E4CFD9FFBA
:104F80001200D9CFE5FFE1CFD9FF00C0E5FF01C096
:104F9000E5FF02C0E5FF03C0E5FF04C0E5FF05C073
:104FA000E5FF020EDBCF00F0030EDBCF01F0040EB5
:104FB000DBCF02F0050EDBCF03F0060EDBCF04F0F3
:104FC0001BEC34F0056E05A00FD01BEC34F0056E21
:104FD00005A8F6D7100EE56E070EE56EAEEC30F0C4
:104FE000E652E652E86A11D0010EE56E0450E56E15
:104FF0000350E56E0250E56E0150E56E0050E56E1F
:1050000098EC2AF0060EE126010EE4CF05F0E4CF7D
:1050100004F0E4CF03F0E4CF02F0E4CF01F0E4CFFA
:1050200000F0E4CFD9FF1200D9CFE5FFE1CFD9FFDF
:1050300000C0E5FF01C0E5FF02C0E5FF03C0E5FFDA
:1050400004C0E5FF05C0E5FF020EDBCF00F0030E54
:10505000DBCF01F0040EDBCF02F0050EDBCF03F057
:10506000060EDBCF04F0B6EC34F01F0E0016008AFB
:105070000050E56E80EC33F0006EE65204C005F09F
:105080000406055012E001C0E9FF02C0F3FF03501F
:1050900063EC34F0056E012A02E3024A032A05504C
:1050A000E56E80EC33F0E652E9D7AAEC34F000501C
:1050B000E4CF05F0E4CF04F0E4CF03F0E4CF02F056
:1050C000E4CF01F0E4CF00F0E4CFD9FF1200D9CF54
:1050D000E5FFE1CFD9FF00C0E5FF01C0E5FF02C059
:1050E000E5FF080E016E3B0E006E800E026E005052
:1050F0000801D56F01500801D66F02500801D76F23
:10510000080E016EE50E006E800E026E0050080162
:10511000E26F01500801E36F02500801E46F080ECE
:10512000016ED80E006E800E026E00500801276FCF
:1051300001500801286F02500801296F08012C6BEB
:1051400008012D6B08012E6B08012F6B08012B6BDA
:1051500008012A6B0801006B180E0801346F080162
:10516000356BE4CF02F0E4CF01F0E4CF00F0E4CF00
:10517000D9FF1200D9CFE5FFE1CFD9FF00C0E5FF8D
:1051800001C0E5FF02C0E5FF230EE56E240EE56ECB
:10519000F2EC2EF0E652E65267EC28F0000EE56ED7
:1051A000000EE56EE10EE56E000EE56E1AEC1EF0E7
:1051B000040EE126000E026E600E016E140E006EEB
:1051C0000250E56E0150E56E0050E56EBFEC2DF02B
:1051D000030EE126A1EC1BF00C0EF66E600EF76ECE
:1051E000000EF86E0900F5CF00F00900F5CF01F0D0
:1051F0000150E56E0050E56E5A0EE56E85EC19F033
:10520000030EE126E4CF02F0E4CF01F0E4CF00F09A
:10521000E4CFD9FF1200D9CFE5FFE1CFD9FF00C01D
:10522000E5FF01C0E5FF02C0E5FF03C0E5FF04C0E4
:10523000E5FF020EDBCF00F000500801306F005098
:10524000E56E30EC2BF0006EF3CF01F0E652000E6D
:10525000036EEE0E026E800E046E0450E56E035077
:10526000E56E0250E56E000EE56E0150E56E0050F1
:10527000E56EC2EC14F0060EE126000E016EEE0E95
:10528000006E800E026E0250E56E0150E56E005019
:10529000E56E000EE56E6DEC10F0040EE126E4CF35
:1052A00004F0E4CF03F0E4CF02F0E4CF01F0E4CF68
:1052B00000F0E4CFD9FF1200D9CFE5FFE1CFD9FF4D
:1052C00000C0E5FF01C0E5FF02C0E5FF03C0E5FF48
:1052D00004C0E5FF05C0E5FF06C0E5FF020EDBCF19
:1052E00000F0030EDBCF01F0026A0150E56E0050C2
:1052F000E56ED6EC30F0036EE652E65203501BE04A
:105300000801391D036E08013A1D046E0350056E35
:1053100005260434066ED89005360636D890053634
:1053200006360550001606500116026A005003E1C9
:10533000015001E1022A0250E4CF06F0E4CF05F06B
:10534000E4CF04F0E4CF03F0E4CF02F0E4CF01F0C7
:10535000E4CF00F0E4CFD9FF1200D9CFE5FFE1CFD1
:10536000D9FF00C0E5FF01C0E5FF02C0E5FF03C0B3
:10537000E5FF020EDBCF00F0030EDBCF01F0040EE1
:10538000DBCF02F0050EDBCF03F000500F01226FE0
:105390000150236F02500F01246F0350256F0F013E
:1053A00022510F012403F4CF01F0F3CF00F000509D
:1053B0000F01266F0150276F0F0122510F012503A6
:1053C000F3CF00F00F0123510F012403F3CF01F0BD
:1053D000015000260F01275100260050276F27CFCC
:1053E000F3FF2651E4CF03F0E4CF02F0E4CF01F065
:1053F000E4CF00F0E4CFD9FF1200D9CFE5FFE1CF31
:10540000D9FF00C0E5FF01C0E5FF02C0E5FF03C012
:10541000E5FF04C0E5FF020EDBCF00F0030EDBCF9B
:1054200001F0040EDBCF02F0050EDBCF03F0060E19
:10543000DBCF04F0045003E0B00E046E02D0A00EE7
:10544000046E0450E56E0350E56E0250E56E0150A7
:10545000E56E0050E56ED0EC20F0050EE126010E61
:10546000E56E2BEC32F0E6520A0EE56EBFEC2BF047
:10547000E652000EE56E2BEC32F0E652E4CF04F07B
:10548000E4CF03F0E4CF02F0E4CF01F0E4CF00F08A
:10549000E4CFD9FF1200D9CFE5FFE1CFD9FF00C09B
:1054A000E5FF01C0E5FF02C0E5FF03C0E5FF04C062
:1054B000E5FF05C0E5FF06C0E5FF07C0E5FF020EFA
:1054C000DBCF00F0030EDBCF01F0040EDBCF02F0E8
:1054D000036A046A03500024056E04500120066E1E
:1054E000E86A0220076E05C0E9FF06C0F3FF075017
:1054F00063EC34F0056E055008E00550E56E9EEC57
:1055000034F0E652034A042AE5D7E4CF07F0E4CFAB
:1055100006F0E4CF05F0E4CF04F0E4CF03F0E4CFED
:1055200002F0E4CF01F0E4CF00F0E4CFD9FF1200A5
:10553000D9CFE5FFE1CFD9FF00C0E5FF01C0E5FF0E
:1055400002C0E5FF03C0E5FF04C0E5FF05C0E5FFBD
:10555000020EDBCF00F0030EDBCF01F0040EDBCF39
:1055600002F0050EDBCF03F0060EDBCF04F0070ED2
:10557000DBCF05F0045003E0B00E046E02D0A00EA5
:10558000046E0450E56E0350E56E0250E56E015066
:10559000E56E0050E56ED0EC20F0050EE1260550DA
:1055A00005E0010EE56E2BEC32F0E652E4CF05F09B
:1055B000E4CF04F0E4CF03F0E4CF02F0E4CF01F055
:1055C000E4CF00F0E4CFD9FF1200D9CFE5FFE1CF5F
:1055D000D9FF00C0E5FF01C0E5FF02C0E5FF03C041
:1055E000E5FF04C0E5FF05C0E5FF020EDBCF00F0DC
:1055F000030EDBCF01F0040EDBCF02F0000EE56EF0
:1056000090EC31F0036EE6528F0E03160138F00B6A
:10561000046E0038E844E00B056E05500410006E7F
:105620000240E840C00B016E01500010026E0250B3
:1056300003120350E56E000EE56EAEEC30F0E6525C
:10564000E652E4CF05F0E4CF04F0E4CF03F0E4CF7A
:1056500002F0E4CF01F0E4CF00F0E4CFD9FF120074
:10566000D9CFE5FFE1CFD9FF00C0E5FF01C0E5FFDD
:1056700002C0E5FF03C0E5FF020EDBCF00F00050E3
:1056800027E0016AFF0E002601220150E56E00505E
:10569000E56E000EE56E030EE56EADEC29F0006ED2
:1056A000F3CF01F0040EE126010E026E000E036E30
:1056B000005011E007E6E86CD89002360336010F7F
:1056C000FCE309D0D89003320232010FFCE303D08F
:1056D000F36AE86A03D003C0F3FF0250E4CF03F09B
:1056E000E4CF02F0E4CF01F0E4CF00F0E4CFD9FF43
:1056F0001200D9CFE5FFE1CFD9FF00C0E5FF01C01F
:10570000E5FF02C0E5FF03C0E5FF020EDBCF00F0BE
:10571000020EE56E90EC31F0016EE652026A036A09
:10572000500E0026600E0222000E032200C0F6FF7B
:1057300002C0F7FF03C0F8FF0900F5CF00F0010E2B
:10574000026E005005E0E86CD8900236010FFDE3D0
:10575000021C006E005001160150E56E020EE56E4F
:10576000AEEC30F0E652E652E4CF03F0E4CF02F0C4
:10577000E4CF01F0E4CF00F0E4CFD9FF1200D9CF9D
:10578000E5FFE1CFD9FF00C0E5FF01C0E5FF02C0A2
:10579000E5FF03C0E5FF04C0E5FF05C0E5FF06C067
:1057A000E5FF020EDBCF00F0016A026A00C003F0E1
:1057B000046A0450025C02E10350015C14E2080E2A
:1057C000036E046A00000350FF0F056EFF0E0420F5
:1057D000066E05C003F006C004F005500610F2E1A5
:1057E000014A022AE3D7E4CF06F0E4CF05F0E4CF84
:1057F00004F0E4CF03F0E4CF02F0E4CF01F0E4CF13
:1058000000F0E4CFD9FF1200D9CFE5FFE1CFD9FFF7
:1058100000C0E5FF01C0E5FF02C0E5FF020EDBCFDF
:1058200000F0030EDBCF01F0070E005C29E2010E51
:10583000E56E90EC31F0026EE65201500CE0010E84
:10584000016E005005E0E86CD8900136010FFDE3D1
:10585000015002120DD0010E016E005005E0E86CFF
:10586000D8900136010FFDE3011C006E00500216B6
:105870000250E56E010EE56EAEEC30F0E652E652F7
:10588000E4CF02F0E4CF01F0E4CF00F0E4CFD9FFA1
:105890001200D9CFE5FFE1CFD9FF00C0E5FF01C07D
:1058A000E5FF02C0E5FF020EDBCF00F0030EDBCF09
:1058B00001F0040EDBCF02F00001AC51E56E0250A6
:1058C000E56E0150E56E0050E56E0A0EE56E14ECD3
:1058D00028F0050EE1260001AC51E56E0250E56EA0
:1058E0000150E56E0050E56E100EE56E14EC28F0E8
:1058F000050EE1260001A551E56E110EE56EAEEC38
:1059000030F0E652E652E4CF02F0E4CF01F0E4CF0B
:1059100000F0E4CFD9FF1200D9CFE5FFE1CFD9FFE6
:1059200000C0E5FF01C0E5FF02C0E5FF03C0E5FFE1
:10593000020EDBCF00F0030EDBCF01F0ABB402D0E0
:10594000ABA202D0AB98AB88026A036A0150035C39
:1059500002E10050025C03E3005001100FE19EBA27
:105960000DD0000EE56E140EE56E6EEC27F0E652DB
:10597000E652140E0226D8B0032AE8D79EAA02D017
:10598000AE5001D0A50EE4CF03F0E4CF02F0E4CF97
:1059900001F0E4CF00F0E4CFD9FF1200D9CFE5FF4A
:1059A000E1CFD9FF00C0E5FF01C0E5FF02C0E5FF80
:1059B00003C0E5FF020EDBCF00F0030EDBCF01F0EA
:1059C000040EDBCF02F0050EDBCF03F00A0EE56E0E
:1059D000000EE56EB60EE56E0350E56E0250E56E04
:1059E0000150E56E0050E56EA9EC18F0070EE126B7
:1059F000000E016EB60E006E800E026E02C0F4FF45
:105A000001C0F3FF0050E4CF03F0E4CF02F0E4CF95
:105A100001F0E4CF00F0E4CFD9FF1200D9CFE5FFC9
:105A2000E1CFD9FF00C0E5FF01C0E5FF02C0E5FFFF
:105A300003C0E5FF020EDBCF00F0030EDBCF01F069
:105A4000040EDBCF02F0170EE56E90EC31F0036E22
:105A5000E65203B017D000500110021011E01BEC09
:105A600034F0036E03407F0B036E070E031603C072
:105A7000E5FF00C0E9FF01C0F3FF0250C2EC34F0C3
:105A8000010E01D0E86AE4CF03F0E4CF02F0E4CFE6
:105A900001F0E4CF00F0E4CFD9FF1200D9CFE5FF49
:105AA000E1CFD9FF00C0E5FF01C0E5FF02C0E5FF7F
:105AB00003C0E5FF04C0E5FF020EDBCF00F0030EDC
:105AC000DBCF01F0010E026E0050011013E0070E53
:105AD0000014036E046A060E035C02E3026A0AD035
