:040000000AEF00F013
:10000800E1CF65F0E2CF66F0BFED27F010EE80F0AB
:10001800E8EF26F0070EE126000EE222F80E516EF8
:10002800FF0E526EF70EE3CF5AF0F80EE3CF5BF0F7
:10003800340E5A24D96E000E5B20DA6EDF505A6EE9
:100048005B6A51505A2652505B22FC0E5AC0E3FF9D
:10005800FD0E5BC0E3FFFB0EE36AE32AF50EE3CF78
:1000680051F0F60EE3CF52F0060E5124D96E000E71
:100078005220DA6E940EDE18D8B432D0F50EE3CFE3
:1000880051F0F60EE3CF52F0060E5124D96E000E51
:100098005220DA6E950EDE18D8B422D0F50EE3CFD2
:1000A80051F0F60EE3CF52F0060E5124D96E000E31
:1000B8005220DA6E960EDE18D8B412D0F50EE3CFC1
:1000C80051F0F60EE3CF52F0060E5124D96E000E11
:1000D8005220DA6EC80EDE18D8B402D0FB0EE36ADE
:1000E800FB0EE3CF50F0FF0E50C0E3FFFF0EE350CE
:1000F800D8B4C6D3F50EE3CF51F0F60EE3CF52F0E5
:10010800060E5124D96E000E5220DA6E940EDE18B7
:10011800D8A440D1F70EE3CF51F0F80EE3CF52F058
:10012800350E5124D96E000E5220DA6EDECF51F012
:10013800DDCF52F051C0E6FF52C0E6FF0A0EE66E70
:10014800000EE66E40EC1FF09A0E586E000E596EC7
:100158005050585E5150595AF50EE3CF51F0F60EF3
:10016800E3CF52F0070E5124D96E000E5220DA6EFA
:10017800DF505B6E5B50585C000E5958D8B010D0F9
:10018800F70EE3CF51F0F80EE3CF52F0DF0E512413
:10019800D96E000E5220DA6E000EDF6E000E52D2BB
:1001A800F50EE3CF51F0F60EE3CF52F0040E5124D2
:1001B800D96E000E5220DA6EF70EE3CF51F0F80E2A
:1001C800E3CF52F0DC0E5124E96E000E5220EA6EA5
:1001D800DE50EE181FE1DE50EE18D8A41BD0F50E45
:1001E800E3CFD9FFF60EE3CFDAFFF70EE3CF51F0F6
:1001F800F80EE3CF52F0D80E5124E96E000E5220CB
:10020800EA6EDE50EE1806E1DE50EE18D8A402D0F1
:10021800010E18D2F50EE3CF51F0F60EE3CF52F0EF
:10022800070E5124D96E000E5220DA6EDF50180DD9
:10023800F70EE3CF51F0F80EE3CF52F0D60E51246B
:10024800D96E000E5220DA6EDECF51F0DDCF52F0BB
:10025800F70EE3CF5AF0F80EE3CF5BF051505A5E39
:1002680052505B5ACC0E5A26000E5B22F3505A5C51
:100278005B50800A506EF450800A5058D8B024D091
:10028800F70EE3CF51F0F80EE3CF52F02A0E5124C7
:10029800D96E000E5220DA6E000EDB80F70EE3CF27
:1002A80051F0F80EE3CF52F02F0E5124D96E000E04
:1002B8005220DA6EDECF51F0DDCF52F051C0E6FFAA
:1002C80052C0E6FF50EC1EF0080EE66E000EE66E19
:1002D800F50EE3CF5AF0F60EE3CF5BF0070E5A2483
:1002E800516E000E5B20526E51C0E6FF52C0E6FF11
:1002F800F30EE350D80F516EF40EE3CF52F0000E18
:10030800522251C0E6FF52C0E6FFB5EC1FF0FC0ECA
:10031800E3CFE6FFE3CFE6FFF50EE3CF5AF0F60EA4
:10032800E3CF5BF00F0E5A24516E000E5B20526E25
:1003380051C0E6FF52C0E6FFF30EE3CF51F0F40ED2
:10034800E3CF52F0E20E5124D96E000E5220DA6E3D
:10035800DECF51F0DDCF52F051C0E6FF52C0E6FFCC
:10036800B5EC1FF0E150FC0FD96EE250DA6EFF0ECB
:10037800DA22F70EE3CF51F0F80EE3CF52F0E00E99
:100388005124E96E000E5220EA6EDECFEEFFDDCF7B
:10039800EDFF11D1F50EE3CF51F0F60EE3CF52F099
:1003A800060E5124D96E000E5220DA6E960EDE1813
:1003B800D8B420D0F50EE3CF51F0F60EE3CF52F0CB
:1003C800060E5124D96E000E5220DA6E950EDE18F4
:1003D800D8B410D0F50EE3CF51F0F60EE3CF52F0BB
:1003E800060E5124D96E000E5220DA6EC80EDE18A1
:1003F800D8A4AAD2FC0EE3CF51F0FD0EE3CF52F001
:10040800F70EE3CF5AF0F80EE3CF5BF0E00E5A2474
:10041800D96E000E5B20DA6EDECF5AF0DDCF5BF0CE
:1004280051505A2652505B225B5003E1910E5A5CA0
:10043800D8B0A6D6F70EE3CF51F0F80EE3CF52F0BE
:10044800DF0E5124D96E000E5220DA6EDF50D8B478
:10045800A5D6F50EE3CF51F0F60EE3CF52F0060E17
:100468005124D96E000E5220DA6E960EDE18D8B4DA
:100478001CD0F70EE3CF51F0F80EE3CF52F0DF0EA9
:100488005124D96E000E5220DA6EF50EE3CF51F0EA
:10049800F60EE3CF52F0070E5124E96E000E5220FB
:1004A800EA6EDE50EE18D8A479D6F50EE3CF51F0F7
:1004B800F60EE3CF52F0040E5124D96E000E5220EE
:1004C800DA6EF70EE3CF51F0F80EE3CF52F0DC0E00
:1004D8005124E96E000E5220EA6EDE50EE1805E156
:1004E800DE50EE18D8A45AD601D058D6FC0EE3CF69
:1004F800E6FFE3CFE6FFF50EE3CF5AF0F60EE3CFC3
:100508005BF00F0E5A24516E000E5B20526E51C0E4
:10051800E6FF52C0E6FFF30EE3CF51F0F40EE3CF4F
:1005280052F0E00E5124D96E000E5220DA6EDECF62
:1005380051F0DDCF52F0F30EE3CF5AF0F40EE3CFD3
:100548005BF0E20E5A24D96E000E5B20DA6EDECF25
:100558005AF0DDCF5BF051505A2652505B225AC0F8
:10056800E6FF5BC0E6FFB5EC1FF0FC0EE3CF51F0F1
:10057800FD0EE3CF52F0F70EE3CF5AF0F80EE3CFBB
:100588005BF0E00E5A24D96E000E5B20DA6E5150F3
:10059800DE265250DD22F50EE3CF51F0F60EE3CF02
:1005A80052F0060E5124D96E000E5220DA6E960EC5
:1005B800DE18D8B40ED0F70EE3CF51F0F80EE3CF23
:1005C80052F0DF0E5124D96E000E5220DA6EDF068B
:1005D8001FD6F70EE3CF51F0F80EE3CF52F0DF0E3F
:1005E8005124D96E000E5220DA6E000EDF6EF50E21
:1005F800E3CF51F0F60EE3CF52F0070E5124D96E37
:10060800000E5220DA6EF70EE3CF51F0F80EE3CF6A
:1006180052F0DE0E5124E96E000E5220EA6EDFCF52
:10062800EFFFF70EE3CF51F0F80EE3CF52F0DE0EF6
:100638005124D96E000E5220DA6E830EDE18D8A42B
:1006480003D0020E506E77D2F70EE3CF51F0F80EBA
:10065800E3CF52F0E00E5124D96E000E5220DA6E2C
:10066800F70EE3CF51F0F80EE3CF52F0D60E512437
:10067800E96E000E5220EA6EEECF51F0EDCF52F047
:10068800F70EE3CF5AF0F80EE3CF5BF051505A5E05
:1006980052505B5ACC0E5A26000E5B22DE505A5C32
:1006A8005B50800A506EDE50800A5058D8A0C3D0E4
:1006B8000A0EE66E000EE66EF50EE3CF5AF0F60E61
:1006C800E3CF5BF0D80E5A24516E000E5B20526EB9
:1006D80051C0E6FF52C0E6FFF30EE3CF51F0F40E2F
:1006E800E3CF52F0D60E5124D96E000E5220DA6EA6
:1006F800DECF51F0DDCF52F051C0E6FF52C0E6FF29
:10070800B5EC1FF0F70EE3CF51F0F80EE3CF52F03F
:10071800E00E5124D96E000E5220DA6EDECF51F071
:10072800DDCF52F051C0E6FF52C0E6FFF50EE3CF31
:1007380051F0F60EE3CF52F0E20E5124D96E000EBE
:100748005220DA6EDECF51F0DDCF52F051C0E6FF15
:1007580052C0E6FFF30EE3CF51F0F40EE3CF52F0B0
:10076800D60E5124D96E000E5220DA6EDECF51F02B
:10077800DDCF52F00A0E5126000E522251C0E6FF7C
:1007880052C0E6FFB5EC1FF0F70EE3CF51F0F80EBC
:10079800E3CF52F0E00E5124D96E000E5220DA6EEB
:1007A800DECF51F0DDCF52F00A0E5126000E522254
:1007B800F70EE3CF5AF0F80EE3CF5BF0D60E5A24CB
:1007C800D96E000E5B20DA6E5150DE265250DD22C3
:1007D800F70EE3CF51F0F80EE3CF52F0E00E5124BC
:1007E800D96E000E5220DA6EDF505B6E0A0E5B2661
:1007F800030E5B16F90E5BC0E3FFF90EE350D8B4A5
:1008080007D5040E516E000E526EF90EE350515E7C
:10081800000E525AF70EE3CF5AF0F80EE3CF5BF012
:10082800D60E5A24D96E000E5B20DA6E5150DE26A1
:100838005250DD22EDD4F70EE3CF51F0F80EE3CF9E
:1008480052F02F0E5124D96E000E5220DA6EDECFF0
:1008580051F0DDCF52F051C0E6FF52C0E6FF50EC38
:100868001EF0F70EE3CF51F0F80EE3CF52F02A0E48
:100878005124D96E000E5220DA6E000EDB808ED421
:10088800F50EE3CF51F0F60EE3CF52F0060E5124E9
:10089800D96E000E5220DA6E830EDE18D8A454D01A
:1008A800080EE66E000EE66EF50EE3CF5AF0F60E71
:1008B800E3CF5BF0070E5A24516E000E5B20526E98
:1008C80051C0E6FF52C0E6FFF30EE350D80F516E59
:1008D800F40EE3CF52F0000E522251C0E6FF52C090
:1008E800E6FFB5EC1FF0F70EE3500F0F516EF80E50
:1008F800E3CF52F0000E5222F70EE3CF5AF0F80E73
:10090800E3CF5BF0E20E5A24D96E000E5B20DA6E5C
:1009180051C0DEFF52C0DDFFE150FC0FD96EE2503E
:10092800DA6EFF0EDA22F70EE3CF51F0F80EE3CFBE
:1009380052F0E00E5124E96E000E5220EA6EDECF2E
:10094800EEFFDDCFEDFF7DD6C40E516EFF0E526E69
:10095800F70EE3CF5AF0F80EE3CF5BF0F70EE3CFD4
:1009680058F0F80EE3CF59F0D60E5824D96E000E81
:100978005920DA6EDECF58F0DDCF59F05A50585E64
:100988005B50595AFC0EE3505826FD0EE35059228D
:10099800515058265250592259BE06D0595003E199
:1009A8009B0E585CD8B0C2D0080EE66E000EE66EFC
:1009B800F50EE3CF5AF0F60EE3CF5BF0070E5A249C
:1009C800516E000E5B20526E51C0E6FF52C0E6FF2A
:1009D800F30EE3CF51F0F40EE3CF52F0D60E5124CC
:1009E800D96E000E5220DA6EDECF51F0DDCF52F014
:1009F80051C0E6FF52C0E6FFB5EC1FF0020EE66EEE
:100A0800000EE66EFA0EE124E66EFF0EE220E66EB8
:100A1800F30EE3CF51F0F40EE3CF52F0D60E51248B
:100A2800D96E000E5220DA6EDECF51F0DDCF52F0D3
:100A3800080E5126000E522251C0E6FF52C0E6FFB2
:100A4800B5EC1FF0FC0EE3CFE6FFE3CFE6FFF50EB3
:100A5800E3CF5AF0F60EE3CF5BF00F0E5A24516E37
:100A6800000E5B20526E51C0E6FF52C0E6FFF30E47
:100A7800E3CF51F0F40EE3CF52F0D60E5124D96EE5
:100A8800000E5220DA6EDECF51F0DDCF52F00A0EA2
:100A98005126000E522251C0E6FF52C0E6FFB5ECC7
:100AA8001FF0FC0EE3500A0F516EFD0EE3CF52F01B
:100AB800000E5222F70EE3CF5AF0F80EE3CF5BF0A8
:100AC800D60E5A24D96E000E5B20DA6E5150DE26FF
:100AD8005250DD220A0E5B6EFC0EE3505B245A6E08
:100AE800030E5A16FA0E5AC0E3FFFA0EE350D8B4B2
:100AF80019D0040E516E000E526EFA0EE350515E7C
:100B0800000E525AF70EE3CF5AF0F80EE3CF5BF01F
:100B1800D60E5A24D96E000E5B20DA6E5150DE26AE
:100B28005250DD22FE0EE36AE32A02D0FE0EE36A8B
:100B3800FE0EE3CF50F0F50EE126FF0EE222120082
:100B4800050EE126000EE222FE0EE36AF90EE3CF5F
:100B580051F0FA0EE3CF52F02A0E5124D96E000E4E
:100B68005220DA6EDFB28ED3F90EE3CF51F0FA0ECF
:100B7800E3CF52F02A0E5124D96E000E5220DA6EBD
:100B8800DFB02AD0E60E516EFF0E526EF90EE3CF9B
:100B98005AF0FA0EE3CF5BF0F90EE3CF58F0FA0EF5
:100BA800E3CF59F0D60E5824D96E000E5920DA6ECC
:100BB800DECF58F0DDCF59F05A50585E5B50595A85
:100BC800515058265250592259BE5CD3595004E10D
:100BD8009B0E585CD8A056D3F90EE3CFE6FFE3CFBF
:100BE800E6FF0BEC27F05050D8A40FD0F90EE3CF56
:100BF80051F0FA0EE3CF52F02A0E5124D96E000EAE
:100C08005220DA6EFE0EDF163DD3000E37D2F90EF3
:100C1800E3CF51F0FA0EE3CF52F02F0E5124D96EE4
:100C2800000E5220DA6EDECF51F0DDCF52F051C007
:100C3800E6FF52C0E6FF67EC24F0F90EE3CF51F06F
:100C4800FA0EE3CF52F0340E5124D96E000E522022
:100C5800DA6E50C0DFFF080EDF6007D00A0EE66EBE
:100C6800000EE66ED8EC20F00DD3F90EE3CF51F06C
:100C7800FA0EE3CF52F0340E5124D96E000E5220F2
:100C8800DA6EDF50E66EF80EE350070F516EF90E7C
:100C9800E3CF52F0000E522251C0E6FF52C0E6FFE9
:100CA800F60EE3CF51F0F70EE3CF52F02F0E51249A
:100CB800D96E000E5220DA6EDECF51F0DDCF52F041
:100CC80051C0E6FF52C0E6FF4CEC27F0F90EE350A6
:100CD800070F516EFA0EE3CF52F0000E5222FD0EAE
:100CE80052C0E3FFFC0E51C0E3FFFC0EE3CF51F00E
:100CF800FD0EE3CF52F0020E5124D96E000E5220A1
:100D0800DA6EDECF51F0DDCF52F051C0E6FF52C0AF
:100D1800E6FFF70EE3CFE6FFE3CFE6FFF8EC23F0BC
:100D28005050D8B4AFD2FC0EE3CF51F0FD0EE3CF54
:100D380052F0060E5124D96E000E5220DA6EDF50A2
:100D48005B6EFE0E5BC0E3FFF90EE3CF51F0FA0EC7
:100D5800E3CF52F0320E5124D96E000E5220DA6ED3
:100D6800FC0EE3CF51F0FD0EE3CF52F0020E5124FA
:100D7800E96E000E5220EA6EDE50EE1803E1DE50F6
:100D8800EE18D8A47DD1FC0EE3CF51F0FD0EE3CFD1
:100D980052F0060E5124D96E000E5220DA6E820EE1
:100DA800DE18D8B46FD2FC0EE3CF51F0FD0EE3CFBE
:100DB80052F0060E5124D96E000E5220DA6E800EC3
:100DC800DE18D8A464D0F90EE3CF51F0FA0EE3CFC1
:100DD80052F0320E5124D96E000E5220DA6E240ED3
:100DE800DE1804E1090EDE18D8B451D0FC0EE3CFAA
:100DF80051F0FD0EE3CF52F0020E5124D96E000ED1
:100E08005220DA6E240EDE6E090EDD6E020EE66EDC
:100E1800FB0EE3CF51F0FC0EE3CF52F0020E51244B
:100E2800D96E000E5220DA6EDECF51F0DDCF52F0CF
:100E380051C0E6FF52C0E6FFF60EE3CFE6FFE3CF70
:100E4800E6FF6BEC0CF00A0EE66E000EE66ED8ECD0
:100E580020F0020EE66EFB0EE3CF51F0FC0EE3CF5E
:100E680052F0020E5124D96E000E5220DA6EDECFF7
:100E780051F0DDCF52F051C0E6FF52C0E6FFF60E4A
:100E8800E3CFE6FFE3CFE6FF6BEC0CF0FBD1FC0E03
:100E9800E3CF51F0FD0EE3CF52F0060E5124D96E88
:100EA800000E5220DA6EC30EDE18D8A454D0F90E04
:100EB800E3CF51F0FA0EE3CF52F0320E5124D96E3F
:100EC800000E5220DA6EDE50DE10D8B444D0F90E8F
:100ED800E3CF51F0FA0EE3CF52F0320E5124D96E1F
:100EE800000E5220DA6EFC0EE3CFE9FFFD0EE3CFD1
:100EF800EAFFDECFEEFFDDCFEDFFFC0EE3CF51F0D2
:100F0800FD0EE3CF52F0020E5124D96E000E52208E
:100F1800DA6E000EDE6E000EDD6E000EE66EFB0E63
:100F2800E3CF51F0FC0EE3CF52F0020E5124D96EFC
:100F3800000E5220DA6EDECF51F0DDCF52F051C0F4
:100F4800E6FF52C0E6FFF60EE3CFE6FFE3CFE6FF8B
:100F58006BEC0CF097D1F90EE3CF51F0FA0EE3CF1A
:100F680052F0290E5124D96E000E5220DA6EDF504D
:100F7800D8B40FD0FC0EE3CF51F0FD0EE3CF52F002
:100F8800060E5124D96E000E5220DA6E800EDF60F4
:100F980010D0FC0EE3CF51F0FD0EE3CF52F0060E59
:100FA8005124D96E000E5220DA6EC10EDE18D8A474
:100FB80054D0FC0EE3CF51F0FD0EE3CF52F0060EF5
:100FC8005124D96E000E5220DA6E940EDE18D8B471
:100FD80044D0FC0EE3CF51F0FD0EE3CF52F0060EE5
:100FE8005124D96E000E5220DA6E950EDE18D8B450
:100FF80034D0FC0EE3CF51F0FD0EE3CF52F0060ED5
:101008005124D96E000E5220DA6EC80EDE18D8B4FC
:1010180024D0FC0EE3CF51F0FD0EE3CF52F0060EC4
:101028005124D96E000E5220DA6E830EDE18D8B421
:1010380014D0FC0EE3CF51F0FD0EE3CF52F0060EB4
:101048005124D96E000E5220DA6E960EDE18D8B4EE
:1010580004D0FE0EE3CF50F04ED1FC0EE3CFE6FFF6
:10106800E3CFE6FFF70EE3CFE6FFE3CFE6FF0EECB4
:1010780000F0020E5018D8A405D1830E506E3BD153
:10108800FC0EE3CF51F0FD0EE3CF52F0020E5124D7
:10109800D96E000E5220DA6E400EDE18DE10D8A48B
:1010A800D4D0FC0EE3CF51F0FD0EE3CF52F0060E84
:1010B8005124D96E000E5220DA6EC20EDE18D8A462
:1010C8007DD0F90EE3CF51F0FA0EE3CF52F02A0E9D
:1010D8005124D96E000E5220DA6EDFB6D3D0F90E45
:1010E800E3CF51F0FA0EE3CF52F0320E5124D96E0D
:1010F800000E5220DA6E240EDE1804E1090EDE1806
:10110800D8B4C0D0FC0EE3CFD9FFFD0EE3CFDAFF91
:10111800FC0EE3CF51F0FD0EE3CF52F0020E512446
:10112800E96E000E5220EA6EDECFEEFFDDCFEDFF56
:10113800F90EE3CF51F0FA0EE3CF52F0320E5124FC
:10114800D96E000E5220DA6EFC0EE3CFE9FFFD0ED9
:10115800E3CFEAFFDECFEEFFDDCFEDFFF90EE3CF01
:1011680051F0FA0EE3CF52F0390E5124D96E000E29
:101178005220DA6EDF50E66E000EE66ED8EC20F0F4
:10118800020EE66EFB0EE3CF51F0FC0EE3CF52F0F9
:10119800020E5124D96E000E5220DA6EDECF51F0C5
:1011A800DDCF52F051C0E6FF52C0E6FFF60EE3CFA6
:1011B800E6FFE3CFE6FF6BEC0CF064D0FC0EE3CF68
:1011C800E6FFE3CFE6FFF70EE3CFE6FFE3CFE6FF68
:1011D8000EEC00F0FB0E50C0E3FFF90EE3CFD9FF91
:1011E800FA0EE3CFDAFFDF50D8B42BD0040EE66E48
:1011F800F80EE3CF51F0F90EE3CF52F0310E51243F
:10120800D96E000E5220DA6EDF50E66EF70EE3CF8D
:10121800E6FFE3CFE6FFA8EC25F0D890503651362C
:10122800D89050365136D8905036513650C0E6FFD7
:1012380051C0E6FFF60EE3CFE6FFE3CFE6FF6BEC27
:101248000CF0FB0EE3CF50F014D7010EE66EFB0E48
:10125800E3CF51F0FC0EE3CF52F0020E5124D96EC9
:10126800000E5220DA6EDECF51F0DDCF52F051C0C1
:10127800E6FF52C0E6FFF60EE3CFE6FFE3CFE6FF58
:101288006BEC0CF0F90EE3CF51F0FA0EE3CF52F00D
:101298002F0E5124D96E000E5220DA6EDECF51F097
:1012A800DDCF52F051C0E6FF52C0E6FF78EC26F0E1
:1012B8005050D8B4CED6FF0EE124E66EFF0EE220E1
:1012C800E66EF70EE3CF51F0F80EE3CF52F02F0E93
:1012D8005124D96E000E5220DA6EDECF51F0DDCFE8
:1012E80052F051C0E6FF52C0E6FF40EC25F05050E6
:1012F800D8B4AFD68CD4F90EE126FF0EE222120044
:10130800090EE126000EE2220BD0F50EE3CFE6FF30
:10131800E3CFE6FFA4EC05F07F0E506401D02CD09B
:10132800F50EE3CF51F0F60EE3CF52F02B0E512419
:10133800D96E000E5220DA6EDECF58F0DECF59F0AB
:10134800DECF5AF0DECF5BF04AEC28F05850505C04
:10135800546E59505158556E5A505258566E5B50EB
:101368005358576E57BED1D757505610551004E1F1
:10137800190E545CD8A0C9D7C80EE66E7BEC22F0D3
:10138800F50EE3CF51F0F60EE3CF52F0350E5124AF
:10139800D96E000E5220DA6EEF0EE350DE5CF00ECE
:1013A800E350DE58D8A049D0F50EE3CF51F0F60E41
:1013B800E3CF52F0340E5124D96E000E5220DA6E6B
:1013C800EF0EE350080FDF6EED0EE3CFE6FFE3CF3D
:1013D800E6FFED0EE3CFE6FFE3CFE6FFED0EE3CF4A
:1013E800E6FFE3CFE6FFED0EE3CFE6FFE3CFE6FF50
:1013F800ED0EE3CFE6FFE3CFE6FFBAEC18F050506E
:10140800D8B402D0010E17D04AEC28F0F50EE3CF7D
:101418005AF0F60EE3CF5BF02B0E5A24D96E000E6D
:101428005B20DA6E50C0DEFF51C0DEFF52C0DEFF27
:1014380053C0DEFF000E506E45D2F00EE350FAE1C5
:10144800EF0EE3CF50F0910E505ED8B0F3D7F50E03
:10145800E3CF51F0F60EE3CF52F0350E5124D96E9A
:10146800000E5220DA6EDECF51F0DDCF52F051C0BF
:10147800E6FF52C0E6FFED0EE3CFE6FFE3CFE6FF5F
:1014880040EC1FF050C058F051C059F0F50EE3CFB2
:1014980051F0F60EE3CF52F0350E5124D96E000EFE
:1014A8005220DA6EDECF51F0DDCF52F051C0E6FFA8
:1014B80052C0E6FFED0EE3CFE6FFE3CFE6FF7AEC9E
:1014C80020F050505110D8B402D0010E01D0000EB7
:1014D80058245B6EFB0E5BC0E3FFFD0EE36AF30E60
:1014E800E3CF51F0F40EE3CF52F0020E5124D96E3F
:1014F800000E5220DA6E400EDE18DE10D8B424D06A
:10150800F50EE3CF51F0F60EE3CF52F02A0E512438
:10151800D96E000E5220DA6E000EDB84F50EE3CF92
:1015280051F0F60EE3CF52F02F0E5124D96E000E73
:101538005220DA6EDECF51F0DDCF52F051C0E6FF17
:1015480052C0E6FF50EC1EF0FF0EE36AF30EE3CF45
:1015580051F0F40EE3CF52F0060E5124D96E000E6E
:101568005220DA6EDF505B6EFE0E5BC0E3FFFC0EAE
:10157800E36A0FD1F30EE3CF51F0F40EE3CF52F04C
:10158800070E5124D96E000E5220DA6EFB0EE3CFFF
:10159800DFFFFB0EE304D8A41ED0F30EE3CF51F017
:1015A800F40EE3CF52F0060E5124D96E000E5220ED
:1015B800DA6E960EDF6EF30EE3CF51F0F40EE3CF42
:1015C80052F0070E5124D96E000E5220DA6EFE0E2C
:1015D800E3CFDFFF20D0FD0EE350D8A40ED0F30EEA
:1015E800E3CF51F0F40EE3CF52F0060E5124D96E3A
:1015F800000E5220DA6E940E0DD0F30EE3CF51F0A8
:10160800F40EE3CF52F0060E5124D96E000E52208C
:10161800DA6E950EDF6EF50EE3CF51F0F60EE3CFDE
:1016280052F0350E5124D96E000E5220DA6EDECFFC
:1016380051F0DDCF52F051C0E6FF52C0E6FFFB0E7D
:10164800E350E66E000EE66E30EC22F0F70E50C066
:10165800E3FFF80E51C0E3FFF50EE3CF51F0F60EAD
:10166800E3CF52F0350E5124D96E000E5220DA6EB7
:10167800EF0EE3CF51F0F00EE3CF52F0F70EE35048
:10168800515EF80EE350525ADE50515CDE5052580B
:10169800D8A011D0F50EE3CF51F0F60EE3CF52F0FB
:1016A800350E5124D96E000E5220DA6EDECF51F07D
:1016B800DDCF52F00CD0EF0EE3CF51F0F00EE3CFB8
:1016C80052F0F70EE350515EF80EE350525AF90EFD
:1016D80051C0E3FFFA0E52C0E3FFF50EE3CF51F01D
:1016E800F60EE3CF52F0340E5124D96E000E52207C
:1016F800DA6EF90EE350080FDF6EED0EE3CFE6FF6A
:10170800E3CFE6FFF70EE3CFE6FFE3CFE6FFF30E06
:10171800E3CF5AF0F40EE3CF5BF0ED0EE3CF58F0D1
:10172800EE0EE3CF59F05A505824516E5B505920B1
:10173800526E51C0E6FF52C0E6FFED0EE3CFE6FF62
:10174800E3CFE6FFED0EE3CFE6FFE3CFE6FFBAEC2B
:1017580018F0FC0E50C0E3FFFC0EE350D8A408D0EC
:10176800020EE66E000EE66ED8EC20F0FF0E05D0F5
:10177800FF0EE36AFB0EE306FD0EE32AFC0EE350C0
:10178800D8A407D0FF0EE3CF50F0020E506401D06A
:1017980004D0FB0EE350D8A4EDD6F30EE3CF51F0FE
:1017A800F40EE3CF52F0060E5124D96E000E5220EB
:1017B800DA6EFE0EE3CFDFFFF50EE3CF51F0F60E43
:1017C800E3CF52F02A0E5124D96E000E5220DA6E61
:1017D800DFA45FD0000EE66EF40EE3CF51F0F50EF5
:1017E800E3CF52F0010E5124D96E000E5220DA6E6A
:1017F800DECFE6FFDECFE6FFDECFE6FFDECFE6FF99
:10180800F00EE3CF51F0F10EE3CF52F02F0E51243A
:10181800D96E000E5220DA6EDECF51F0DDCF52F0D5
:1018280051C0E6FF52C0E6FF2EEC1CF0FC0E50C083
:10183800E3FFF50EE3CF51F0F60EE3CF52F02F0E93
:101848005124D96E000E5220DA6EDECF51F0DDCF72
:1018580052F051C0E6FF52C0E6FFC8EC1CF0000E83
:10186800E66E000EE66EF30EE3CF51F0F40EE3CF12
:1018780052F02F0E5124D96E000E5220DA6EDECFB0
:1018880051F0DDCF52F051C0E6FF52C0E6FFDCEC6C
:1018980021F0F50EE3CF51F0F60EE3CF52F02A0E09
:1018A8005124D96E000E5220DA6EFB0EDF16FC0EA4
:1018B800E350D8B4BFD5FB0EE350D8B4A3D54AEC57
:1018C80028F0A4D5ED0EE126FF0EE22212000C0E40
:1018D800E126000EE222FF0EE36AF20EE3CF51F09A
:1018E800F30EE3CF52F00D0E5124D96E000E5220A4
:1018F800DA6E400EDF6412D0F20EE3CF51F0F30E31
:10190800E3CF52F00D0E5124D96E000E5220DA6E3C
:10191800C00EDF6003D0FF0EE36AE32AF00EE3CFC8
:10192800E6FFE3CFE6FFF00EE3CFE6FFE3CFE6FF07
:10193800F8EC23F05050D8A403D0000E506EF8D124
:10194800F00EE3CF50F0FA0E50C0E3FFF10EE3CFF4
:1019580050F0FB0E50C0E3FFFC0EE124D96EFF0EE1
:10196800E220DA6EEF0EE3CFDFFFFD0EE124D96E41
:10197800FF0EE220DA6E000EDF6EFA0EE124E66E4C
:10198800FF0EE220E66EF00EE3CFE6FFE3CFE6FFC0
:1019980030EC16F0FD0EE124D96EFF0EE220DA6E6F
:1019A800DF50E66EFB0EE124D96EFF0EE220DA6E00
:1019B800DF50E66EF80EE3CFE6FFE3CFE6FFEE0E6C
:1019C800E3CFE6FFE3CFE6FFDAEC12F0FE0E50C0FD
:1019D800E3FFEF0EE304D8A49ED0FE0EE350D8B484
:1019E8009AD0E150FA0FD96EE250DA6EFF0EDA2281
:1019F800F00EE350DE1804E1F10EE350DE18D8A42F
:101A08008AD0FF0EE350D8B486D0F20EE350070F09
:101A1800516EF30EE3CF52F0000E5222F90E52C06F
:101A2800E3FFF80E51C0E3FFF80EE3CF51F0F90ED3
:101A3800E3CF52F0060E5124D96E000E5220DA6E12
:101A4800C10EDF6EF80EE3CFD9FFF90EE3CFDAFF50
:101A5800F80EE3CF51F0F90EE3CF52F0020E512405
:101A6800E96E000E5220EA6EDECFEEFFDDCFEDFF0D
:101A7800F80EE3CFE9FFF90EE3CFEAFFFA0EEECF57
:101A8800E3FFFB0EEDCFE3FFFC0EE124D96EFF0E62
:101A9800E220DA6E010EDF6EFD0EE124D96EFF0E34
:101AA800E220DA6E000EDF6EFA0EE124E66EFF0E1B
:101AB800E220E66EF00EE3CFE6FFE3CFE6FF30EC80
:101AC80016F0F20EE3CF51F0F30EE3CF52F0340EDE
:101AD8005124D96E000E5220DA6E080EDF6EFD0E0C
:101AE800E124D96EFF0EE220DA6EDF50E66EFB0EBF
:101AF800E124D96EFF0EE220DA6EDF50E66EF80EB2
:101B0800E3CFE6FFE3CFE6FFEE0EE3CFE6FFE3CF5A
:101B1800E6FFDAEC12F0FE0EE350D8B4E2D0E15062
:101B2800FA0FD96EE250DA6EFF0EDA22F00EE350A9
:101B3800DE1805E1F10EE350DE18D8B4D2D0EF0E6E
:101B4800E350D8B407D0EF0EE3CF50F0030E50188F
:101B5800D8A4C7D0FF0EE350D8B4C3D0F20EE3CF59
:101B680051F0F30EE3CF52F02A0E5124D96E000E35
:101B78005220DA6EDFA454D0000EE66EF10EE3CFE9
:101B880051F0F20EE3CF52F0010E5124D96E000E3F
:101B98005220DA6EDECFE6FFDECFE6FFDECFE6FFCD
:101BA800DECFE6FFED0EE3CF51F0EE0EE3CF52F0BD
:101BB8002F0E5124D96E000E5220DA6EDECF51F06E
:101BC800DDCF52F051C0E6FF52C0E6FF2EEC1CF00C
:101BD800F20EE3CF51F0F30EE3CF52F02A0E512468
:101BE800D96E000E5220DA6EFB0EDF16000EE66E7E
:101BF800000EE66EF00EE3CF51F0F10EE3CF52F097
:101C08002F0E5124D96E000E5220DA6EDECF51F01D
:101C1800DDCF52F051C0E6FF52C0E6FFDCEC21F008
:101C2800F20EE3CF51F0F30EE3CF52F02F0E512412
:101C3800D96E000E5220DA6EDECF51F0DDCF52F0B1
:101C480051C0E6FF52C0E6FFC8EC1CF04AEC28F091
:101C5800F40E50C0E3FFF50E51C0E3FFF60E52C07C
:101C6800E3FFF70E53C0E3FF31D04AEC28F0F40E3F
:101C7800E350505EF50EE350515AF60EE350525AB7
:101C8800F70EE350535AF20EE3CF5AF0F30EE3CFB8
:101C98005BF0050E5A24D96E000E5B20DA6EDECF9B
:101CA8005AF0DDCF5BF05A50546E5B50556E566A51
:101CB800576A5050545C51505558525056585350CA
:101CC8005758D8B003D0FE0EE36A0BD0F20EE3CF1C
:101CD800E6FFE3CFE6FFA4EC05F0C10E5018D8A448
:101CE800C4D7F20EE3CF51F0F30EE3CF52F02A0E31
:101CF8005124D96E000E5220DA6EDFB416D0F20EDF
:101D0800E3CF51F0F30EE3CF52F02F0E5124D96EEA
:101D1800000E5220DA6EDECF51F0DDCF52F051C006
:101D2800E6FF52C0E6FFC8EC1CF0FE0EE3CF50F011
:101D3800EF0EE126FF0EE2221200FCD0FE0EE3B009
:101D480002D0969601D0968663D1FE0EE3B002D0FB
:101D5800929001D092805CD1FE0EE3B002D09292B4
:101D680001D0928255D1FE0EE3B002D0929401D0F8
:101D780092844ED1FE0EE3B002D0929601D09286A4
:101D880047D1FE0EE3B002D0929801D0928840D19C
:101D9800FE0EE3B002D0929A01D0928A39D1FE0E9B
:101DA800E3B002D0969001D0968032D1FE0EE3B017
:101DB80002D0969201D096822BD1FE0EE3B002D0CB
:101DC800969401D0968424D1FE0EE3B002D0929E60
:101DD80001D0928E1DD1FE0EE3B002D0929C01D0AC
:101DE800928C16D1FE0EE3B002D0949001D094806C
:101DF8000FD1FE0EE3B002D0949201D0948208D1A4
:101E0800FE0EE3B002D0949401D0948401D1FE0E6A
:101E1800E3B002D0949601D09486FAD0FE0EE3B0D7
:101E280002D0959001D09580F3D0FE0EE3B002D099
:101E3800959201D09582ECD0FE0EE3B002D0959435
:101E480001D09584E5D0FE0EE3B002D0959601D07E
:101E58009586DED0FE0EE3B002D0949801D0948827
:101E6800D7D0FE0EE3B002D0949A01D0948AD0D095
:101E7800FE0EE3B002D0949C01D0948CC9D0FE0E23
:101E8800E3B002D0949E01D0948EC2D0FE0EE3B08F
:101E980002D0959801D09588BBD0FE0EE3B002D051
:101EA800959A01D0958AB4D0FE0EE3B002D0959CE5
:101EB80001D0958CADD0FE0EE3B002D0959E01D036
:101EC800958EA6D0FE0EE3B002D0939001D09380F9
:101ED8009FD0FE0EE3B002D0939201D0938298D0A7
:101EE800FE0EE3B002D0939401D0938491D0FE0EFD
:101EF800E3B002D0939601D093868AD0FE0EE3B069
:101F080002D0939801D0938883D0FE0EE3B002D01C
:101F1800939A01D0938A7CD0FE0EE3B002D0939CB2
:101F280001D0938C75D0FE0EE3B002D0939E01D001
:101F3800938E6ED0FF0EE350010AD8B4FFD6030A81
:101F4800D8B403D7010AD8B407D7070AD8B40BD72F
:101F5800010AD8B40FD7030AD8B413D7010AD8B4E2
:101F680017D70F0AD8B41BD7010AD8B41FD7030A4A
:101F7800D8B423D7070AD8B427D7030AD8B42BD79D
:101F8800010AD8B42FD71F0AD8B433D7010AD8B456
:101F980037D7030AD8B43BD7010AD8B43FD7070AC2
:101FA800D8B443D7010AD8B447D7030AD8B44BD713
:101FB800010AD8B44FD70F0AD8B453D7010AD8B4F6
:101FC80057D7030AD8B45BD7010AD8B45FD7070A32
:101FD800D8B463D7010AD8B467D7030AD8B46BD783
:101FE8003F0AD8B46FD7030AD8B473D7010AD8B454
:101FF80077D7070AD8B47BD7010AD8B47FD7030AA2
:10200800D8B483D7010AD8B487D70F0AD8B48BD7E6
:10201800E552E5521200E652E652F90EE3CFE6FF2A
:10202800E3CFE6FFFA0EE3CFE6FFE3CFE6FFF8ECF7
:1020380023F05050D8B451D1E150F90FD96EE25085
:10204800DA6EFF0EDA22FC0EE3CF51F0FD0EE3CF7D
:1020580052F0320E5124E96E000E5220EA6EDECFA5
:10206800EEFFDDCFEDFFFC0EE3CF51F0FD0EE3CF29
:1020780052F02F0E5124D96E000E5220DA6EDECFA8
:1020880051F0DDCF52F051C0E6FF52C0E6FF78ECC8
:1020980026F05050D8B421D1FB0EE328D8B419D07B
:1020A800FB0EE350E66EFB0EE3CF51F0FC0EE3CFE0
:1020B80052F02F0E5124D96E000E5220DA6EDECF68
:1020C80051F0DDCF52F051C0E6FF52C0E6FFDBEC25
:1020D80025F0000EE66E000EE66EFA0EE3CF51F024
:1020E800FB0EE3CF52F02F0E5124D96E000E522072
:1020F800DA6EDECF51F0DDCF52F051C0E6FF52C0AC
:10210800E6FFDCEC21F0FC0EE3CF51F0FD0EE3CF4F
:1021180052F02F0E5124D96E000E5220DA6EDECF07
:1021280051F0DDCF52F051C0E6FF52C0E6FF4AEC55
:1021380023F0060EE66E000EE66EFA0EE3CF51F0BF
:10214800FB0EE3CF52F0320E5124D96E000E52200E
:10215800DA6EDECF51F0DDCF52F051C0E6FF52C04B
:10216800E6FF7AEC20F05050020DF3CF5BF0050E3D
:102178005B26FF0E5BC0E3FF050EE66EFE0EE35026
:10218800E66EFA0EE3CF51F0FB0EE3CF52F02F0EBE
:102198005124D96E000E5220DA6EDECF51F0DDCF19
:1021A80052F051C0E6FF52C0E6FF8AEC27F0FC0E61
:1021B800E3CF51F0FD0EE3CF52F0010E5124D96E5A
:1021C800000E5220DA6E190EDE6E000EDE6E000E64
:1021D800DE6E000EDD6E030EE66E000EE66EFA0E83
:1021E800E3CF51F0FB0EE3CF52F0010E5124D96E2C
:1021F800000E5220DA6EDECF51F0DDCF52F051C022
:10220800E6FF52C0E6FF30EC22F0FC0EE3CF5AF0B6
:10221800FD0EE3CF5BF0050E5A24D96E000E5B204D
:10222800DA6E50C0DEFF51C0DDFFFC0EE3CFE6FFE3
:10223800E3CFE6FF0DEC14F0FE0EE36AE382E384DD
:1022480030D0FE0EE350E66EF80EE3CFE6FFE3CFA4
:10225800E6FFF90EE3CFE6FFE3CFE6FFF8EC17F071
:1022680050C0E6FF51C0E6FF52C0E6FF53C0E6FF8C
:10227800FA0EE350E66EF70EE3CF51F0F80EE3CF17
:1022880052F02F0E5124D96E000E5220DA6EDECF96
:1022980051F0DDCF52F051C0E6FF52C0E6FF21EC0D
:1022A80017F0FE0EE306FE0EE328D8A4CAD7FC0EEC
:1022B800E3CF51F0FD0EE3CF52F02F0E5124D96E2B
:1022C800000E5220DA6EDECF51F0DDCF52F051C051
:1022D800E6FF52C0E6FFC8EC1CF0F90EE126FF0E3F
:1022E800E2221200F5D0FE0EE3B002D0899001D0B0
:1022F800898059D1FE0EE3B002D0899201D089823B
:1023080052D1FE0EE3B002D0899401D089844BD11A
:10231800FE0EE3B002D0899601D0898644D1FE0E24
:10232800E3B002D0899801D089883DD1FE0EE3B090
:1023380002D0899A01D0898A36D1FE0EE3B002D044
:102348008D9001D08D802FD1FE0EE3B002D08D92FA
:1023580001D08D8228D1FE0EE3B002D08D9401D039
:102368008D8421D1FE0EE3B002D0899E01D0898EE2
:102378001AD1FE0EE3B002D0899C01D0898C13D10A
:10238800FE0EE3B002D08B9001D08B800CD1FE0EF4
:10239800E3B002D08B9201D08B8205D1FE0EE3B060
:1023A80002D08B9401D08B84FED0FE0EE3B002D015
:1023B8008B9601D08B86F7D0FE0EE3B002D08C90BE
:1023C80001D08C80F0D0FE0EE3B002D08C9201D008
:1023D8008C82E9D0FE0EE3B002D08C9401D08C84BC
:1023E800E2D0FE0EE3B002D08C9601D08C86DBD012
:1023F800FE0EE3B002D08B9801D08B88D4D0FE0EAD
:10240800E3B002D08B9A01D08B8ACDD0FE0EE3B018
:1024180002D08B9C01D08B8CC6D0FE0EE3B002D0CC
:102428008B9E01D08B8EBFD0FE0EE3B002D08C986D
:1024380001D08C88B8D0FE0EE3B002D08C9A01D0BF
:102448008C8AB1D0FE0EE3B002D08C9C01D08C8C6B
:10245800AAD0FE0EE3B002D08C9E01D08C8EA3D001
:10246800FE0EE3B002D08A9001D08A809CD0FE0E86
:10247800E3B002D08A9201D08A8295D0FE0EE3B0F2
:1024880002D08A9401D08A848ED0FE0EE3B002D0A6
:102498008A9601D08A8687D0FE0EE3B002D08A9849
:1024A80001D08A8880D0FE0EE3B002D08A9A01D08B
:1024B8008A8A79D0FE0EE3B002D08A9C01D08A8C39
:1024C80072D0FE0EE3B002D08A9E01D08A8E6BD005
:1024D800FF0EE350020AD8B406D7010AD8B40AD7C7
:1024E800070AD8B40ED7010AD8B412D7030AD8B449
:1024F80016D7010AD8B41AD70F0AD8B41ED7010ABA
:10250800D8B422D7030AD8B426D7070AD8B42AD70A
:10251800030AD8B42ED7010AD8B432D71F0AD8B4C0
:1025280036D7010AD8B43AD7030AD8B43ED7010A35
:10253800D8B442D7070AD8B446D7010AD8B44AD77C
:10254800030AD8B44ED7010AD8B452D70F0AD8B460
:1025580056D7010AD8B45AD7030AD8B45ED7010AA5
:10256800D8B462D7070AD8B466D7010AD8B46AD7EC
:10257800030AD8B46ED73F0AD8B472D7030AD8B4BE
:1025880076D7010AD8B47AD7070AD8B47ED7010A11
:10259800D8B482D7030AD8B486D7010AD8B48AD760
:1025A8000F0AD8B48ED7E552E5521200050EE1267F
:1025B800000EE222F60EE350E66EF60EE3CFE6FFDB
:1025C800E3CFE6FFF60EE3CFE6FFE3CFE6FFF8EC56
:1025D80017F0FB0E50C0E3FFFC0E51C0E3FFFD0EE9
:1025E80052C0E3FFFE0E53C0E3FFF90EE3CF51F0F4
:1025F800FA0EE3CF52F02A0E5124D96E000E522063
:10260800DA6EDFB416D0F90EE3CF51F0FA0EE3CF4D
:1026180052F02F0E5124D96E000E5220DA6EDECF02
:1026280051F0DDCF52F051C0E6FF52C0E6FF50EC4A
:102638001EF0F50EE350D8B41BD0000EE66E000E67
:10264800E66EF70EE3CF51F0F80EE3CF52F02F0EFF
:102658005124D96E000E5220DA6EDECF51F0DDCF54
:1026680052F051C0E6FF52C0E6FFDCEC21F01AD070
:10267800010EE66E000EE66EF70EE3CF51F0F80E8F
:10268800E3CF52F02F0E5124D96E000E5220DA6E8D
:10269800DECF51F0DDCF52F051C0E6FF52C0E6FF69
:1026A800DCEC21F0FB0EE3CFE6FFE3CFE6FFE3CF60
:1026B800E6FFE3CFE6FFF50EE3CF51F0F60EE3CFEA
:1026C80052F02F0E5124D96E000E5220DA6EDECF52
:1026D80051F0DDCF52F051C0E6FF52C0E6FF86EC64
:1026E80021F0000EE66EF80EE3CF51F0F90EE3CFBD
:1026F80052F0340E5124D96E000E5220DA6EDF509B
:10270800E66EF70EE3CF5AF0F80EE3CF5BF0070E54
:102718005A24516E000E5B20526E51C0E6FF52C023
:10272800E6FFF50EE3CF51F0F60EE3CF52F02F0E91
:102738005124D96E000E5220DA6EDECF51F0DDCF73
:1027480052F051C0E6FF52C0E6FF85EC23F0FF0EC1
:1027580050C0E3FFF90EE3CF51F0FA0EE3CF52F089
:102768002A0E5124D96E000E5220DA6EDFB449D0F9
:10277800000EE66EF80EE3CF51F0F90EE3CF52F0FB
:10278800010E5124D96E000E5220DA6EDECFE6FF1C
:10279800DECFE6FFDECFE6FFDECFE6FFF40EE3CFC7
:1027A80051F0F50EE3CF52F02F0E5124D96E000EE2
:1027B8005220DA6EDECF51F0DDCF52F051C0E6FF85
:1027C80052C0E6FF2EEC1CF0FF0E50C0E3FF000ED7
:1027D800E66E000EE66EF70EE3CF51F0F80EE3CF8B
:1027E80052F02F0E5124D96E000E5220DA6EDECF31
:1027F80051F0DDCF52F051C0E6FF52C0E6FFDCECED
:1028080021F0FF0EE3CF50F0F50EE126FF0EE22295
:102818001200090EE126000EE222FF0E516EFF0E95
:10282800526EF70E51C0E3FFF80E52C0E3FFFF0EE1
:10283800E36A12D0030E5B6EE150F70FD96EE250D7
:10284800DA6EFF0EDA225B2803D0D890DE36DD364A
:10285800E82EFBD7FF0EE32AF70EE3CF51F0F80E70
:10286800E3CF52F0F50EE3CF5AF0F60EE3CF5BF06C
:10287800320E5A24D96E000E5B20DA6EDECF5AF083
:10288800DDCF5BF051505A1652505B165A505B1010
:10289800D8A4D0D7F50EE3CF51F0F60EE3CF52F01F
:1028A800310E5124D96E000E5220DA6EFF0EE3CF9E
:1028B800DFFFF70EE3CF5AF0F80EE3CF5BF05A1CB8
:1028C800516E5B1C526EF50EE3CF5AF0F60EE3CF55
:1028D8005BF03A0E5A24D96E000E5B20DA6E51C0B6
:1028E800DEFF52C0DDFFF50EE3CF51F0F60EE3CF69
:1028F80052F03A0E5124D96E000E5220DA6EDECF15
:1029080051F0DDCF52F0D89052325132D890523235
:102918005132D89052325132F90E51C0E3FFFA0EBB
:1029280052C0E3FFF90EE3CF51F0FA0EE3CF52F0B5
:10293800F50EE3CF5AF0F60EE3CF5BF0320E5A24D1
:10294800D96E000E5B20DA6EDECF5AF0DDCF5BF079
:1029580051505A1652505B16F50EE3CF51F0F60E51
:10296800E3CF52F0370E5124D96E000E5220DA6EA2
:102978005AC0DEFF5BC0DDFFF50EE3CF51F0F60E67
:10298800E3CF52F0320E5124D96E000E5220DA6E87
:10299800DECF51F0DDCF52F0FD0E51C0E3FFFE0E49
:1029A80052C0E3FFF90EE3CF50F0FB0E50C0E3FF37
:1029B800FA0EE3CF50F0FC0E50C0E3FF22D0030E16
:1029C8005B6EE150FD0FD96EE250DA6EFF0EDA222F
:1029D8005B2804D0D92AD890DD32DF32E82EFAD726
:1029E800030E5B6EE150FB0FD96EE250DA6EFF0EFC
:1029F800DA225B2804D0D92AD890DD32DF32E82EDB
:102A0800FAD7FB0EE3CF50F0FC0EE3505010D8A4D9
:102A1800D6D7F50EE3CF51F0F60EE3CF52F0390ECC
:102A28005124D96E000E5220DA6EFD0EE3CFDFFF7F
:102A3800F50EE126FF0EE2221200E652FD0EE3CF6C
:102A480051F0FE0EE3CF52F0010E5124D96E000E64
:102A58005220DA6EFD0EE3CFE9FFFE0EE3CFEAFF68
:102A6800DE50EE18D8B40CD0000EE66EFC0EE3CFA4
:102A7800D9FFFD0EE3CFDAFFDF50E66EA1EC0EF0D2
:102A8800FD0EE3CF51F0FE0EE3CF52F0010E5124BC
:102A9800D96E000E5220DA6EFD0EE3CFE9FFFE0E6E
:102AA800E3CFEAFFDE50EE18D8B412D0000EE66E7F
:102AB800FC0EE3CF51F0FD0EE3CF52F0010E51248E
:102AC800D96E000E5220DA6EDF50E66EA1EC0EF0E1
:102AD800F7EC27F0000EE66EFC0EE3CFE6FFE3CF3F
:102AE800E6FF2AEC26F0010EE66EFC0EE3CFE6FFC9
:102AF800E3CFE6FF03EC26F0050EE66E000EE66E69
:102B0800D8EC20F00C0EE66E000EE66EFB0EE3CF5E
:102B1800E6FFE3CFE6FF9EEC26F00F0EE66E050E0D
:102B2800E66EFB0EE3CFE6FFE3CFE6FF8AEC27F085
:102B3800020EE66EFC0EE3CFE6FFE3CFE6FF4DECB8
:102B48001DF05050D8B40ED0FD0EE3CF51F0FE0E5C
:102B5800E3CF52F0040E5124D96E000E5220DA6EE3
:102B6800010EDF6E060EE66EFC0EE3CFE6FFE3CF46
:102B7800E6FFC4EC26F0FF0E50C0E3FF000EE66E41
:102B8800FC0EE3CFE6FFE3CFE6FF4DEC1DF0FD0EB4
:102B9800E3CFE6FFE3CFE6FFA6EC27F0000EE66EF4
:102BA8001D0EE66EFB0EE3CFE6FFE3CFE6FF9EECDD
:102BB80026F0000EE66E1C0EE66EFB0EE3CFE6FF77
:102BC800E3CFE6FF9EEC26F0700EE66E070EE66E8B
:102BD800FB0EE3CFE6FFE3CFE6FF9EEC26F04C0EBC
:102BE800E66EFC0EE3CFE6FFE3CFE6FFDBEC25F075
:102BF800FD0EE3CFE6FFE3CFE6FF04EC28F0FD0E81
:102C0800E3CFE6FFE3CFE6FF34EC28F0FD0EE3CF99
:102C1800E6FFE3CFE6FF51EC26F0000EE66EFC0E71
:102C2800E3CFE6FFE3CFE6FFC4EC26F05050FE0BFF
:102C3800E66E000EE66EFB0EE3CFE6FFE3CFE6FF9F
:102C48009EEC26F0FF0EE350D8B402D0FF0EE32826
:102C5800E552E552E5521200090EE126000EE22285
:102C6800F30EE3CF51F0F40EE3CF52F0F80E52C05A
:102C7800E3FFF70E51C0E3FFF30EE350020F516E6E
:102C8800F40EE3CF52F0000E5222FA0E52C0E3FFC8
:102C9800F90E51C0E3FFF30EE350030F516EF40E2B
:102CA800E3CF52F0000E5222FE0E52C0E3FFFD0E9B
:102CB80051C0E3FFF50EE3CF51F0F60EE3CF52F02B
:102CC800370E5124D96E000E5220DA6EDECF51F045
:102CD800DDCF52F0FB0E51C0E3FFFC0E52C0E3FF04
:102CE800F50EE3CF51F0F60EE3CF52F0390E512432
:102CF800D96E000E5220DA6EDF505B6EFF0E5BC09D
:102D0800E3FFF90EE3CFD9FFFA0EE3CFDAFF010EA6
:102D1800DF6417D0F70EE3CFE9FFF80EE3CFEAFF41
:102D2800FB0EEECFE3FFFC0EEDCFE3FFFD0EE3CF8E
:102D3800D9FFFE0EE3CFDAFF010EDF6EFF0EE36A66
:102D48005DD0F70EE3CFD9FFF80EE3CFDAFFDECF81
:102D580051F0DDCF52F051C0E6FF52C0E6FFF30E4E
:102D6800E3CFE6FFE3CFE6FF30EC21F05050D8B4D4
:102D780011D0F70EE3CFE9FFF80EE3CFEAFFFB0E21
:102D8800EECFE3FFFC0EEDCFE3FFFF0EE36AE38037
:102D9800E38434D0F70EE3CFD9FFF80EE3CFDAFFA0
:102DA800DECF51F0DDCF52F051C0E6FF52C0E6FF52
:102DB800F30EE3CFE6FFE3CFE6FF9EEC24F050509E
:102DC800D8B41CD0F70EE3CFD9FFF80EE3CFDAFF63
:102DD800DECF51F0DDCF52F051C0E6FF52C0E6FF22
:102DE800F30EE3CFE6FFE3CFE6FFD4EC24F0FB0ECF
:102DF80050C0E3FFFC0E51C0E3FFC7D7E150FB0F03
:102E0800D96EE250DA6EFF0EDA22F70EE3CFE9FF51
:102E1800F80EE3CFEAFFDECFEEFFDDCFEDFFF90ED0
:102E2800E3CFD9FFFA0EE3CFDAFFFF0EE3CFDFFFE0
:102E3800F30EE126FF0EE2221200FD0EE350D8A4A5
:102E480025D0FE0EE3CF51F0FF0EE3CF52F00C0E6B
:102E58005124D96E000E5220DA6EDF50E66E000E55
:102E6800E66EF70EE124E66EFF0EE220E66EFA0E3D
:102E7800E350070F516EFB0EE3CF52F0000E5222C3
:102E880051C0E6FF52C0E6FFB5EC1FF0FD0EE3CFE0
:102E980050F0070E5060A3D0FD0EE3CF50F0020EA5
:102EA80050602CD0FE0EE3CF51F0FF0EE3CF52F06E
:102EB8000C0E5124D96E000E5220DA6EDF50E66EE9
:102EC800F80EE124E66EFF0EE220E66EFA0EE350FD
:102ED800516E526AD10E5124F66EFD0E5220F76ED5
:102EE800F86A000EF8220800F550E66EFA0EE3CFF5
:102EF800E6FFE3CFE6FFC0EC23F01FD0010EE66E3D
:102F0800F80EE124E66EFF0EE220E66EFA0EE350BC
:102F1800516E526AD10E5124F66EFD0E5220F76E94
:102F2800F86A000EF8220800F550E66EFA0EE3CFB4
:102F3800E6FFE3CFE6FFC0EC23F0FE0EE3CF51F04F
:102F4800FF0EE3CF52F0050E5124D96E000E522029
:102F5800DA6EDF50E66EFC0EE350516E526ACB0E0D
:102F68005124F66EFD0E5220F76EF86A000EF82214
:102F78000800F550E66EFC0EE3CFE6FFE3CFE6FF70
:102F88009EEC26F0FD0EE350516E526AD70E512486
:102F9800F66EFD0E5220F76EF86A000EF822080051
:102FA800F5CF5BF0010E5A6E5B2A02D0D8905A36E4
:102FB8005B2EFCD7020EE66EFD0EE3CFE6FFE3CFF5
:102FC800E6FFC4EC26F050505A10E66E020EE66E8C
:102FD800FC0EE3CFE6FFE3CFE6FF9EEC26F0F90E0A
:102FE800E126FF0EE2221200090EE126000EE2227F
:102FF800CC0E586ECC0E596ECC0E5A6ECC0E5B6E43
:10300800F70E58C0E3FFF80E59C0E3FFF90E5AC097
:10301800E3FFFA0E5BC0E3FFF70EE124516EFF0EEB
:10302800E220526EFC0E52C0E3FFFB0E51C0E3FFDC
:10303800FF0EE36AE32AF30EE3CF50F0FD0E50C013
:10304800E3FFF40EE3CF50F0FE0E50C0E3FF40D094
:10305800F20EE350D8A408D0F30EE3CF50F0F40EEC
:10306800E3505010D8A421D0FD0EE3CF51F0FE0E4E
:10307800E3CF52F0070E5116000E52165C0E512483
:10308800D96E000E5220DA6EFF0EE3CF5BF0FB0E16
:10309800E3CF51F0FC0EE3CF52F05B505124E96EC0
:1030A800000E5220EA6EDFCFEFFF030E5B6EE15099
:1030B800FD0FD96EE250DA6EFF0EDA225B2804D0DB
:1030C800D92AD890DD32DF32E82EFAD7FF0EE32A6C
:1030D800FD0EE3CF50F0FE0EE3505010D8A4B8D741
:1030E800F20EE350D8A408D0F30EE3CF50F0F40E5C
:1030F800E3505010D8A411D0F20EE350516E526A2A
:103108005C0E5124D96E000E5220DA6EFB0EE3CF0E
:10311800E9FFFC0EE3CFEAFF16D0FF0EE350516E35
:10312800526A5B0E5124D96E000E5220DA6EFB0EE5
:10313800E3CF51F0FC0EE3CF52F0010E5124E96EBB
:10314800000E5220EA6EDFCFEFFFF70EE3CF50F00C
:10315800F80EE3CF51F0F90EE3CF52F0FA0EE3CFB9
:1031680053F0F20EE126FF0EE2221200E652FD0EA7
:10317800E3CF51F0FE0EE3CF52F0320E5124D96E58
:10318800000E5220DA6EFB0EE3CFE9FFFC0EE3CF10
:10319800EAFFDECFEEFFDDCFEDFF080EE66E000E94
:1031A800E66EF90EE3CFE6FFE3CFE6FFF90EE35054
:1031B800070F516EFA0EE3CF52F0000E522251C0A3
:1031C800E6FF52C0E6FFB5EC1FF0F70EE3CF50F074
:1031D800F80EE3505010D8B419D0F70EE3CFE6FF3D
:1031E800E3CFE6FFF70EE3CFE6FFE3CFE6FFF90E06
:1031F800E3500F0F516EFA0EE3CF52F0000E522239
:1032080051C0E6FF52C0E6FFB5EC1FF0F50EE3CF64
:1032180050F0380E501804E1F60EE350D8B440D000
:10322800FF0EE36AE380E382FB0EE3CF51F0FC0E6E
:10323800E3CF52F0020E5124D96E000E5220DA6EFE
:10324800400EDE18DE10D8A403D0FF0EE36AE38434
:10325800FB0EE3CF51F0FC0EE3CF52F0020E5124E7
:10326800D96E000E5220DA6EF50EE350DE1808E132
:10327800F60EE350DE18D8A403D0FF0EE36AE3820B
:10328800FF0EE350E66EF40EE3CFE6FFE3CFE6FF72
:10329800FA0EE3CFE6FFE3CFE6FF6BEC0CF01DD0B0
:1032A800000EE66EFA0EE3CF51F0FB0EE3CF52F0BC
:1032B800020E5124D96E000E5220DA6EDECF51F084
:1032C800DDCF52F051C0E6FF52C0E6FFFA0EE3CF61
:1032D800E6FFE3CFE6FF6BEC0CF0F50EE126FF0E00
:1032E800E2221200070EE126000EE222F50EE3CFDD
:1032F80051F0F60EE3CF52F0FE0E52C0E3FFFD0E82
:1033080051C0E3FFF70EE3CF51F0F80EE3CF52F0D0
:10331800050E5124D96E000E5220DA6EF40EE3CF5A
:1033280050F0DE50505CD8A00ED0F70EE3CF51F02D
:10333800F80EE3CF52F0050E5124D96E000E52203C
:10334800DA6EDF5002D0F40EE350516E526AFB0E73
:1033580051C0E3FFFC0E52C0E3FFFB0EE3CF50F079
:10336800F40E50C0E3FFF70EE3CF51F0F80EE3CFB1
:1033780052F0060E5124D96E000E5220DA6EDF503C
:10338800D8A41BD0F70EE3CF51F0F80EE3CF52F0DC
:10339800050E5124D96E000E5220DA6EDF50516EA0
:1033A800526AF40EE350515E000E525AF90E51C0A3
:1033B800E3FFFA0E52C0E3FF04D0F90EE36AFA0EF7
:1033C800E36AF90EE3CF50F0FF0E50C0E3FFF70EAB
:1033D800E3CFE6FFE3CFE6FF28EC28F0F30EE35057
:1033E800E66E40EC28F017D0E150FD0FD96EE250A0
:1033F800DA6EFF0EDA22DFCF51F0010EDE26DFCFC4
:1034080052F0000EDD2251C0D9FF52C0DAFFDF5062
:10341800E66E40EC28F0F40EE306F40EE328D8B488
:1034280005D0E2D7000EE66E40EC28F0FF0EE3066A
:10343800FF0EE328D8A4F6D7F70EE3CFE6FFE3CFD5
:10344800E6FF1CEC28F0F30EE126FF0EE222120044
:10345800150EE126000EE2220C0EE66E0E0EE66E4A
:10346800A4EC05F04AEC28F0FC0E50C0E3FFFD0E7A
:1034780051C0E3FFFE0E52C0E3FFFF0E53C0E3FF4F
:10348800FC0EE3CF58F0FD0EE3CF59F0FE0EE3CF6C
:103498005AF0FF0EE3CF5BF00150585C546E0250B7
:1034A8005958556E03505A58566E04505B58576E0B
:1034B8005750561006E1D00E545C070E5558D8A048
:1034C8006FD0E150FC0FD96EE250DA6EFF0EDA22AF
:1034D800DECF01F0DECF02F0DECF03F0DECF04F066
:1034E8009D0EE66EFF0EE66EC6EC22F04AEC28F062
:1034F800F30E50C0E3FFF40E51C0E3FFF50E52C0C7
:10350800E3FFF60E53C0E3FFF70EE124D96EFF0E7A
:10351800E220DA6E09C0DEFF0AC0DEFF0BC0DEFF64
:103528000CC0DEFF010E0926000E0A220B220C2217
:10353800000EE66E000EE66E000EE66EE80EE12462
:10354800E66EFF0EE220E66E0DEC23F0080EE66E46
:10355800000EE66EF10EE124E66EFF0EE220E66E46
:10356800E70EE124E66EFF0EE220E66E0C0EE66E34
:103578000E0EE66E2DEC27F0FB0E50C0E3FFFB0E9F
:10358800E350D8B407D0FB0EE66EFF0EE66EE7EC0C
:1035980027F006D0D40EE66EFF0EE66EE7EC27F0B5
:1035A800EB0EE126FF0EE2221200E150FC0FD96E6D
:1035B800E250DA6EFF0EDA22FE0EE3CF51F0FF0E74
:1035C800E3CF52F02F0E5124E96E000E5220EA6E1E
:1035D800DECFEEFFDDCFEDFFFE0EE3503C0F516E68
:1035E800FF0EE3CF52F0000E5222FE0EE3CF5AF048
:1035F800FF0EE3CF5BF0D60E5A24D96E000E5B2087
:10360800DA6E51C0DEFF52C0DDFFFE0EE350E40F5C
:10361800516EFF0EE3CF52F0000E5222FE0EE3CFA2
:103628005AF0FF0EE3CF5BF0E20E5A24D96E000E7B
:103638005B20DA6E51C0DEFF52C0DDFFFE0EE350A4
:10364800D80F516EFF0EE3CF52F0000E5222FE0E3D
:10365800E3CF5AF0FF0EE3CF5BF0270E5A24D96E62
:10366800000E5B20DA6E51C0DEFF52C0DDFFFE0E99
:10367800E3CF51F0FF0EE3CF52F02B0E5124D96E59
:10368800000E5220DA6EDE6ADE6ADE6ADD6AFE0E3F
:10369800E3CF51F0FF0EE3CF52F02A0E5124D96E3A
:1036A800000E5220DA6E000EDF6EFE0EE3CF51F0F0
:1036B800FF0EE3CF52F0290E5124D96E000E52208E
:1036C800DA6E000EDF6EFE0EE3CFD9FFFF0EE3CFFA
:1036D800DAFF000EDF6EFE0EE3CF51F0FF0EE3CFF0
:1036E80052F0350E5124D96E000E5220DA6E180EA3
:1036F800DE6E000EDD6EE552E552E552E55212002F
:10370800050EE126000EE222F70EE3CF51F0F80E87
:10371800E3CF52F0FE0E52C0E3FFFD0E51C0E3FFAF
:10372800F90EE3CF51F0FA0EE3CF52F0050E512413
:10373800D96E000E5220DA6EF60EE350DE5CD8B079
:1037480011D0F90EE3CF51F0FA0EE3CF52F0050E87
:103758005124D96E000E5220DA6EDF505B6EF60EE1
:103768005BC0E3FFF90EE3CF51F0FA0EE3CF52F05E
:10377800060E5124D96E000E5220DA6EDF50D8A4FE
:103788001BD0F90EE3CF51F0FA0EE3CF52F0050E3D
:103798005124D96E000E5220DA6EDF50516E526AF3
:1037A800F60EE350515E000E525AFB0E51C0E3FF75
:1037B800FC0E52C0E3FF04D0FB0EE36AFC0EE36A82
:1037C800FB0EE3CF50F0FF0E50C0E3FFF90EE3CF3E
:1037D800E6FFE3CFE6FF28EC28F0610EE66E40EC4A
:1037E80028F01BD0FD0EE3CFD9FFFE0EE3CFDAFFA2
:1037F800FF0EE66E40EC28F05050DF6EFD0EE350F1
:10380800010F506EFD0E50C0E3FF506AFE0EE350EC
:103818005020506EFE0E50C0E3FFF60EE306F60E83
:10382800E328D8B405D0DED7FF0EE66E40EC28F0CA
:10383800FF0EE306FF0EE328D8A4F6D7F90EE3CF70
:10384800E6FFE3CFE6FF1CEC28F0F60EE126FF0EBC
:10385800E2221200E652E652E652E652F50EE35034
:10386800D8B410D0FA0EE3CFE6FFE3CFE6FF50EC72
:103878001EF0010EE66EF90EE3CFE6FFE3CFE6FF9A
:103888002AEC26F04AEC28F0FC0E50C0E3FFFD0EAF
:1038980051C0E3FFFE0E52C0E3FFFF0E53C0E3FF2B
:1038A80058D0FA0EE3CFE6FFE3CFE6FF10EC28F09E
:1038B80050A84FD0100EE66E070EE66EF80EE3CF56
:1038C800E6FFE3CFE6FF9EEC26F0000EE66EF90E6B
:1038D800E3CFE6FFE3CFE6FF2AEC26F0010EE66E23
:1038E800F90EE3CFE6FFE3CFE6FF2AEC26F04AEC39
:1038F80028F0FC0EE350505EFD0EE350515AFE0EC8
:10390800E350525AFF0EE350535AF60EE350505C00
:10391800F70EE3505158F80EE35052585350800AAE
:10392800586EF90EE350800A5858D8A012D0000EED
:10393800E66EF90EE3CFE6FFE3CFE6FF2AEC26F0CA
:10394800FA0EE3CFE6FFE3CFE6FF34EC28F0000EF3
:1039580015D0170EE66EF90EE3CFE6FFE3CFE6FFCC
:10396800C4EC26F050A89DD7000EE66EF90EE3CF02
:10397800E6FFE3CFE6FF2AEC26F0010E506EF50EC7
:10398800E126FF0EE2221200FE0EE3CFE6FFE3CFB0
:10399800E6FF51EC26F0000EE66EFD0EE3CFE6FFE3
:1039A800E3CFE6FFC4EC26F050500109E66E000EA6
:1039B800E66EFC0EE3CFE6FFE3CFE6FF9EEC26F0D3
:1039C800700EE66E070EE66EFC0EE3CFE6FFE3CF61
:1039D800E6FF9EEC26F0010EE66EFD0EE3CFE6FF55
:1039E800E3CFE6FF2AEC26F0FE0EE3CF51F0FF0E00
:1039F800E3CF52F0070E5124D96E000E5220DA6E32
:103A0800DF50D8B428D0FE0EE3CF51F0FF0EE3CF3D
:103A180052F00C0E5124D96E000E5220DA6EDF508F
:103A2800E66EFD0EE3CF5AF0FE0EE3CF5BF0070E15
:103A38005A24516E000E5B20526E51C0E6FF52C0F0
:103A4800E6FF0A0EE66EFA0EE3CFE6FFE3CFE6FFE7
:103A5800C0EC23F009D0000EE66EFD0EE3CFE6FFC2
:103A6800E3CFE6FF74EC25F01D0EE66EFD0EE3CF06
:103A7800E6FFE3CFE6FFC4EC26F050A207D0FE0E27
:103A8800E3CFE6FFE3CFE6FF34EC28F0E552E5525A
:103A98001200E652E652FF0EE36A060EE66EFB0ED1
:103AA800E3CFE6FFE3CFE6FFC4EC26F0FE0E50C0FE
:103AB800E3FFFE0EE3CF50F0D70E5016FE0E50C0B7
:103AC800E3FFFC0EE3CF51F0FD0EE3CF52F00D0EF5
:103AD8005124D96E000E5220DA6E550EDE6E000E9D
:103AE800DE6E000EDE6E000EDD6EFB0EE3CF50F0D4
:103AF800020E5018D8A410D0FE0EE38AFC0EE3CFB5
:103B080051F0FD0EE3CF52F00D0E5124D96E000E88
:103B18005220DA6E9B0E13D0FB0EE304D8A416D005
:103B2800FE0EE386FC0EE3CF51F0FD0EE3CF52F01C
:103B38000D0E5124D96E000E5220DA6E410EDE6E43
:103B4800000EDE6E000EDE6E000EDD6EFE0EE35021
:103B5800E66E060EE66EFA0EE3CFE6FFE3CFE6FF6B
:103B68009EEC26F0060EE66EFB0EE3CFE6FFE3CFF3
:103B7800E6FFC4EC26F0FE0EE3505018D8A403D09C
:103B8800FF0EE36AE32AFF0EE3CF50F0FB0EE126B7
:103B9800FF0EE2221200050EE126000EE222FB0EC5
:103BA800E36AFC0EE36AFD0EE36AFE0EE36AF30EB7
:103BB800E3500AE1F40EE35007E1F50EE35004E1A7
:103BC800F60EE350D8B457D0FF0EE36A0AD0D89067
:103BD800F30EE336F40EE336F50EE336F60EE3366F
:103BE800FF0EE32AF60EE3AEF2D7D890FB0EE336CB
:103BF800FC0EE336FD0EE336FE0EE336E150F70F1A
:103C0800D96EE250DA6EFF0EDA22F30EE350DE5C74
:103C1800F40EE350DE58F50EE350DE58F60EE3508E
:103C2800DE58D8A015D0E150F70FD96EE250DA6E01
:103C3800FF0EDA22F30EE350DE5EF40EE350DE5A96
:103C4800F50EE350DE5AF60EE350DE5AFB0EE38023
:103C5800D890F60EE332F50EE332F40EE332F30EAB
:103C6800E332FF0EE350506E010E505EFF0E50C05F
:103C7800E3FFD8A4BAD7FB0EE3CF50F0FC0EE3CF96
:103C880051F0FD0EE3CF52F0FE0EE3CF53F0F30EEA
:103C9800E126FF0EE2221200000EE66EFD0EE3CFD3
:103CA800E6FFE3CFE6FF2AEC26F0FE0EE3CF51F065
:103CB800FF0EE3CF52F00D0E5124D96E000E5220A4
:103CC800DA6EDF50E66E7BEC22F01D0EE66EFD0E1E
:103CD800E3CFE6FFE3CFE6FFC4EC26F050A217D00F
:103CE800FE0EE3CF51F0FF0EE3CF52F00D0E51243C
:103CF800D96E000E5220DA6EDF50E66E7BEC22F0B1
:103D0800FE0EE3CFE6FFE3CFE6FF34EC28F0000E2B
:103D1800E66EFD0EE3CFE6FFE3CFE6FFC4EC26F048
:103D28005050FE0BE66E000EE66EFC0EE3CFE6FF8B
:103D3800E3CFE6FF9EEC26F0D70EF66EFD0EF76E8B
:103D4800000EF86E0800F5CF5BF0010E5A6E5B2A84
:103D580002D0D8905A365B2EFCD7020EE66EFD0EC6
:103D6800E3CFE6FFE3CFE6FFC4EC26F050505A104D
:103D7800E66E020EE66EFC0EE3CFE6FFE3CFE6FF4B
:103D88009EEC26F0E552E5521200FE0EE3CFD9FF75
:103D9800FF0EE3CFDAFFFD0EE3CFDFFFFE0EE3CF2A
:103DA80051F0FF0EE3CF52F0010E5124D96E000EF0
:103DB8005220DA6EFC0EE3CFDFFFFE0EE3CF51F0A8
:103DC800FF0EE3CF52F0040E5124D96E000E52209C
:103DD800DA6E000EDF6EFE0EE3CF51F0FF0EE3CF7A
:103DE80052F0050E5124D96E000E5220DA6E200EC4
:103DF800DF6EFE0EE3CF51F0FF0EE3CF52F0060E5A
:103E08005124D96E000E5220DA6E000EDF6EFE0EBF
:103E1800E3CF51F0FF0EE3CF52F00C0E5124D96ED0
:103E2800000E5220DA6E050EDF6EFE0EE3CF51F063
:103E3800FF0EE3CF52F0110E5124D96E000E52201E
:103E4800DA6E050EDE6E000EDE6E000EDE6E000E01
:103E5800DD6EFE0EE3CF51F0FF0EE3CF52F0070EFA
:103E68005124D96E000E5220DA6E000EDF6EE55234
:103E7800E552E552E5521200E652E652E652FD0ED0
:103E8800E36AFE0EE36AF90EE3CF50F0FA0EE35050
:103E98005010D8B45BD0FF0EE36A10D0F90EE3508F
:103EA800D890E834506EF90E50C0E3FFFA0EE35094
:103EB800E834506EFA0E50C0E3FFFF0EE32AFA0E04
:103EC800E3AEECD7FD0EE350D890E834506EFD0E0B
:103ED80050C0E3FFFE0EE350E834506EFE0E50C0B3
:103EE800E3FFF90EE3CF51F0FA0EE3CF52F0FB0EE9
:103EF800E3CF5AF0FC0EE3CF5BF051505A5C5250BE
:103F08005B58D8A014D0FB0EE350506EF90EE35066
:103F1800505EFB0E50C0E3FFFC0EE350506EFA0EED
:103F2800E350505AFC0E50C0E3FFFD0EE380D890DA
:103F3800FA0EE332F90EE332FF0EE350506E010E33
:103F4800505EFF0E50C0E3FFD8A4BCD7FD0EE3CFF0
:103F580050F0FE0EE3CF51F0F90EE126FF0EE222FB
:103F68001200E652E652E652E652F80EE3CF51F05E
:103F7800F90EE3CF52F0FD0E52C0E3FFFC0E51C024
:103F8800E3FFFA0EE3CF51F0FB0EE3CF52F0FF0E42
:103F980052C0E3FFFE0E51C0E3FF2CD0FC0EE3CF6E
:103FA800D9FFFD0EE3CFDAFFFE0EE3CFE9FFFF0EE8
:103FB800E3CFEAFFDFCFEFFFFC0EE350010F506EB7
:103FC800FC0E50C0E3FF506AFD0EE3505020506EC7
:103FD800FD0E50C0E3FFFE0EE350010F506EFE0EC3
:103FE80050C0E3FF506AFF0EE3505020506EFF0EA2
:103FF80050C0E3FFF60EE3CF50F0010E505EF60E10
:1040080050C0E3FFF70EE3CF50F0000E505AF70E02
:1040180050C0E3FFF60EE328C1E1F70EE328D8A469
:10402800BDD7F60EE126FF0EE2221200948C948E84
:10403800FC0EE3CF58F0FD0EE3CF59F0FE0EE3CFB0
:104048005AF0FF0EE3CF5BF0020ED890583659367F
:104058005A365B36E82EF9D758C0E6FF59C0E6FF56
:104068005AC0E6FF5BC0E6FF000EE66E480EE66E3D
:10407800E80EE66E010EE66ECFEC1DF050C058F06B
:1040880051C059F052C05AF053C05BF0FF0E58248B
:10409800546EFF0E5920556EFF0E5A20566EFF0EB5
:1040A8005B20576EFC0E54C0E3FFFD0E55C0E3FFC6
:1040B800FE0E56C0E3FFFF0E57C0E3FFFC0EE3CF32
:1040C800AFFFFD0EE124D96EFF0EE220DA6EDF505D
:1040D800B06EAC9CAC98AC84B886AB9CAB88AC8A10
:1040E800AB8EE552E552E552E5521200E652FB0E60
:1040F800E3CF50F0FC0EE3505010D8B44AD0FF0E76
:10410800E36A10D0FB0EE350D890E834506EFB0EF3
:1041180050C0E3FFFC0EE350E834506EFC0E50C074
:10412800E3FFFF0EE32AFC0EE3AEECD7FB0EE3CF72
:1041380051F0FC0EE3CF52F0FD0EE3CF5AF0FE0E25
:10414800E3CF5BF051505A5C52505B58D8A012D064
:10415800FD0EE350506EFB0EE350505EFD0E50C056
:10416800E3FFFE0EE350506EFC0EE350505AFE0E75
:1041780050C0E3FFD890FC0EE332FB0EE332FF0E93
:10418800E350506E010E505EFF0E50C0E3FFD8A4FE
:10419800CDD7FD0EE3CF50F0FE0EE3CF51F0FB0E6E
:1041A800E126FF0EE2221200E652E652E652E652FD
:1041B800FE0EE36AFF0EE36A38D0FC0EE36AFD0EDA
:1041C800E36A00F000F000F000F000F000F000F00A
:1041D80000F000F000F0FC0EE350010F506EFC0EF2
:1041E80050C0E3FF506AFD0EE3505020506EFD0EA4
:1041F80050C0E3FFFC0EE3CF50F0200E505EFD0EE2
:10420800E3CF50F0030E505AD8A0DBD7FE0EE35090
:10421800010F506EFE0E50C0E3FF506AFF0EE350D0
:104228005020506EFF0E50C0E3FFFA0EE3CF51F05E
:10423800FB0EE3CF52F0FE0EE3CF5AF0FF0EE3CFB2
:104248005BF051505A5C52505B58D8A0B6D7FA0E62
:10425800E126FF0EE2221200E652E652E652FF0E77
:10426800E36AF90EE3CFE6FFE3CFE6FFF90EE3CF0B
:10427800E6FFE3CFE6FF9EEC24F05050D8B43AD0E6
:10428800FB0EE3CF51F0FC0EE3CF52F03A0E51246F
:10429800D96E000E5220DA6EDECF5AF0DDCF5BF019
:1042A8005A1C516E5B1C526ED89051365236D890BB
:1042B80051365236D89051365236FD0E51C0E3FF72
:1042C800FE0E52C0E3FFF90EE3CF51F0FA0EE3CF32
:1042D80052F0FD0EE3505116FE0EE35052165150A7
:1042E8005210D8A403D05B6A5B2A01D05B6AFF0E28
:1042F8005BC0E3FFFF0EE3CF50F0F90EE126FF0E9F
:10430800E2221200FE0EE3CF51F0FF0EE3CF52F08F
:104318000C0E5124D96E000E5220DA6EDF50E66E74
:10432800F90EE124E66EFF0EE220E66E0A0EE66E56
:10433800FA0EE3CFE6FFE3CFE6FFC0EC23F0FE0E74
:10434800E3CF51F0FF0EE3CF52F00C0E5124D96E9B
:10435800000E5220DA6EDF50E66EF90EE124E66EAA
:10436800FF0EE220E66E100EE66EFA0EE3CFE6FFD1
:10437800E3CFE6FFC0EC23F0FE0EE3CF51F0FF0ED3
:10438800E3CF52F0050E5124D96E000E5220DA6E9A
:10439800DF50E66E110EE66EFC0EE3CFE6FFE3CFCC
:1043A800E6FF9EEC26F0FA0EE126FF0EE22212004E
:1043B800E652FC0EE3CF50F0070E506048D0010ED5
:1043C800E66EFC0EE3CFE6FFE3CFE6FFC4EC26F093
:1043D800FF0E50C0E3FFFB0EE350D8B415D0FC0E1F
:1043E800E3CF5BF0010E5A6E5B2A02D0D8905A36A2
:1043F8005B2EFCD7E150FF0FD96EE250DA6EFF0E4C
:10440800DA225A50DF1217D0FC0EE3CF5BF0010E10
:104418005A6E5B2A02D0D8905A365B2EFCD75A5077
:10442800FF0A5B6EE150FF0FD96EE250DA6EFF0EA5
:10443800DA225B50DF16FF0EE350E66E010EE66EE1
:10444800FB0EE3CFE6FFE3CFE6FF9EEC26F0FB0E84
:10445800E126FF0EE2221200E652E652FA0EE3CF00
:104468005BF0FC0EE3505B02FE0EF3CFE3FFFF0EA2
:10447800F4CFE3FFFB0EE124D96EFF0EE220DA6EE3
:10448800DF505B6EFC0EE3505B02F3CFF4FFF36A80
:10449800E150FE0FD96EE250DA6EFF0EDA22F350C9
:1044A800DE26F450DD22FA0EE3CF5BF0FD0EE124A8
:1044B800D96EFF0EE220DA6EDF505B02F3CFF4FF15
:1044C800F36AE150FE0FD96EE250DA6EFF0EDA227F
:1044D800F350DE26F450DD22FE0EE3CF50F0FF0E3F
:1044E800E3CF51F0FA0EE126FF0EE2221200E65267
:1044F800E652E652E652FE0EE36AFF0EE36A2DD05C
:10450800FC0EE36AFD0EE36A00F0FC0EE350010FB7
:10451800506EFC0E50C0E3FF506AFD0EE350502071
:10452800506EFD0E50C0E3FFFD0EE35007E1FC0E98
:10453800E3CF50F0080E505ED8A0E6D7FE0EE35049
:10454800010F506EFE0E50C0E3FF506AFF0EE3509D
:104558005020506EFF0E50C0E3FFFB0EE350516E2B
:10456800526AFE0EE3CF50F05150505CFF0EE3CF7D
:1045780050F052505058D8A0C3D7FB0EE126FF0E7A
:10458800E2221200E652E652FE0EE36AFF0EE36AEA
:1045980025D0FC0EE3CF51F0FD0EE3CF52F0FE0E16
:1045A800E3505126FF0EE350522251C0F6FF52C08D
:1045B800F7FFF86A0800F550E66E53EC28F0FE0E97
:1045C800E350010F506EFE0E50C0E3FF506AFF0E1D
:1045D800E3505020506EFF0E50C0E3FFFC0EE3CFB7
:1045E80051F0FD0EE3CF52F0FE0EE3505126FF0EC0
:1045F800E350522251C0F6FF52C0F7FFF86A080094
:10460800F5500009D8A4C5D7E552E552E552E55260
:104618001200E150FC0FD96EE250DA6EFF0EDA227A
:10462800FE0EE3CF51F0FF0EE3CF52F0020E5124FD
:10463800E96E000E5220EA6EDECFEEFFDDCFEDFF11
:10464800FE0EE3CF51F0FF0EE3CF52F0040E5124DB
:10465800D96E000E5220DA6E63C0DEFF64C0DDFF43
:10466800634A642AFE0EE3CF51F0FF0EE3CF52F007
:10467800060E5124D96E000E5220DA6EFB0EE3CFDF
:10468800DFFFFB0EE126FF0EE22212001D0EE66E92
:10469800FD0EE3CFE6FFE3CFE6FFC4EC26F0505073
:1046A8000409E66E1D0EE66EFC0EE3CFE6FFE3CFCF
:1046B800E6FF9EEC26F01C0EE66EFD0EE3CFE6FF4D
:1046C800E3CFE6FFC4EC26F050503F09E66E1C0E1F
:1046D800E66EFC0EE3CFE6FFE3CFE6FF9EEC26F0A6
:1046E800FE0EE3CF51F0FF0EE3CF52F0060E512439
:1046F800D96E000E5220DA6E010EDF6EE552E552D9
:10470800120016D0FE0EE3CFE6FFE3CFE6FF10EC73
:1047180028F050A80DD0100EE66E070EE66EFC0EBF
:10472800E3CFE6FFE3CFE6FF9EEC26F0000E1ED0B7
:10473800FE0EE3CFE6FFE3CFE6FF10EC28F050B023
:10474800E1D7010EE66EF90EE350E66EF90EE3507E
:10475800E66EF90EE3CFE6FFE3CFE6FFF90EE3CF0F
:10476800E6FFE3CFE6FF0AEC25F0010E506EFA0EE5
:10477800E126FF0EE2221200FE0EE3CFE6FFE3CFB2
:10478800E6FF28EC28F0FD0EE3501F0B2009E66E2B
:1047980040EC28F017D0E150FB0FD96EE250DA6EEA
:1047A800FF0EDA22DFCF51F0010EDE26DFCF52F006
:1047B800000EDD2251C0D9FF52C0DAFFDF50E66E8D
:1047C80040EC28F0FA0EE306FA0EE328D8A4E3D763
:1047D800FE0EE3CFE6FFE3CFE6FF1CEC28F0FA0E6F
:1047E800E126FF0EE2221200E652E652FF0EE36ACD
:1047F800E32A22D0FA0EE3CF5BF0070E5B16FE0E1B
:104808005BC0E3FFFE0EE3CF50F0050E506403D00B
:10481800FF0EE36A19D0030E5B6EE150FA0FD96EF2
:10482800E250DA6EFF0EDA225B2804D0D92AD8903B
:10483800DD32DF32E82EFAD7FA0EE3CF50F0FB0E66
:10484800E3505010D8A4D6D7FF0EE3CF50F0FA0E9D
:10485800E126FF0EE2221200080EE66E070EE66E53
:104868003A0EE66E000EE66EC9EC1EF03A0EE66EE3
:10487800000EE66E0C0EE66E0E0EE66ED9EC1AF021
:10488800000EE66EE10EE66E000EE66E000EE66EB7
:104898001AEC20F0C10EE66EFE0EE66EE7EC27F08D
:1048A8003A0EE66E000EE66E21EC15F0010EE66E8D
:1048B800000EE66E5A0EE66E0C0EE66E0E0EE66EF4
:1048C8000FEC10F01200E652FD0EE3CFE6FFE3CF47
:1048D800E6FF28EC28F0600EE66E40EC28F0FF0EAC
:1048E800E66E40EC28F0FF0E50C0E3FFFD0EE3CF6C
:1048F800E6FFE3CFE6FF1CEC28F0FF0EE3CF50F015
:10490800200E506410D0FD0EE3CFE6FFE3CFE6FFA4
:1049180004EC28F0020EE66E000EE66ED8EC20F0ED
:10492800000E506E03D0FF0EE3CF50F0E552E55273
:10493800E5521200FE0EE3CF51F0FF0EE3CF52F026
:10494800320E5124D96E000E5220DA6EFC0EE3CFDF
:1049580051F0FD0EE3CF52F0FE0EE3CF5AF0FF0EFA
:10496800E3CF5BF03A0E5A24E96E000E5B20EA6E44
:10497800EECF5AF0EDCF5BF051505A1652505B16FD
:10498800DE505A1807E1DE505B18D8A403D0506AED
:10499800502A01D0506AE552E552E552E55212001C
:1049A800E652E652FC0EE3CF51F0FD0EE3CF52F093
:1049B8003A0E5124D96E000E5220DA6EDECF51F035
:1049C800DDCF52F0D89051365236D8905136523603
:1049D800D89051365236070E5112000E5212FE0E62
:1049E80051C0E3FFFF0E52C0E3FFFA0EE3CF50F0D1
:1049F800FB0EE3CF51F0FE0EE3505016FF0EE350CE
:104A08005116FA0EE126FF0EE2221200E652E65295
:104A1800F80EE350D8A402D0A00E01D0B00E516E0B
:104A2800000E526EFE0E51C0E3FFFF0E52C0E3FFB0
:104A3800FE0EE350E66EF80EE350E66EF80EE3CF96
:104A4800E6FFE3CFE6FFF80EE3CFE6FFE3CFE6FFAE
:104A580076EC19F0F70EE350D8B409D0010EE66EE3
:104A6800FB0EE3CFE6FFE3CFE6FF2AEC26F0F70ED6
:104A7800E126FF0EE2221200E652170EE66EFC0E49
:104A8800E3CFE6FFE3CFE6FFC4EC26F050B021D039
:104A9800FB0EE3CF50F0FC0EE3505010D8B417D003
:104AA800FD0EE3CFE6FFE3CFE6FF10EC28F0FF0EA4
:104AB80050C0E3FFFB0EE3CFD9FFFC0EE3CFDAFFD4
:104AC800FF0EE3CF5BF0D8905B30070BDF6E010E73
:104AD80001D0000E506EFB0EE126FF0EE2221200FE
:104AE800FD0EE350516E526AD70E5124F66EFD0E3C
:104AF8005220F76EF86A000EF8220800F5CF5BF036
:104B0800010E5A6E5B2A02D0D8905A365B2EFCD71B
:104B18005A50FF0A5B6E020EE66EFD0EE3CFE6FF0B
:104B2800E3CFE6FFC4EC26F050505B14E66E020EAD
:104B3800E66EFC0EE3CFE6FFE3CFE6FF9EEC26F041
:104B4800E552E552E5521200E652E652010E516E68
:104B5800000E526EFE0E51C0E3FFFF0E52C0E3FF7F
:104B6800FB0EE350D8B413D0FB0EE350FF0F030D38
:104B7800E150FE0FD96EE250DA6EFF0EDA22F3280A
:104B880003D0D890DE36DD36E82EFBD705D0000EF0
:104B9800506E000E516E06D0FE0EE3CF50F0FF0EA1
:104BA800E3CF51F0FB0EE126FF0EE2221200E6529F
:104BB800E652FB0EE3CF50F07C0E506405D07D0E1C
:104BC800516E000E526E04D0FB0EE350516E526AC5
:104BD800FE0E51C0E3FFFF0E52C0E3FFFE0EE3508E
:104BE800E66E050EE66EFA0EE3CFE6FFE3CFE6FFCC
:104BF8009EEC26F0FB0EE126FF0EE2221200FD0ECF
:104C0800E350E66EFD0EE3CF51F0FE0EE3CF52F017
:104C1800010E5124D96E000E5220DA6EDF50E66E76
:104C280076EC11F0FE0EE3CF51F0FF0EE3CF52F019
:104C3800110E5124D96E000E5220DA6EDF50E66E46
:104C48007BEC22F0E552E552E5521200FE0EE3CF6E
:104C580051F0FF0EE3CF52F0010E5124D96E000E31
:104C68005220DA6EFE0EE3CFE9FFFF0EE3CFEAFF34
:104C7800DE50EE18D8B40DD0FD0EE350E66EFD0EF2
:104C8800E3CFD9FFFE0EE3CFDAFFDF50E66E76EC16
:104C980011F0E552E552E5521200E652000EE66EBA
:104CA800FC0EE3CFE6FFE3CFE6FFC4EC26F0FF0EF1
:104CB80050C0E3FFFF0EE3B213D0FF0EE35002092A
:104CC800E66E000EE66EFB0EE3CFE6FFE3CFE6FFEF
:104CD8009EEC26F0050EE66E000EE66ED8EC20F08F
:104CE800E552E552E5521200E652FF0EE36AFD0E68
:104CF800E3CFD9FFFE0EE3CFDAFFDF50FF0AD8B4C7
:104D080012D0FD0EE3CF51F0FE0EE3CF52F0010EAC
:104D18005124D96E000E5220DA6EDE28D8B403D0A2
:104D2800FF0EE36AE32AFF0EE3CF50F0E552E552A7
:104D3800E5521200E652FD0EE3CFE6FFE3CFE6FFB1
:104D480028EC28F0FC0EE3501F0B2009E66E40EC1F
:104D580028F0FF0E50C0E3FFFB0EE350E66E40EC78
:104D680028F0FD0EE3CFE6FFE3CFE6FF1CEC28F0CA
:104D7800FF0EE3CF50F0FB0EE126FF0EE2221200F9
:104D8800E652FD0EE3CFE6FFE3CFE6FF28EC28F07E
:104D9800FC0EE3501F0BE66E40EC28F0FF0EE66EAB
:104DA80040EC28F0FF0E50C0E3FFFD0EE3CFE6FF16
:104DB800E3CFE6FF1CEC28F0FF0EE3CF50F0E552FE
:104DC800E552E552E5521200B40EF66E500EF76E3B
:104DD800000EF86E00EE5CF020EE09F00900F5CF49
:104DE800EEFFDD50D950FAE10EEE0CF021EE74F032
:104DF800EE6ADD50D950FCE1DA50FAE100EE01F03C
:104E08004F0EEE6AE806FDE10001D4EF27F0FE0E32
:104E1800E3CF51F0FF0EE3CF52F0D60E5124D96EF6
:104E2800000E5220DA6EFE0EE3503C0F516EFF0E5C
:104E3800E3CF52F0000E5222DE50515CDE50525841
:104E4800D8B003D0506A502A01D0506AE552E552D2
:104E58001200380EE66E000EE66EF60EE3CFE6FFA1
:104E6800E3CFE6FFF60EE3CFE6FFE3CFE6FFF60E6D
:104E7800E3CFE6FFE3CFE6FFF60EE3CFE6FFE3CFAF
:104E8800E6FF84EC09F0F80EE126FF0EE22212009C
:104E9800FB0EE350E66EFB0EE3CFE6FFE3CFE6FF43
:104EA800FB0EE3CFE6FFE3CFE6FF84EC1BF0700ECA
:104EB800E66E070EE66EFC0EE3CFE6FFE3CFE6FFF5
:104EC8009EEC26F0FB0EE126FF0EE2221200E652CF
:104ED800FD0EE3CFE6FFE3CFE6FF28EC28F0FC0E5B
:104EE800E350E66E40EC28F0FF0E50C0E3FFFD0EE5
:104EF800E3CFE6FFE3CFE6FF1CEC28F0FF0EE3CF9D
:104F080050F0E552E552E552E5521200FC0EE3CFAF
:104F18005BF00F0E5B16FD0EE3CF5AF00F0E5A161C
:104F28005A38F00B5B10E66E040EE66EFC0EE3CF0B
:104F3800E6FFE3CFE6FF9EEC26F0E552E552E552A8
:104F4800E5521200FE0EE3CFE6FFE3CFE6FF28ECC2
:104F580028F0500EE66E40EC28F0730EE66E40EC3A
:104F680028F0FE0EE3CFE6FFE3CFE6FF1CEC28F0C7
:104F7800E552E5521200060015EE04F0F2A40BD03B
:104F8800E00ED76EC00ED66E010E0526000E062264
:104F980007220822F29466C0E2FF65C0E1FF110013
:104FA800056A066A076A086AD59CD59AD586D76ABB
:104FB800C00ED66EF294F28EF28AD58E30EC24F0C2
:104FC8002CEC1AF0FDD7FE0EE3CFE6FFE3CFE6FFA9
:104FD800C6EC22F0670EE66EFF0EE66EC6EC22F017
:104FE800E552E552120094889496949AC69AC78C12
:104FF800C698C79EC650F00B0109C66EC68A120035
:10500800E20EE66EFD0EE3CFE6FFE3CFE6FF6BECC4
:1050180027F0E552E5521200FF0EE66EFD0EE3CFD3
:10502800E6FFE3CFE6FF6BEC27F0E552E55212000E
:10503800010EE66EFD0EE3CFE6FFE3CFE6FF03ECDD
:1050480026F0E552E5521200000EE66EFD0EE3CFA3
:10505800E6FFE3CFE6FF03EC26F0E552E552120047
:10506800E10EE66EFD0EE3CFE6FFE3CFE6FF6BEC65
:1050780027F0E552E5521200C790FF0EE3CFC9FFB3
:10508800C7A0FED7C9CF50F0E552120005C050F0B6
:1050980006C051F007C052F008C053F01200FF0ECE
:1050A800E3CFADFFACA2FED7E5521200C33C33CE2E
:0550B8003EE3EC0100E5
:10FDA4000001000800400000020010008001000A69
:10FDB400006400E803102701001000000100103067
:10FDC400FE37FE21FE3EFE1112131415160A0B0C0B
:10FDD4000D0E0F000102030405FFFD29FE11FE456F
:10FDE400FE4BFE19FED007000008FEF5FD000001E1
:10FDF400006E524632344C30312B004469736162D8
:10FE04006C6564006E524632344C30310031362019
:10FE140062697473003235304B4250530050415F75
:10FE240048494748003820626974730050415F4D67
:10FE3400494E0050415F4C4F570050415F4D41586F
:10FE440000314D42505300324D42505300535441FF
:10FE54005455530909203D203078253032782052FA
:10FE6400585F44523D25782054585F44533D2578CB
:10FE7400204D41585F52543D25782052585F505FC1
:10FE84004E4F3D25782054585F46554C4C3D2578BF
:10FE94000D0A004F4253455256455F54583D253094
:10FEA40032783A20504F4C535F434E543D257820CE
:10FEB4004152435F434E543D25780D0A0052463269
:10FEC400344E6574776F726B2F6578616D706C65F5
:10FED400732F68656C6C6F776F726C645F74782FC6
:10FEE4000069642025752066726F6D2030256F20AF
:10FEF400746F2030256F2074797065202564004369
:10FF04005243204C656E67746809203D2025730DAB
:10FF14000A0044617461205261746509203D202502
:10FF2400730D0A00303132333435363738394142B3
:10FF3400434445460030313233343536373839613D
:10FF4400626364656600504120506F7765720920D2
:10FF54003D2025730D0A004D6F64656C0909203D31
:10FF64002025730D0A0044594E50442F46454154F0
:10FF74005552450052585F414444525F50302D3130
:10FF84000052585F414444525F50322D350052585C
:10FF94005F50575F50302D360053656E64696E674D
:10FFA4002E2E2E00454E5F52584144445200545860
:10FFB4005F41444452090052465F53455455500032
:10FFC400434F4E46494709002030782530327800A7
:10FFD4006661696C65642E00286E756C6C29004539
:10FFE4004E5F4141090052465F43480900257309A9
:0CFFF400203D00203078006F6B2E0000D4
:020000040020DA
:08000000FFFFFFFFFFFFFFFF00
:020000040030CA
:0E000000FF06181EFF8180FF0FC00FE00F40AB
:00000001FF
