:040000000AEF00F013
:10000800E1CF01F0E2CF02F066ED1BF012EE18F03E
:040018007CEF19F070
:10100000001112131415160A0B0C0D0E0F0001021D
:1010100003040501000000524632344E6574776FB8
:10102000726B2F6578616D706C65732F68656C6C81
:101030006F776F726C645F72782F005265636569B9
:10104000766564207061636B657420230020617491
:1010500020000D0A0000000E246ED8C019F0F80E12
:101060001924256E266AFF0E2622010E236E20EE1D
:1010700006F01750D9261850DA22940EDE18D8B48C
:1010800020D020EE06F01750D9261850DA22950EFF
:10109000DE18D8B416D020EE06F01750D926185016
:1010A000DA22960EDE18D8B40CD020EE06F01750D7
:1010B000D9261850DA22C80EDE18D8B402D0000E95
:1010C000236E23C020F02050D8B4D5D120EE06F0F6
:1010D0001750D9261850DA22940EDE18D8A4A3D0BF
:1010E00020EE07F01750D9261850DA22DF50196E7B
:1010F000000E046E0A0E036ED9C005F0DAC006F0C9
:1011000006EC19F0031E041E034A042A9A0E032655
:10111000000E04221950035C000E0458D8B005D00C
:10112000000EE8CF83F1000E120020EE04F01750FD
:10113000D9261850DA2201EE80F0DE50EE1813E1C5
:10114000DE50EE18D8A40FD017C0D9FF18C0DAFFB0
:1011500001EE7CF0DE50EE1806E1DE50EE18D8A469
:1011600002D0010E120020EE07F01750D9261850B9
:10117000DA22DF50196E1950180D21EE7AF0DECF09
:101180001AF0DDCF1BF0A60E1C6E000E1D6E3A0E7F
:101190001C26000E1D221C1E1D1E1C4A1D2A1A5034
:1011A0001C261B501D221C1E1D1E1C4A1D2A900E93
:1011B0001C26000E1D22F3501C5C1D50800A1E6E62
:1011C000F450800A1E58D8B007D0D0C0E8FF0109FB
:1011D000E8CFD0F051EC18F07C0E036E010E046ED7
:1011E000AD0E056E000E066E000E086E080E076E40
:1011F00047EC1AF086C103F087C104F0B50E056E06
:10120000000E066E25C007F026C008F047EC1AF065
:1012100025C084F126C085F183C1E8FFFF0FE8CF28
:1012200083F1010E120020EE06F01750D926185057
:10123000DA22960EDE18D8B414D020EE06F017503D
:10124000D9261850DA22950EDE18D8B40AD020EE2E
:1012500006F01750D9261850DA22C80EDE18D8A486
:101260002ED121EE84F0DECF19F0DDCF1AF025501B
:10127000192626501A221A5004E1910E195CD8A0A2
:1012800005D0000EE8CF83F1000E120021EE83F0AE
:10129000DF50D8B425D020EE06F01750D9261850CC
:1012A000DA22960EDE18D8B40CD021EE83F000EED0
:1012B00007F01750E9261850EA22DE50EE18D8A49D
:1012C0000FD020EE04F01750D9261850DA2201EE84
:1012D00080F0DE50EE1804E1DE50EE18D8B402D0F3
:1012E000000E120021EE84F0DECF19F0DDCF1AF0EF
:1012F00021EE86F0DECF1BF0DDCF1CF019501B2451
:10130000036E1A501C20046EB50E056E000E066E9C
:1013100025C007F026C008F047EC1AF021EE84F053
:101320002550DE262650DD2220EE06F01750D92665
:101330001850DA22960EDE18D8B407D083C1E8FF21
:10134000FF0FE8CF83F1010E1200000EE8CF83F10A
:1013500020EE07F01750D9261850DA22DF50196E08
:1013600019C082F182C1E8FF830AD8A402D0020E1C
:10137000120021EE84F001EE7AF0EECF1BF0EDCFFB
:101380001CF0A60E1D6E000E1E6E3A0E1D26000EDF
:101390001E221D1E1E1E1D4A1E2A1B501D261C50CD
:1013A0001E221D1E1E1E1D4A1E2A900E1D26000EE8
:1013B0001E22DE501D5C1E50800A1F6EDE50800A09
:1013C0001F58D8A04FD07AC103F07BC104F07C0E27
:1013D000056E010E066E000E086E0A0E076E47ECD3
:1013E0001AF021EE7AF0DECF19F0DDCF1AF00A0EF6
:1013F0001924036E000E1A20046E86C105F087C101
:1014000006F084C107F085C108F047EC1AF021EE20
:1014100084F0DECF19F0DDCF1AF00A0E1926000E87
:101420001A2221EE7AF01950DE261A50DD2201012F
:1014300084510A0F030B216E2150D8B411D02150D2
:10144000196E1A6A191E1A1E194A1A2A040E19262A
:10145000000E1A2221EE7AF01950DE261A50DD22F3
:10146000010E120051EC18F0D0C0E8FF0109E8CFDE
:10147000D0F0000E120020EE06F01750D9261850BA
:10148000DA22830EDE18D8A41AD07C0E036E010E69
:10149000046EAD0E056E000E066E000E086E080E90
:1014A000076E47EC1AF0B50EE8CF86F1000EE8CFD4
:1014B00087F125C084F126C085F1020E120021EECD
:1014C0007AF0DECF19F0DDCF1AF0A60E1B6E000EFB
:1014D0001C6E3A0E1B26000E1C221B1E1C1E1B4AD5
:1014E0001C2A19501B261A501C2225501B26265038
:1014F0001C221CBE06D01C5064E19B0E1B5CD8B0A5
:1015000060D07AC103F07BC104F0AD0E056E000E11
:10151000066E000E086E080E076E47EC1AF021EEFC
:101520007AF0DECF19F0DDCF1AF0080E1924036E21
:10153000000E1A20046E250E056E000E066E000EBB
:10154000086E020E076E47EC1AF021EE7AF0DECF3D
:1015500019F0DDCF1AF00A0E1924036E000E1A20BE
:10156000046EB50E056E000E066E25C007F026C08F
:1015700008F047EC1AF00A0E2524196E000E2620FA
:101580001A6E21EE7AF01950DE261A50DD2225500F
:101590000A0F030B226E2250D8B411D02250196EBC
:1015A0001A6A191E1A1E194A1A2A040E1926000E42
:1015B0001A2221EE7AF01950DE261A50DD22010E91
:1015C00001D0000E246E24501200070EE126000EFA
:1015D000E222FC0EE36A20EED0F0DFB279D220EEF8
:1015E000D0F0DFB01ED021EE7AF0DECF6CF0DDCF90
:1015F0006DF0A60E756E000E766EE80E736EFF0E21
:10160000746E7550735E7650745A6C5073266D50BC
:10161000742274BE5DD2745004E19B0E735CD8A03A
:1016200057D2D8EC1BF00009D8A406D0D0C0E8FFF0
:10163000FE0BE8CFD0F04CD2000E8FD167EC1AF041
:1016400020EED8F0DF6E080EDF6007D0000E046ECB
:101650000A0E036EA1EC19F03BD2AD0E1B6E000E0C
:101660001C6ED8C01DF008EC1CF0000E6B6EFB0E5B
:101670006BC0E3FFAD0E6B6EFA0E6BC0E3FFFA0EAC
:10168000E3CF6CF0FB0EE3CF6DF0020E6C24D96E4D
:10169000000E6D20DA6EDECF03F0DDCF04F09FEC9C
:1016A0001AF00009D8B414D2FA0EE3CF6CF0FB0E96
:1016B000E3CF6DF0060E6C24D96E000E6D20DA6E4D
:1016C000DF50766EFC0E76C0E3FF20EED6F0FA0E09
:1016D000E3CF6CF0FB0EE3CF6DF0020E6C24E96EED
:1016E000000E6D20EA6EDE50EE1803E1DE50EE18BB
:1016F000D8A435D1FA0EE3CF6CF0FB0EE3CF6DF03A
:10170000060E6C24D96E000E6D20DA6E820EDE1885
:10171000D8B4DED1FA0EE3CF6CF0FB0EE3CF6DF060
:10172000060E6C24D96E000E6D20DA6E800EDE1867
:10173000D8A448D020EED6F0240EDE1804E1090E1D
:10174000DE18D8B43FD0FA0EE3CF6CF0FB0EE3CF37
:101750006DF0020E6C24D96E000E6D20DA6E240E30
:10176000DE6E090EDD6EFA0EE3CF6CF0FB0EE3CFFA
:101770006DF0020E6C24D96E000E6D20DA6EDECF95
:1017800034F0DDCF35F0020E366E00EC10F0000EB6
:10179000046E0A0E036EA1EC19F0FA0EE3CF6CF0A2
:1017A000FB0EE3CF6DF0020E6C24D96E000E6D209F
:1017B000DA6EDECF34F0DDCF35F0020E366E00EC9F
:1017C00010F086D1FA0EE3CF6CF0FB0EE3CF6DF094
:1017D000060E6C24D96E000E6D20DA6EC30EDE1874
:1017E000D8A437D020EED6F0DE50DE10D8B431D0F9
:1017F00020EED6F0FA0EE3CFE9FFFB0EE3CFEAFFCF
:10180000DECFEEFFDDCFEDFFFA0EE3CF6CF0FB0E87
:10181000E3CF6DF0020E6C24D96E000E6D20DA6EEF
:10182000000EDE6E000EDD6EFA0EE3CF6CF0FB0EE6
:10183000E3CF6DF0020E6C24D96E000E6D20DA6ECF
:10184000DECF34F0DDCF35F0000E366E00EC10F058
:101850003FD120EECFF0DF50D8B40FD0FA0EE3CF57
:101860006CF0FB0EE3CF6DF0060E6C24D96E000E0B
:101870006D20DA6E800EDF6010D0FA0EE3CF6CF0D0
:10188000FB0EE3CF6DF0060E6C24D96E000E6D20BA
:10189000DA6EC10EDE18D8A454D0FA0EE3CF6CF085
:1018A000FB0EE3CF6DF0060E6C24D96E000E6D209A
:1018B000DA6E940EDE18D8B444D0FA0EE3CF6CF092
:1018C000FB0EE3CF6DF0060E6C24D96E000E6D207A
:1018D000DA6E950EDE18D8B434D0FA0EE3CF6CF081
:1018E000FB0EE3CF6DF0060E6C24D96E000E6D205A
:1018F000DA6EC80EDE18D8B424D0FA0EE3CF6CF03E
:10190000FB0EE3CF6DF0060E6C24D96E000E6D2039
:10191000DA6E830EDE18D8B414D0FA0EE3CF6CF072
:10192000FB0EE3CF6DF0060E6C24D96E000E6D2019
:10193000DA6E960EDE18D8B404D0FC0EE3CF6BF04E
:10194000DCD0FA0EE3CF17F0FB0EE3CF18F02BEC50
:1019500008F0020AD8A4BCD0830E6B6ECED0FA0E6B
:10196000E3CF6CF0FB0EE3CF6DF0020E6C24D96E6A
:10197000000E6D20DA6E400EDE18DE10D8A494D072
:10198000FA0EE3CF6CF0FB0EE3CF6DF0060E6C2485
:10199000D96E000E6D20DA6EC20EDE18D8A44BD0C0
:1019A00020EED0F0DFB694D020EED6F0240EDE1874
:1019B00004E1090EDE18D8B48BD0FA0EE3CFD9FFBC
:1019C000FB0EE3CFDAFFFA0EE3CF6CF0FB0EE3CFB2
:1019D0006DF0020E6C24E96E000E6D20EA6EDECF13
:1019E000EEFFDDCFEDFF20EED6F0FA0EE3CFE9FFFC
:1019F000FB0EE3CFEAFFDECFEEFFDDCFEDFF20EE03
:101A0000DDF0DF50036E046AA1EC19F0FA0EE3CFAB
:101A10006CF0FB0EE3CF6DF0020E6C24D96E000E5D
:101A20006D20DA6EDECF34F0DDCF35F0020E366E8B
:101A300000EC10F04DD0FA0EE3CF17F0FB0EE3CF21
:101A400018F02BEC08F0766EF90E76C0E3FF20EE6E
:101A5000A6F0DF50D8B422D020EED5F0DF5056ECFF
:101A600019F003C06CF004C06DF0D8906C366D3680
:101A7000D8906C366D36D8906C366D36FE0E6CC0D4
:101A8000E3FFFF0E6DC0E3FFFE0EE3CF34F0FF0E69
:101A9000E3CF35F0040E366E00EC10F0F90EE3CF14
:101AA0006BF0020E6B1856D7FA0EE3CF6CF0FB0EFC
:101AB000E3CF6DF0020E6C24D96E000E6D20DA6E4D
:101AC000DECF34F0DDCF35F0010E366E00EC10F0D5
:101AD00030EC1CF00009D8B430D7FD0EE1246C6E58
:101AE000FF0EE2206D6E6CC012F06DC013F0EFECD3
:101AF0001AF00009D8B421D7A1D5F90EE126FF0EBE
:101B0000E2221200046ED2D003B002D0929001D033
:101B10009280120003B002D0929201D09282120001
:101B200003B002D0929401D09284120003B002D08C
:101B3000929601D09286120003B002D0929801D002
:101B40009288120003B002D0929A01D0928A1200B9
:101B500003B002D0969001D09680120003B002D05C
:101B6000969201D09682120003B002D0969401D0D2
:101B70009684120003B002D0929E01D0928E120081
:101B800003B002D0929C01D0928C120003B002D01C
:101B9000949001D09480120003B002D0949201D0AE
:101BA0009482120003B002D0949401D09484120065
:101BB00003B002D0949601D09486120003B002D0F4
:101BC000959001D09580120003B002D0959201D07B
:101BD0009582120003B002D0959401D09584120032
:101BE00003B002D0959601D09586120003B002D0C2
:101BF000949801D09488120003B002D0949A01D036
:101C0000948A120003B002D0949C01D0948C1200EC
:101C100003B002D0949E01D0948E120003B002D083
:101C2000959801D09588120003B002D0959A01D002
:101C3000958A120003B002D0959C01D0958C1200B9
:101C400003B002D0959E01D0958E120003B002D051
:101C5000939001D09380120003B002D0939201D0F0
:101C60009382120003B002D0939401D093841200A7
:101C700003B002D0939601D09386120003B002D035
:101C8000939801D09388120003B002D0939A01D0A8
:101C9000938A120003B002D0939C01D0938C12005F
:101CA00003B002D0939E01D0938E12000450020A1A
:101CB000D8B42AD7010AD8B42DD7070AD8B430D758
:101CC000010AD8B433D7030AD8B436D7010AD8B436
:101CD00039D70F0AD8B43CD7010AD8B43FD7030A82
:101CE000D8B442D7070AD8B445D7030AD8B448D7DE
:101CF000010AD8B44BD71F0AD8B44ED7010AD8B4BA
:101D000051D7030AD8B454D7010AD8B457D7070A11
:101D1000D8B45AD7010AD8B45DD7030AD8B460D76B
:101D2000010AD8B463D70F0AD8B466D7010AD8B469
:101D300069D7030AD8B46CD7010AD8B46FD7070A99
:101D4000D8B472D7010AD8B475D7030AD8B478D7F3
:101D50003F0AD8B47BD7030AD8B47ED7010AD8B4D7
:101D600081D7070AD8B484D7010AD8B487D7030A21
:101D7000D8B48AD7010AD8B48DD70F0AD8A41200D4
:101D80008FD7056ED2D003B002D0899001D0898060
:101D9000120003B002D0899201D08982120003B0F0
:101DA00002D0899401D08984120003B002D08996B0
:101DB00001D08986120003B002D0899801D08988A9
:101DC000120003B002D0899A01D0898A120003B0B0
:101DD00002D08D9001D08D80120003B002D08D9280
:101DE00001D08D82120003B002D08D9401D08D8479
:101DF000120003B002D0899E01D0898E120003B078
:101E000002D0899C01D0898C120003B002D08B9043
:101E100001D08B80120003B002D08B9201D08B8254
:101E2000120003B002D08B9401D08B84120003B057
:101E300002D08B9601D08B86120003B002D08C901A
:101E400001D08C80120003B002D08C9201D08C8221
:101E5000120003B002D08C9401D08C84120003B025
:101E600002D08C9601D08C86120003B002D08B98E1
:101E700001D08B88120003B002D08B9A01D08B8ADC
:101E8000120003B002D08B9C01D08B8C120003B0E7
:101E900002D08B9E01D08B8E120003B002D08C98A2
:101EA00001D08C88120003B002D08C9A01D08C8AA9
:101EB000120003B002D08C9C01D08C8C120003B0B5
:101EC00002D08C9E01D08C8E120003B002D08A907A
:101ED00001D08A80120003B002D08A9201D08A8297
:101EE000120003B002D08A9401D08A84120003B099
:101EF00002D08A9601D08A86120003B002D08A9856
:101F000001D08A88120003B002D08A9A01D08A8A4E
:101F1000120003B002D08A9C01D08A8C120003B058
:101F200002D08A9E01D08A8E12000550020AD8B4CF
:101F30002AD7010AD8B42DD7070AD8B430D7010A56
:101F4000D8B433D7030AD8B436D7010AD8B439D7AE
:101F50000F0AD8B43CD7010AD8B43FD7030AD8B483
:101F600042D7070AD8B445D7030AD8B448D7010ADC
:101F7000D8B44BD71F0AD8B44ED7010AD8B451D71A
:101F8000030AD8B454D7010AD8B457D7070AD8B42B
:101F90005AD7010AD8B45DD7030AD8B460D7010A6A
:101FA000D8B463D70F0AD8B466D7010AD8B469D7B2
:101FB000030AD8B46CD7010AD8B46FD7070AD8B4CB
:101FC00072D7010AD8B475D7030AD8B478D73F0AB4
:101FD000D8B47BD7030AD8B47ED7010AD8B481D746
:101FE000070AD8B484D7010AD8B487D7030AD8B46B
:101FF0008AD7010AD8B48DD70F0AD8A412008FD778
:10200000000E0001A16F000E00019E6F20EEB3F0E4
:10201000400EDF6408D020EEB3F0C00EDF6003D0C6
:10202000010E00019E6F34C003F035C004F09FEC38
:102030001AF00009D8A402D0000E120034C0A2F099
:1020400035C0A3F036C0A4F0000E0001A56FA20EAB
:10205000126E000E136E51EC13F0A2C02AF0A3C052
:102060002BF0A4C02CF0A5C02DF0B2EC15F00001AF
:10207000A16F3604D8A452D00001A1510001D8B4F8
:102080004DD034500001A21949E135500001A31987
:10209000D8A444D000019E510001D8B43FD0AD0E69
:1020A00000019F6F000E0001A06F000120EE06F0FE
:1020B0009F51D926A051DA22C10EDF6E9FC0D9FFF1
:1020C000A0C0DAFF000100EE02F09F51E926A05106
:1020D000EA22DECFEEFFDDCFEDFF9FC0D9FFA0C02B
:1020E000DAFFDECFA2F0DDCFA3F0010E0001A46F76
:1020F000000E0001A56FA20E126E000E136E51ECC1
:1021000013F0080EE8CFD8F0A2C02AF0A3C02BF03D
:10211000A4C02CF0A5C02DF0B2EC15F00001A15127
:102120000001D8B492D034500001A21905E1355015
:102130000001A319D8B489D03650D8B404D0030E06
:102140003618D8A482D000019E510001D8B47DD0A9
:1021500020EED0F0DFA416D0A7C017F0A8C018F06A
:10216000A9C019F0AAC01AF0000E1B6E04EC15F0FD
:10217000D0C0E8FFFB0BE8CFD0F0000E156E000ECC
:10218000DBEC18F0B0EC18F067EC1CF003C09AF030
:1021900004C09BF005C09CF006C09DF050D09AC0D2
:1021A00080F09BC081F09CC082F09DC083F0000154
:1021B000801F811F821F831F802B000E812382239B
:1021C000832367EC1CF00001805103240001846F1D
:1021D0000001815104200001856F0001825105201A
:1021E0000001866F0001835106200001876F20EEF9
:1021F000ABF0DECF88F0DDCF89F00001885100011F
:102200008A6F0001895100018B6F00018C6B000106
:102210008D6B0001845100018A5D00018551000130
:102220008B590001865100018C5900018751000132
:102230008D59D8B004D0000E0001A16F06D0E5EC96
:102240000AF0C10E6B18D8A4AAD720EED0F0DFA4F4
:10225000B0EC18F00001A1511200000E1D6E000E2E
:102260001C6ED8EC1BF00009D8B412000FC003F0AC
:1022700010C004F0E00E056E000E066E000E086E33
:10228000080E076E47EC1AF01C0E036E000E046E6B
:10229000E80E056E000E066E000E086E020E076E4A
:1022A00047EC1AF013501410D8B418D01C50135C1B
:1022B0001D501458D8A004D01CC013F01DC014F039
:1022C00011C003F012C004F0EA0E056E000E066E97
:1022D00013C007F014C008F047EC1AF00A0E1C24D3
:1022E000156E000E1D20166E21EE7AF01550DE5E82
:1022F0001650DD5A000E1B6E1C500A0F030B1B6E8E
:102300001B50D8B40CD01B500008040F1B6E1B5080
:10231000010D21EE7AF0F350DE5EF450DD5AE00E4E
:10232000036E000E046E1B50010D0A0E1C24156E68
:10233000000E1D20166EA60E176E000E186E3A0EB9
:102340001726000E18221550172616501822F35083
:102350001724056EF4501820066E1CC019F01DC01D
:102360001AF0191E1A1E194A1A2A9A0E1924076EF3
:10237000000E1A20086E62EC15F0120020EE64F0D8
:1023800000EE0CF0040EDBCFEBFFE806FCE20C0ED7
:10239000146E000E156E010E136E03C011F004C012
:1023A00012F027D00550D8A404D003500410D8A4AC
:1023B00016D0070E1114086E000E1214096E5D0E71
:1023C0000824D96E000E0920DA6E1350010DF35067
:1023D0001424E96EF4501520EA6EDFCFEFFFD89099
:1023E00012321132D89012321132D8901232113288
:1023F000132A11501210D8A4D5D70550D8A404D050
:1024000003500410D8A40DD00550010D5D0EF32427
:10241000D96E000EF420DA6E14C0E9FF15C0EAFF91
:1024200017D0FF0E086EFF0E096E13500A6E0B6A6E
:1024300008500A2609500B225D0E0A24D96E000EA0
:102440000B20DA6E00EE01F01450E9261550EA2256
:10245000DFCFEFFF000E166E040E166401D01200DF
:102460001650086E096A081E091E084A092A040E39
:102470000826000E09220C0E0824D96E000E092031
:10248000DA6E1650010DF3500624E96EF450072061
:10249000EA6EDFCFEFFF162ADFD71F6E000E1E6E2B
:1024A000040E1E6401D01DD01E50176E186A171E30
:1024B000181E174A182A040E1726000E1822175045
:1024C0001524D96E18501620DA6E1E50010D190E03
:1024D000F324E96E000EF420EA6EDFCFEFFF1E2A30
:1024E000DFD71F50D8A40DD0440E036E000E046E2B
:1024F000190E056E000E066E49C007F0086A47EC1B
:102500001AF0070E1F601200020E1F6013D0190E82
:10251000106E000E116E49C012F01F50010D070E13
:10252000F324F66E100EF420F76E0800F550D5EC8B
:102530001AF012D0190E106E000E116E010E126EEE
:102540001F50010D070EF324F66E100EF420F76EE7
:102550000800F550D5EC1AF042C012F01F50010DE2
:10256000010EF324F66E100EF420F76E0800F550FD
:10257000E9EC1BF01F50010D0D0EF324F66E100E4A
:10258000F420F76E0800F5CF17F0010E186E172A29
:1025900002D0D8901836172EFCD7020EF9EC1BF09B
:1025A0001810126E020EE9EC1BF0120012C018F0A7
:1025B00013C019F014C01AF015C01BF018C003F0B6
:1025C00019C004F01AC005F01BC006F016C007F0D1
:1025D00017C008F0000E08BEFF0E096E0A6E85ECEB
:1025E00016F003C018F004C019F005C01AF006C0B8
:1025F0001BF0104A112A185019101A101B10D8A4D9
:10260000DDD710C0D9FF11C0DAFF000EDF6E100653
:10261000D8A0110612C003F013C004F014C005F0D6
:1026200015C006F016C007F017C008F0000E08BE6F
:10263000FF0E096E0A6EECEC17F003501C6E12C010
:1026400003F013C004F014C005F015C006F016C066
:1026500007F017C008F0000E08BEFF0E096E0A6EE4
:1026600085EC16F003C012F004C013F005C014F09E
:1026700006C015F0090E1C6402D0070E1C26300E91
:102680001C2610C0D9FF11C0DAFF1CC0DFFF1006E6
:10269000D8A011061250131014101510D8B412003F
:1026A000B9D712C01CF013C01DF0020E1224196E0F
:1026B000000E13201A6E030E1224156E000E132046
:1026C000166EDBC017F0DCC018F0DDC01BF019C0BF
:1026D000D9FF1AC0DAFF010EDF6410D01CC0D9FF89
:1026E0001DC0DAFFDECF17F0DDCF18F015C0D9FF1F
:1026F00016C0DAFF010EDF6E000E16D01CC0D9FF27
:102700001DC0DAFFDECF09F0DDCF0AF01FEC18F0B4
:102710000009D8B40BD01CC0D9FF1DC0DAFFDECF32
:1027200017F0DDCF18F01DD01B6E1DD01CC0D9FFD7
:102730001DC0DAFFDECF03F0DDCF04F04FEC1BF05D
:102740000009D8B410D01CC0D9FF1DC0DAFFDECFFD
:1027500003F0DDCF04F0BAEC1AF003C017F004C0A8
:1027600018F0050EE1D71CC0D9FF1DC0DAFF17C055
:10277000DEFF18C0DDFF19C0D9FF1AC0DAFF1BC089
:10278000DFFF12000C680D68000E096E0AD0D890A9
:102790000C360D36D8900C360D36D8900C360D36DA
:1027A000092A20EED6F0DECF03F0DDCF04F00C5086
:1027B00003160D50041603500410D8A4E8D720EED9
:1027C000D5F009C0DFFF0C1C036E0D1C046E03C0A6
:1027D000DEF004C0DFF020EEDEF0DECF03F0DDCF70
:1027E00004F0D89004320332D89004320332D890E7
:1027F0000432033203C00AF004C00BF020EED6F01E
:10280000DECF03F0DDCF04F00A5003160B500416A0
:1028100003C0DBF004C0DCF0D6C005F0D7C006F082
:102820000AC007F00BC008F012D0D890063205326B
:10283000D89006320532D89006320532D890083248
:102840000732D89008320732D89008320732075042
:102850000810D8A4EAD720EEDDF005C0DFFF120093
:10286000286E20C003F021C004F09FEC1AF000098C
:10287000D8B4120020C0D6F021C0D7F030EC1CF044
:102880000009D8B412002828D8B403D028508EEC00
:102890001BF0000E156E000EDBEC18F0A1EC1BF027
:1028A000D6C003F0D7C004F0000E066E060E056E0B
:1028B000C6EC19F0D8900334050F276E050E156E7F
:1028C0002750C7EC1BF0190EE8CFA7F0000EE8CF99
:1028D000A8F0000EE8CFA9F0000EE8CFAAF0A7C03C
:1028E00003F0A8C004F0000E066E030E056E7BEC2C
:1028F0001BF003C0ABF004C0ACF0C2EC13F0060E4A
:10290000296E13D020C003F021C004F029C005F0C7
:10291000220E066E000E076EBEEC11F0220E156E32
:10292000000E166E29504DEC12F029062928D8A465
:10293000E9D7B0EC18F01200000E1A6E3D503E18A8
:10294000D8B405D0000E036E3D5082EC0DF03D5022
:102950003E18D8B405D0000E036E3E5082EC0DF048
:1029600016EC1CF0000E52EC1CF0010E5DEC1CF09D
:10297000000E046E050E036EA1EC19F00C0E126E23
:10298000000EE9EC1BF00F0E156E050EC7EC1BF0E8
:10299000020EB9EC17F00009D8B402D0010E416E56
:1029A000060EF9EC1BF01A6E000EB9EC17F03CECB9
:1029B0001CF0000E126E1D0EE9EC1BF0000E126EE4
:1029C0001C0EE9EC1BF0700E126E070EE9EC1BF00A
:1029D0004C0E8EEC1BF085EC1CF095EC1CF0B4EC6E
:1029E0001BF0000EF9EC1BF0FE0B126E000EE9EC72
:1029F0001BF0000E196E1A50D8B412001A28D8B461
:102A00001200010E196E12001B50D8B405D051EC03
:102A100018F0010E52EC1CF067EC1CF003C024F01F
:102A200004C025F005C026F006C027F040D089EC90
:102A30001CF01C6E1CA83BD0100E126E070EE9ECA9
:102A40001BF0000E52EC1CF0010E52EC1CF024C0E6
:102A50001CF025C01DF026C01EF027C01FF01C1E54
:102A60001D1E1E1E1F1E1C2A000E1D221E221F229E
:102A700067EC1CF01C500324206E1D500420216EB6
:102A80001E500520226E1F500620236E1750205C1A
:102A900018502158195022581A502358D8A007D03E
:102AA000000E52EC1CF095EC1CF0000E1200170EFC
:102AB000F9EC1BF01C6E1CA8BAD7000E52EC1CF0EF
:102AC000010E120005C00DF006C00EF003C00BF0A1
:102AD00004C00CF00B500D5C0C500E58D8B02CD02C
:102AE00007500D24096E08500E200A6E09500B5C29
:102AF0000A500C58D8B020D007500D2608500E228E
:102B000007500B2608500C220D06D8A00E060DC04B
:102B1000D9FF0EC0DAFF0B06D8A00C060BC0E9FFE8
:102B20000CC0EAFFDFCFEFFF0706D8A0080607506A
:102B30000810D8B41200E8D707500810D8B4120013
:102B40000DC0D9FF0EC0DAFF0BC0E9FF0CC0EAFFD1
:102B5000DFCFEFFF0D4A0E2A0B4A0C2A0706D8A03A
:102B60000806EAD7000E336E2AC003F02BC004F02B
:102B70002CC005F02E0E066E000E076EBEEC11F096
:102B800020EED0F0DFA451EC18F02D50D8B406D0D0
:102B9000000E156E000EDBEC18F005D0010E156E60
:102BA000000EDBEC18F02E0E156E000E166E7EEC8D
:102BB00017F0AD0E256E000E266ED8C027F0000E61
:102BC000286E27EC1AF0336E20EED0F0DFB412D06E
:102BD000A7C017F0A8C018F0A9C019F0AAC01AF031
:102BE000000E1B6E04EC15F0336E000E156E000E19
:102BF000DBEC18F03350120010C018F011C019F0BF
:102C00004250125CD8A003D042C01AF002D012C0C9
:102C10001AF01B6A1AC012F04350D8A40ED01250FA
:102C2000146E156A141E151E144A152A42501424D7
:102C30001C6E000E15201D6E04D0000E1D6E000EC1
:102C40001C6E1CC017F091EC1CF0135070EC1CF0C3
:102C5000166E09D018C0D9FF19C0DAFFDF5070EC2A
:102C60001CF0184A192A12061228D8B404D0F2D738
:102C7000000E70EC1CF017061728D8A4F9D78DECBD
:102C80001CF01200E5EC0AF03AD0290E0F6E000E8F
:102C9000106E310E116E000E126E000E146E080EC4
:102CA000136E2DEC11F03B0E216E100E226E43ECD4
:102CB00017F035C01DF036C01EF037C01FF038C009
:102CC00020F038EC1BF01DC021F01EC022F043ECB8
:102CD00017F04D0E216E100E226E43EC17F031C02E
:102CE0001DF032C01EF033C01FF034C020F038ECAD
:102CF0001BF01DC027F01EC028F023EC1CF0D8EC00
:102D00001BF00009D8B41200C0D7000E0B6E000EE5
:102D10000C6E000E0D6E000E0E6E0750081009109E
:102D20000A10D8B42AD0010E0F6E06D0D8900736FC
:102D3000083609360A360F2A0AAEF8D7D8900B366D
:102D40000C360D360E360750035C085004580950F7
:102D500005580A500658D8A009D00750035E0850FD
:102D6000045A0950055A0A50065A0B80D8900A3264
:102D70000932083207320F2EE1D70BC003F00CC026
:102D800004F00DC005F00EC006F0120010C017F0E0
:102D900011C018F01250425CD8A042C012F043504B
:102DA000D8A40ED01250136E146A131E141E134AA8
:102DB000142A42501324196E000E14201A6E04D0E7
:102DC000000E1A6E000E196E19C016F091EC1CF070
:102DD000610E70EC1CF0156E0AD0FF0E70EC1CF04A
:102DE00017C0D9FF18C0DAFFDF6E174A182A12067B
:102DF0001228D8B404D0F1D7FF0E70EC1CF01606E0
:102E00001628D8A4F9D78DEC1CF01200948C948E5F
:102E1000000E036E480E046EE80E056E010E066E7F
:102E200010C014F011C015F012C016F013C017F046
:102E3000020ED8901436153616361736E82EF9D706
:102E400014C007F015C008F016C009F017C00AF04A
:102E500085EC16F0FF0E0324106EFF0E0420116E99
:102E6000FF0E0520126EFF0E0620136E10C0AFFF7E
:102E700011C0B0FFAC9CAC98AC84B886AB9CAB885E
:102E8000AC8AAB8E1200000E266E000E256E1BD093
:102E900025502124236E26502220246E23C0F6FFC5
:102EA00024C0F7FF000EF86E0F0EF76403D0080081
:102EB000F55005D0F6CFE9FFF7CFEAFFEF507FECF2
:102EC0001CF0254A262A25502124236E2650222034
:102ED000246E23C0F6FF24C0F7FF000EF86E0F0E1D
:102EE000F76403D00800F55005D0F6CFE9FFF7CF1F
:102EF000EAFFEF500009D8B41200CAD7000E1E6EC8
:102F0000040E1E6401D01DD01E50176E186A171EC5
:102F1000181E174A182A040E1726000E18221750DA
:102F20001524D96E18501620DA6E1E50010D190E98
:102F3000F324E96E000EF420EA6EDFCFEFFF1E2AC5
:102F4000DFD7190E106E000E116E49C012F00A0E76
:102F5000D5EC1AF0190E106E000E116E49C012F069
:102F6000100ED5EC1AF042C012F0110EE9EC1BF075
:102F70001200166E000E156E060EF9EC1BF0176EA1
:102F8000D70E1716550E4A6E000E4B6E000E4C6E85
:102F9000000E4D6E020E1618D8A403D0178A9B0E91
:102FA00005D01604D8A409D01786410E4A6E000E2B
:102FB0004B6E000E4C6E000E4D6E17C012F0060EDA
:102FC000E9EC1BF0060EF9EC1BF01718D8A402D0A0
:102FD000010E156E155012000750081009100A1046
:102FE000D8B424D0010E0B6E06D0D8900736083620
:102FF00009360A360B2A0AAEF8D70750035C085088
:103000000458095005580A500658D8A008D007504F
:10301000035E0850045A0950055A0A50065AD890BF
:103020000A320932083207320B2EE7D703C003F009
:1030300004C004F005C005F006C006F01200000E42
:10304000116E09C003F00AC004F04FEC1BF0000938
:10305000D8B425D020EEDEF0DECF0BF0DDCF0CF0C3
:103060000B1C0D6E0C1C0E6ED8900D360E36D890C3
:103070000D360E36D8900D360E360DC00FF00EC040
:1030800010F00F5009140B6E10500A140C6E0B50F8
:103090000C10D8A402D0010E01D0000E116E1150F8
:1030A0001200000E52EC1CF04A50E7EC19F01D0E15
:1030B000F9EC1BF0156E15A205D04A50E7EC19F09B
:1030C00095EC1CF0000EF9EC1BF0FE0B126E000EDE
:1030D000E9EC1BF00D0EF66E100EF76E0800F5CF42
:1030E00015F0010E166E152A02D0D8901636152E40
:1030F000FCD7020EF9EC1BF01610126E020EE9EC72
:103100001BF01200E00EE8CF7AF1000EE8CF7BF161
:10311000880EE8CF86F1010EE8CF87F17C0EE8CF6C
:10312000CDF0010EE8CFCEF0000EE8CFD1F0000ECA
:10313000E8CFD2F0000EE8CFD3F0000EE8CFD4F005
:10314000000EE8CFD0F0000EE8CFCFF0000EE8CFB1
:10315000A6F0180EE8CFD9F0000EE8CFDAF0120092
:10316000B4EC1BF0000EF9EC1BF00109126E000E1E
:10317000E9EC1BF0700E126E070EE9EC1BF0010E6D
:1031800052EC1CF04450D8B40AD0440E106E000E1D
:10319000116E49C012F00A0ED5EC1AF003D0000EE1
:1031A00007EC1AF01D0EF9EC1BF0196E19A21200B3
:1031B00095EC1CF01200196E070E19601200010E3A
:1031C000F9EC1BF0186E1550D8B40DD019C016F0DC
:1031D000010E176E162A02D0D8901736162EFCD77D
:1031E000175018120DD019C016F0010E176E162ABE
:1031F00002D0D8901736162EFCD71750FF0A181693
:1032000018C012F0010EE9EC1BF01200000E096E5E
:10321000000E086E05500610D8B41CD0010E076EC3
:1032200004D0D89005360636072A06AEFAD7D890CD
:10323000083609360550035C06500458D8A005D05E
:103240000550035E0650045A0880D89006320532B5
:10325000072EEDD708C003F009C004F01200230EBA
:10326000036E240E20EC1BF082EC18F0000E106EA2
:10327000E10E116E000E126E000E136E06EC17F0CA
:10328000170E276E100E286E23EC1CF09CEC14F029
:10329000150EF66E100EF76E0900F5CF20F00A003D
:1032A000F5CF21F05A0E30EC14F01200086E000E2B
:1032B0000A6E010E096E0850D8B414D00804030D2C
:1032C000F3CF05F009C006F00AC007F0052A03D0C5
:1032D000D89006360736052EFBD706C009F007C082
:1032E0000AF005D0000E046E000E036E120009C035
:1032F00003F00AC004F0120000EEA6F021EE72F016
:10330000EE6ADD50D950FCE1DA50FAE100EE39F016
:10331000240EEE6AE806FDE1F00EF66E380EF76E4A
:10332000000EF86E00EE5DF020EE0EF00900F5CF15
:10333000EEFFDD50D950FAE1000EF86E000108EF03
:103340001BF0000E066E000E056E19D0000E086E02
:10335000000E076E200E075C030E0858D8B00DD083
:1033600000F000F000F000F000F000F000F000F0DD
:1033700000F000F0074A082AEDD7054A062A035054
:10338000055C04500658D8B01200E0D7055006106E
:10339000D8B418D0010E076E04D0D8900536063682
:1033A000072A06AEFAD70550035C06500458D8A089
:1033B00004D00550035E0650045AD89006320532F8
:1033C000072EF1D703C003F004C004F012000A6E08
:1033D000000E0C6E000E0B6E10D0000E0E6E000E66
:1033E0000D6E0E5008E1080E0D5CD8B004D000F050
:1033F0000D4A0E2AF6D70B4A0C2A0A50036E046AAD
:1034000003500B5C04500C58D8B01200E6D7186E6D
:103410001850010D0D0EF324F66E100EF420F76E09
:103420000800F5CF15F0010E166E152A02D0D890BF
:103430001636152EFCD71650FF0A176E020EF9EC41
:103440001BF01714126E020EE9EC1BF012000CD0E8
:1034500089EC1CF0296E29A807D0100E126E070EF9
:10346000E9EC1BF0000E120089EC1CF0296E29B06B
:10347000EFD725C01EF026C01FF027C020F028C0BF
:1034800021F0010E226E83EC1AF0010E120005C02D
:103490000BF006C00CF003C009F004C00AF00ED017
:1034A0000BC0D9FF0CC0DAFF09C0E9FF0AC0EAFF70
:1034B000DFCFEFFF0B4A0C2A094A0A2A0706D8A0D9
:1034C00008060728EDE10828D8B41200E9D7000E55
:1034D000136E91EC1CF0600E70EC1CF0FF0E70ECA3
:1034E0001CF0136E8DEC1CF0200E13640AD085ECDA
:1034F0001CF0000E046E020E036EA1EC19F0000E1B
:103500001200135012002150D8A404D0000E246ED3
:10351000A00E03D0000E246EB00E236E1EC010F05D
:103520001FC011F020C012F023C013F0FCEC15F006
:103530002250D8B41200010E52EC1CF01200010E01
:10354000066E12D00350070B056E050E056403D0FE
:10355000000E066E0DD0D89004320332D89004329B
:103560000332D8900432033203500410D8A4EAD7AF
:1035700006501200070E20EEDEF0DECF05F0DDCFA4
:1035800006F0D89005360636D89005360636D8901F
:10359000053606360510076E0650086E07500314F0
:1035A000036E08500414046E1200146E91EC1CF0AB
:1035B00014501F0B200970EC1CF0136E09D010C0C2
:1035C000D9FF11C0DAFFDF5070EC1CF0104A112A4D
:1035D00012061228D8A4F3D78DEC1CF01200170E97
:1035E000F9EC1BF0146E14B011D012501310D8B4B3
:1035F0000BD089EC1CF0156ED8901530070B12C05B
:10360000D9FF13C0DAFFDF6E010E1200000E1200A8
:10361000000E396E000E3A6E000E3B6E000E3C6ED0
:10362000D59CD59AD586000ED76EC00ED66EF29474
:10363000F28EF28AD58E2FEC19F042EC16F0FDD7FF
:10364000046E04C03DF003C03EF0000E416E200E3B
:10365000426E000E436E050E496E050E4E6E000E54
:103660004F6E000E506E000E516E000E446E120032
:10367000530E106E000E116E1DC012F01EC013F01E
:103680001FC014F020C015F0000E176E0A0E166E43
:10369000D6EC12F0530E1D6E000E1E6E120020EEC0
:1036A000D6F000EEDEF0EECF07F0EDCF08F00350DD
:1036B000071604500816DE50071806E1DE500818F9
:1036C000D8A402D0010E1200000E1200060016EE61
:1036D00090F0F2A40BD0E00ED76EC00ED66E010EA5
:1036E0003926000E3A223B223C22F29402C0E2FF2D
:1036F00001C0E1FF110003500502F3CF07F0F4CF42
:1037000008F003500602F350082604500502F35057
:10371000082607C003F008C004F01200176E7D0EE3
:10372000186E1850175CD8A003D018C015F002D03E
:1037300017C015F0166A15C012F0050EE9EC1BF063
:1037400012001D0EF9EC1BF00409126E1D0EE9ECBF
:103750001BF01C0EF9EC1BF03F09126E1C0EE9EC7D
:103760001BF0010E436E1200000EF9EC1BF0156EFB
:1037700015B2120015500209126E000EE9EC1BF092
:10378000000E046E050E036EA1EC19F01200186E07
:1037900015C016F00F0E161618C017F00F0E1716DC
:1037A0001738F00B1610126E040EE9EC1BF0120025
:1037B00021EE7AF0DECF03F0DDCF04F004500008F4
:1037C00002E10350E008D8B002D0010E1200000E52
:1037D0001200136E91EC1CF013501F0B200970ECBB
:1037E0001CF0146E125070EC1CF08DEC1CF0145098
:1037F0001200106E91EC1CF010501F0B70EC1CF0BE
:10380000FF0E70EC1CF0116E8DEC1CF011501200CC
:103810001BC010F01CC011F01DC012F0C6EC16F059
:10382000700E126E070EE9EC1BF01200948894964D
:10383000949AC69AC78CC698C79EC650F00B0109C9
:10384000C66EC68A120027C021F028C022F043ECC1
:1038500017F0520E216E100E226E43EC17F012007C
:10386000000E036E3D28D8B405D03E28D8B402D04F
:10387000010E036E0350120091EC1CF0500E70EC20
:103880001CF0730E70EC1CF08DEC1CF01200106E2E
:1038900091EC1CF0105070EC1CF0116E8DEC1CF0D3
:1038A00011501200066E3D503E18D8B4120006C0EA
:1038B00003F03D50C1EC0EF012000F6E0FC003F08C
:1038C0003E50C1EC0EF04E50E7EC19F0120039C03A
:1038D00003F03AC004F03BC005F03CC006F0120013
:1038E000036EC79003C0C9FFC7A0FED7C95012001E
:1038F000C33C33CE3EE3ECCCCCCCCCCC0100036E4D
:1039000003C0ADFFACB21200FDD7E20E47EC1CF0D5
:103910001200FF0E47EC1CF01200010E5DEC1CF0D3
:103920001200000E5DEC1CF01200E10E47EC1CF0E2
:02393000120083
:020000040020DA
:08000000FFFFFFFFFFFFFFFF00
:020000040030CA
:0E000000FF06181EFF8180FF0FC00FE00F40AB
:00000001FF
