:040000000AEF00F013
:10000800E1CF01F0E2CF02F074ED1BF012EE1BF02D
:040018008AEF19F062
:10100000001112131415160A0B0C0D0E0F0001021D
:1010100003040501000000524632344E6574776FB8
:10102000726B2F6578616D706C65732F68656C6C81
:101030006F776F726C645F72782F005265636569B9
:10104000766564207061636B657420230020617491
:1010500020000D0A0000000E246EDBC019F0F80E0F
:101060001924256E266AFF0E2622010E236E20EE1D
:1010700006F01750D9261850DA22940EDE18D8B48C
:1010800020D020EE06F01750D9261850DA22950EFF
:10109000DE18D8B416D020EE06F01750D926185016
:1010A000DA22960EDE18D8B40CD020EE06F01750D7
:1010B000D9261850DA22C80EDE18D8B402D0000E95
:1010C000236E23C020F02050D8B4D5D120EE06F0F6
:1010D0001750D9261850DA22940EDE18D8A4A3D0BF
:1010E00020EE07F01750D9261850DA22DF50196E7B
:1010F000000E046E0A0E036EDCC005F0DDC006F0C3
:1011000014EC19F0031E041E034A042A9A0E032647
:10111000000E04221950035C000E0458D8B005D00C
:10112000000EE8CF86F1000E120020EE04F01750FA
:10113000D9261850DA2201EE83F0DE50EE1813E1C2
:10114000DE50EE18D8A40FD017C0D9FF18C0DAFFB0
:1011500001EE7FF0DE50EE1806E1DE50EE18D8A466
:1011600002D0010E120020EE07F01750D9261850B9
:10117000DA22DF50196E1950180D21EE7DF0DECF06
:101180001AF0DDCF1BF0A90E1C6E000E1D6E3A0E7C
:101190001C26000E1D221C1E1D1E1C4A1D2A1A5034
:1011A0001C261B501D221C1E1D1E1C4A1D2A900E93
:1011B0001C26000E1D22F3501C5C1D50800A1E6E62
:1011C000F450800A1E58D8B007D0D3C0E8FF0109F8
:1011D000E8CFD3F05FEC18F07F0E036E010E046EC3
:1011E000B00E056E000E066E000E086E080E076E3D
:1011F00055EC1AF089C103F08AC104F0B80E056EEF
:10120000000E066E25C007F026C008F055EC1AF057
:1012100025C087F126C088F186C1E8FFFF0FE8CF1F
:1012200086F1010E120020EE06F01750D926185054
:10123000DA22960EDE18D8B414D020EE06F017503D
:10124000D9261850DA22950EDE18D8B40AD020EE2E
:1012500006F01750D9261850DA22C80EDE18D8A486
:101260002ED121EE87F0DECF19F0DDCF1AF0255018
:10127000192626501A221A5004E1910E195CD8A0A2
:1012800005D0000EE8CF86F1000E120021EE86F0A8
:10129000DF50D8B425D020EE06F01750D9261850CC
:1012A000DA22960EDE18D8B40CD021EE86F000EECD
:1012B00007F01750E9261850EA22DE50EE18D8A49D
:1012C0000FD020EE04F01750D9261850DA2201EE84
:1012D00083F0DE50EE1804E1DE50EE18D8B402D0F0
:1012E000000E120021EE87F0DECF19F0DDCF1AF0EC
:1012F00021EE89F0DECF1BF0DDCF1CF019501B244E
:10130000036E1A501C20046EB80E056E000E066E99
:1013100025C007F026C008F055EC1AF021EE87F042
:101320002550DE262650DD2220EE06F01750D92665
:101330001850DA22960EDE18D8B407D086C1E8FF1E
:10134000FF0FE8CF86F1010E1200000EE8CF86F104
:1013500020EE07F01750D9261850DA22DF50196E08
:1013600019C085F185C1E8FF830AD8A402D0020E16
:10137000120021EE87F001EE7DF0EECF1BF0EDCFF5
:101380001CF0A90E1D6E000E1E6E3A0E1D26000EDC
:101390001E221D1E1E1E1D4A1E2A1B501D261C50CD
:1013A0001E221D1E1E1E1D4A1E2A900E1D26000EE8
:1013B0001E22DE501D5C1E50800A1F6EDE50800A09
:1013C0001F58D8A04FD07DC103F07EC104F07F0E1E
:1013D000056E010E066E000E086E0A0E076E55ECC5
:1013E0001AF021EE7DF0DECF19F0DDCF1AF00A0EF3
:1013F0001924036E000E1A20046E89C105F08AC1FB
:1014000006F087C107F088C108F055EC1AF021EE0C
:1014100087F0DECF19F0DDCF1AF00A0E1926000E84
:101420001A2221EE7DF01950DE261A50DD2201012C
:1014300087510A0F030B216E2150D8B411D02150CF
:10144000196E1A6A191E1A1E194A1A2A040E19262A
:10145000000E1A2221EE7DF01950DE261A50DD22F0
:10146000010E12005FEC18F0D3C0E8FF0109E8CFCD
:10147000D3F0000E120020EE06F01750D9261850B7
:10148000DA22830EDE18D8A41AD07F0E036E010E66
:10149000046EB00E056E000E066E000E086E080E8D
:1014A000076E55EC1AF0B80EE8CF89F1000EE8CFC0
:1014B0008AF125C087F126C088F1020E120021EEC4
:1014C0007DF0DECF19F0DDCF1AF0A90E1B6E000EF5
:1014D0001C6E3A0E1B26000E1C221B1E1C1E1B4AD5
:1014E0001C2A19501B261A501C2225501B26265038
:1014F0001C221CBE06D01C5064E19B0E1B5CD8B0A5
:1015000060D07DC103F07EC104F0B00E056E000E08
:10151000066E000E086E080E076E55EC1AF021EEEE
:101520007DF0DECF19F0DDCF1AF0080E1924036E1E
:10153000000E1A20046E250E056E000E066E000EBB
:10154000086E020E076E55EC1AF021EE7DF0DECF2C
:1015500019F0DDCF1AF00A0E1924036E000E1A20BE
:10156000046EB80E056E000E066E25C007F026C08C
:1015700008F055EC1AF00A0E2524196E000E2620EC
:101580001A6E21EE7DF01950DE261A50DD2225500C
:101590000A0F030B226E2250D8B411D02250196EBC
:1015A0001A6A191E1A1E194A1A2A040E1926000E42
:1015B0001A2221EE7DF01950DE261A50DD22010E8E
:1015C00001D0000E246E24501200070EE126000EFA
:1015D000E222FC0EE36A20EED3F0DFB27FD220EEEF
:1015E000D3F0DFB01ED021EE7DF0DECF71F0DDCF85
:1015F00072F0A90E7A6E000E7B6EE80E786EFF0E0A
:10160000796E7A50785E7B50795A71507826725094
:10161000792279BE63D2795004E19B0E785CD8A020
:101620005DD2E6EC1BF00009D8A406D0D3C0E8FFD9
:10163000FE0BE8CFD3F052D2000E92D191EC1AF00B
:1016400020EEDBF0DF6E080EDF6007D0000E046EC8
:101650000A0E036EAFEC19F041D2B00E216E000EEF
:10166000226EDBC023F016EC1CF0000E706EFB0E39
:1016700070C0E3FFB00E706EFA0E70C0E3FFFA0E9A
:10168000E3CF71F0FB0EE3CF72F0020E7124D96E3E
:10169000000E7220DA6EDECF03F0DDCF04F0ADEC89
:1016A0001AF00009D8B41AD2FA0EE3CF71F0FB0E8B
:1016B000E3CF72F0060E7124D96E000E7220DA6E3E
:1016C000DF507B6EFC0E7BC0E3FF20EED9F0FA0EFC
:1016D000E3CF71F0FB0EE3CF72F0020E7124E96EDE
:1016E000000E7220EA6EDE50EE1803E1DE50EE18B6
:1016F000D8A438D1FA0EE3CF71F0FB0EE3CF72F02D
:10170000060E7124D96E000E7220DA6E820EDE187B
:10171000D8B4E4D1FA0EE3CF71F0FB0EE3CF72F050
:10172000060E7124D96E000E7220DA6E800EDE185D
:10173000D8A44AD020EED9F0240EDE1804E1090E18
:10174000DE18D8B441D0FA0EE3CF71F0FB0EE3CF30
:1017500072F0020E7124D96E000E7220DA6E240E21
:10176000DE6E090EDD6EFA0EE3CF71F0FB0EE3CFF5
:1017700072F0020E7124D96E000E7220DA6EDECF86
:1017800080F0DDCF81F0020E0001826F06EC10F0D8
:10179000000E046E0A0E036EAFEC19F0FA0EE3CFE2
:1017A00071F0FB0EE3CF72F0020E7124D96E000EC1
:1017B0007220DA6EDECF80F0DDCF81F0020E000104
:1017C000826F06EC10F08AD1FA0EE3CF71F0FB0EB7
:1017D000E3CF72F0060E7124D96E000E7220DA6E1D
:1017E000C30EDE18D8A438D020EED9F0DE50DE10BB
:1017F000D8B432D020EED9F0FA0EE3CFE9FFFB0ED9
:10180000E3CFEAFFDECFEEFFDDCFEDFFFA0EE3CF51
:1018100071F0FB0EE3CF72F0020E7124D96E000E50
:101820007220DA6E000EDE6E000EDD6EFA0EE3CF71
:1018300071F0FB0EE3CF72F0020E7124D96E000E30
:101840007220DA6EDECF80F0DDCF81F0000E000175
:10185000826F06EC10F042D120EED2F0DF50D8B407
:101860000FD0FA0EE3CF71F0FB0EE3CF72F0060E4D
:101870007124D96E000E7220DA6E800EDF6010D0F7
:10188000FA0EE3CF71F0FB0EE3CF72F0060E712477
:10189000D96E000E7220DA6EC10EDE18D8A454D0B4
:1018A000FA0EE3CF71F0FB0EE3CF72F0060E712457
:1018B000D96E000E7220DA6E940EDE18D8B444D0C1
:1018C000FA0EE3CF71F0FB0EE3CF72F0060E712437
:1018D000D96E000E7220DA6E950EDE18D8B434D0B0
:1018E000FA0EE3CF71F0FB0EE3CF72F0060E712417
:1018F000D96E000E7220DA6EC80EDE18D8B424D06D
:10190000FA0EE3CF71F0FB0EE3CF72F0060E7124F6
:10191000D96E000E7220DA6E830EDE18D8B414D0A1
:10192000FA0EE3CF71F0FB0EE3CF72F0060E7124D6
:10193000D96E000E7220DA6E960EDE18D8B404D07E
:10194000FC0EE3CF70F0DFD0FA0EE3CF17F0FB0E02
:10195000E3CF18F02BEC08F0020AD8A4BFD0830E16
:10196000706ED1D0FA0EE3CF71F0FB0EE3CF72F0C0
:10197000020E7124D96E000E7220DA6E400EDE184F
:10198000DE10D8A496D0FA0EE3CF71F0FB0EE3CFB1
:1019900072F0060E7124D96E000E7220DA6EC20E3D
:1019A000DE18D8A44CD020EED3F0DFB697D020EECE
:1019B000D9F0240EDE1804E1090EDE18D8B48ED05A
:1019C000FA0EE3CFD9FFFB0EE3CFDAFFFA0EE3CF37
:1019D00071F0FB0EE3CF72F0020E7124E96E000E7F
:1019E0007220EA6EDECFEEFFDDCFEDFF20EED9F004
:1019F000FA0EE3CFE9FFFB0EE3CFEAFFDECFEEFF07
:101A0000DDCFEDFF20EEE0F0DF50036E046AAFECB7
:101A100019F0FA0EE3CF71F0FB0EE3CF72F0020E75
:101A20007124D96E000E7220DA6EDECF80F0DDCF29
:101A300081F0020E0001826F06EC10F04FD0FA0E1A
:101A4000E3CF17F0FB0EE3CF18F02BEC08F07B6E22
:101A5000F90E7BC0E3FF20EEA9F0DF50D8B423D00D
:101A600020EED8F0DF5064EC19F003C071F004C030
:101A700072F0D89071367236D89071367236D8902E
:101A800071367236FE0E71C0E3FFFF0E72C0E3FFC7
:101A9000FE0EE3CF80F0FF0EE3CF81F0040E0001D5
:101AA000826F06EC10F0F90EE3CF70F0020E7018A2
:101AB00054D7FA0EE3CF71F0FB0EE3CF72F0020EB3
:101AC0007124D96E000E7220DA6EDECF80F0DDCF89
:101AD00081F0010E0001826F06EC10F03EEC1CF06C
:101AE0000009D8B42DD7FD0EE124716EFF0EE2205F
:101AF000726E71C014F072C015F0FDEC1AF000099E
:101B0000D8B41ED79BD5F90EE126FF0EE2221200B3
:101B1000046ED2D003B002D0929001D09280120015
:101B200003B002D0929201D09282120003B002D090
:101B3000929401D09284120003B002D0929601D008
:101B40009286120003B002D0929801D092881200BF
:101B500003B002D0929A01D0928A120003B002D050
:101B6000969001D09680120003B002D0969201D0D8
:101B70009682120003B002D0969401D0968412008F
:101B800003B002D0929E01D0928E120003B002D018
:101B9000929C01D0928C120003B002D0949001D09C
:101BA0009480120003B002D0949201D0948212006B
:101BB00003B002D0949401D09484120003B002D0F8
:101BC000949601D09486120003B002D0959001D073
:101BD0009580120003B002D0959201D09582120038
:101BE00003B002D0959401D09584120003B002D0C6
:101BF000959601D09586120003B002D0949801D03A
:101C00009488120003B002D0949A01D0948A1200F2
:101C100003B002D0949C01D0948C120003B002D087
:101C2000949E01D0948E120003B002D0959801D0FA
:101C30009588120003B002D0959A01D0958A1200BF
:101C400003B002D0959C01D0958C120003B002D055
:101C5000959E01D0958E120003B002D0939001D0D2
:101C60009380120003B002D0939201D093821200AD
:101C700003B002D0939401D09384120003B002D039
:101C8000939601D09386120003B002D0939801D0AE
:101C90009388120003B002D0939A01D0938A120065
:101CA00003B002D0939C01D0938C120003B002D0F9
:101CB000939E01D0938E12000450020AD8B42AD702
:101CC000010AD8B42DD7070AD8B430D7010AD8B43E
:101CD00033D7030AD8B436D7010AD8B439D70F0A94
:101CE000D8B43CD7010AD8B43FD7030AD8B442D7F6
:101CF000070AD8B445D7030AD8B448D7010AD8B4DC
:101D00004BD71F0AD8B44ED7010AD8B451D7030A0B
:101D1000D8B454D7010AD8B457D7070AD8B45AD779
:101D2000010AD8B45DD7030AD8B460D7010AD8B481
:101D300063D70F0AD8B466D7010AD8B469D7030AA3
:101D4000D8B46CD7010AD8B46FD7070AD8B472D701
:101D5000010AD8B475D7030AD8B478D73F0AD8B4E3
:101D60007BD7030AD8B47ED7010AD8B481D7070A33
:101D7000D8B484D7010AD8B487D7030AD8B48AD78D
:101D8000010AD8B48DD70F0AD8A412008FD7056ED8
:101D9000D2D003B002D0899001D08980120003B064
:101DA00002D0899201D08982120003B002D08994B6
:101DB00001D08984120003B002D0899601D08986AF
:101DC000120003B002D0899801D08988120003B0B4
:101DD00002D0899A01D0898A120003B002D08D9076
:101DE00001D08D80120003B002D08D9201D08D827F
:101DF000120003B002D08D9401D08D84120003B084
:101E000002D0899E01D0898E120003B002D0899C35
:101E100001D0898C120003B002D08B9001D08B804E
:101E2000120003B002D08B9201D08B82120003B05B
:101E300002D08B9401D08B84120003B002D08B9619
:101E400001D08B86120003B002D08C9001D08C8020
:101E5000120003B002D08C9201D08C82120003B029
:101E600002D08C9401D08C84120003B002D08C96E6
:101E700001D08C86120003B002D08B9801D08B88E1
:101E8000120003B002D08B9A01D08B8A120003B0EB
:101E900002D08B9C01D08B8C120003B002D08B9EA1
:101EA00001D08B8E120003B002D08C9801D08C88A8
:101EB000120003B002D08C9A01D08C8A120003B0B9
:101EC00002D08C9C01D08C8C120003B002D08C9E6E
:101ED00001D08C8E120003B002D08A9001D08A808B
:101EE000120003B002D08A9201D08A82120003B09D
:101EF00002D08A9401D08A84120003B002D08A965C
:101F000001D08A86120003B002D08A9801D08A8854
:101F1000120003B002D08A9A01D08A8A120003B05C
:101F200002D08A9C01D08A8C120003B002D08A9E13
:101F300001D08A8E12000550020AD8B42AD7010AAD
:101F4000D8B42DD7070AD8B430D7010AD8B433D7BC
:101F5000030AD8B436D7010AD8B439D70F0AD8B48F
:101F60003CD7010AD8B43FD7030AD8B442D7070AEE
:101F7000D8B445D7030AD8B448D7010AD8B44BD748
:101F80001F0AD8B44ED7010AD8B451D7030AD8B41F
:101F900054D7010AD8B457D7070AD8B45AD7010A78
:101FA000D8B45DD7030AD8B460D7010AD8B463D7D0
:101FB0000F0AD8B466D7010AD8B469D7030AD8B4CF
:101FC0006CD7010AD8B46FD7070AD8B472D7010A00
:101FD000D8B475D7030AD8B478D73F0AD8B47BD71A
:101FE000030AD8B47ED7010AD8B481D7070AD8B477
:101FF00084D7010AD8B487D7030AD8B48AD7010A8C
:10200000D8B48DD70F0AD8A412008FD7000E0001C4
:10201000A46F000E0001A16F20EEB6F0400EDF6449
:1020200008D020EEB6F0C00EDF6003D0010E000134
:10203000A16F80C003F081C004F0ADEC1AF000097C
:10204000D8A402D0000E120080C0A5F081C0A6F076
:1020500082C0A7F0000E0001A86FA50E126E000E40
:10206000136E5FEC13F0A5C034F0A6C035F0A7C026
:1020700036F0A8C037F0C0EC15F00001A46F0001E5
:102080008205D8A454D00001A4510001D8B44FD087
:10209000000180510001A5194AE1000181510001B0
:1020A000A619D8A444D00001A1510001D8B43FD052
:1020B000B00E0001A26F000E0001A36F000120EE20
:1020C00006F0A251D926A351DA22C10EDF6EA2C0BA
:1020D000D9FFA3C0DAFF000100EE02F0A251E92609
:1020E000A351EA22DECFEEFFDDCFEDFFA2C0D9FF84
:1020F000A3C0DAFFDECFA5F0DDCFA6F0010E000110
:10210000A76F000E0001A86FA50E126E000E136ED1
:102110005FEC13F0080EE8CFDBF0A5C034F0A6C0EA
:1021200035F0A7C036F0A8C037F0C0EC15F00001BC
:10213000A4510001D8B497D0000180510001A51925
:1021400006E1000181510001A619D8B48CD000012C
:1021500082510001D8B405D0030E00018219D8A421
:1021600082D00001A1510001D8B47DD020EED3F07F
:10217000DFA416D0AAC017F0ABC018F0ACC019F09D
:10218000ADC01AF0000E1B6E12EC15F0D3C0E8FFC4
:10219000FB0BE8CFD3F0000E156E000EE9EC18F043
:1021A000BEEC18F075EC1CF003C09DF004C09EF06E
:1021B00005C09FF006C0A0F050D09DC083F09EC027
:1021C00084F09FC085F0A0C086F00001831F841FAB
:1021D000851F861F832B000E84238523862375ECA1
:1021E0001CF00001835103240001876F000184511A
:1021F00004200001886F0001855105200001896FCE
:1022000000018651062000018A6F20EEAEF0DECF7D
:102210008BF0DDCF8CF000018B5100018D6F000140
:102220008C5100018E6F00018F6B0001906B0001DB
:10223000875100018D5D0001885100018E59000118
:10224000895100018F5900018A5100019059D8B07D
:1022500004D0000E0001A46F06D0E5EC0AF0C10E18
:102260007018D8A4AAD720EED3F0DFA4BEEC18F0E3
:102270000001A4511200000E1D6E000E1C6EE6EC53
:102280001BF00009D8B412000FC003F010C004F016
:10229000E30E056E000E066E000E086E080E076E49
:1022A00055EC1AF01C0E036E000E046EEB0E056E5C
:1022B000000E066E000E086E020E076E55EC1AF048
:1022C00013501410D8B418D01C50135C1D5014585F
:1022D000D8A004D01CC013F01DC014F011C003F02E
:1022E00012C004F0ED0E056E000E066E13C007F06E
:1022F00014C008F055EC1AF00A0E1C24156E000EDE
:102300001D20166E21EE7DF01550DE5E1650DD5A52
:10231000000E1B6E1C500A0F030B1B6E1B50D8B413
:102320000CD01B500008040F1B6E1B50010D21EE3A
:102330007DF0F350DE5EF450DD5AE30E036E000EC6
:10234000046E1B50010D0A0E1C24156E000E1D207C
:10235000166EA90E176E000E186E3A0E1726000E96
:1023600018221550172616501822F3501724056E00
:10237000F4501820066E1CC019F01DC01AF0191E6A
:102380001A1E194A1A2A9A0E1924076E000E1A20CC
:10239000086E70EC15F0120020EE69F000EE0CF003
:1023A000040EDBCFEBFFE806FCE20C0E146E000E11
:1023B000156E010E136E03C011F004C012F027D089
:1023C0000550D8A404D003500410D8A416D0070E8A
:1023D0001114086E000E1214096E620E0824D96ED4
:1023E000000E0920DA6E1350010DF3501424E96E2B
:1023F000F4501520EA6EDFCFEFFFD8901232113281
:10240000D89012321132D89012321132132A115050
:102410001210D8A4D5D70550D8A404D00350041066
:10242000D8A40DD00550010D620EF324D96E000E14
:10243000F420DA6E14C0E9FF15C0EAFF17D0FF0ED2
:10244000086EFF0E096E13500A6E0B6A08500A26BA
:1024500009500B22620E0A24D96E000E0B20DA6E90
:1024600000EE01F01450E9261550EA22DFCFEFFF0D
:10247000000E166E040E166401D012001650086E7F
:10248000096A081E091E084A092A040E0826000EB9
:1024900009220C0E0824D96E000E0920DA6E16509F
:1024A000010DF3500624E96EF4500720EA6EDFCFE9
:1024B000EFFF162ADFD71F6E000E1E6E040E1E647D
:1024C00001D01DD01E50176E186A171E181E174A0D
:1024D000182A040E1726000E182217501524D96E3C
:1024E00018501620DA6E1E50010D190EF324E96EF5
:1024F000000EF420EA6EDFCFEFFF1E2ADFD71F5059
:10250000D8A40DD0490E036E000E046E190E056E90
:10251000000E066E4EC007F0086A55EC1AF0070E62
:102520001F601200020E1F6013D0190E106E000EF5
:10253000116E4EC012F01F50010D070EF324F66EFF
:10254000100EF420F76E0800F550E3EC1AF012D0EC
:10255000190E106E000E116E010E126E1F50010D3D
:10256000070EF324F66E100EF420F76E0800F550F7
:10257000E3EC1AF047C012F01F50010D010EF324D6
:10258000F66E100EF420F76E0800F550F7EC1BF015
:102590001F50010D0D0EF324F66E100EF420F76E91
:1025A0000800F5CF17F0010E186E172A02D0D89048
:1025B0001836172EFCD7020E07EC1CF01810126EFE
:1025C000020EF7EC1BF0120012C018F013C019F045
:1025D00014C01AF015C01BF018C003F019C004F0A5
:1025E0001AC005F01BC006F016C007F017C008F0AF
:1025F000000E08BEFF0E096E0A6E93EC16F003C0C3
:1026000018F004C019F005C01AF006C01BF0104AFB
:10261000112A185019101A101B10D8A4DDD710C099
:10262000D9FF11C0DAFF000EDF6E1006D8A0110628
:1026300012C003F013C004F014C005F015C006F07A
:1026400016C007F017C008F0000E08BEFF0E096E96
:102650000A6EFAEC17F003501C6E12C003F013C0A0
:1026600004F014C005F015C006F016C007F017C03E
:1026700008F0000E08BEFF0E096E0A6E93EC16F00D
:1026800003C012F004C013F005C014F006C015F02A
:10269000090E1C6402D0070E1C26300E1C2610C02A
:1026A000D9FF11C0DAFF1CC0DFFF1006D8A0110649
:1026B0001250131014101510D8B41200B9D712C04C
:1026C0001CF013C01DF0020E1224196E000E132010
:1026D0001A6E030E1224156E000E1320166EDEC045
:1026E00017F0DFC018F0E0C01BF019C0D9FF1AC006
:1026F000DAFF010EDF6410D01CC0D9FF1DC0DAFF65
:10270000DECF17F0DDCF18F015C0D9FF16C0DAFF05
:10271000010EDF6E000E16D01CC0D9FF1DC0DAFFFF
:10272000DECF09F0DDCF0AF02DEC18F00009D8B4A7
:102730000BD01CC0D9FF1DC0DAFFDECF17F0DDCFF4
:1027400018F01DD01B6E1DD01CC0D9FF1DC0DAFFB4
:10275000DECF03F0DDCF04F05DEC1BF00009D8B450
:1027600010D01CC0D9FF1DC0DAFFDECF03F0DDCFD3
:1027700004F0C8EC1AF003C017F004C018F0050EFE
:10278000E1D71CC0D9FF1DC0DAFF17C0DEFF18C09B
:10279000DDFF19C0D9FF1AC0DAFF1BC0DFFF12002E
:1027A0000C680D68000E096E0AD0D8900C360D36F4
:1027B000D8900C360D36D8900C360D36092A20EEFE
:1027C000D9F0DECF03F0DDCF04F00C5003160D502E
:1027D000041603500410D8A4E8D720EED8F009C09E
:1027E000DFFF0C1C036E0D1C046E03C0E1F004C07F
:1027F000E2F020EEE1F0DECF03F0DDCF04F0D89080
:1028000004320332D89004320332D89004320332B7
:1028100003C00AF004C00BF020EED9F0DECF03F0C5
:10282000DDCF04F00A5003160B50041603C0DEF08F
:1028300004C0DFF0D9C005F0DAC006F00AC007F026
:102840000BC008F012D0D89006320532D89006326C
:102850000532D89006320532D89008320732D89027
:1028600008320732D8900832073207500810D8A42F
:10287000EAD720EEE0F005C0DFFF1200286E20C08E
:1028800003F021C004F0ADEC1AF00009D8B4120036
:1028900020C0D9F021C0DAF03EEC1CF00009D8B419
:1028A00012002828D8B403D028509CEC1BF0000E4E
:1028B000156E000EE9EC18F0AFEC1BF0D9C003F078
:1028C000DAC004F0000E066E060E056ED4EC19F0A8
:1028D000D8900334050F276E050E156E2750D5ECE2
:1028E0001BF0190EE8CFAAF0000EE8CFABF0000EF7
:1028F000E8CFACF0000EE8CFADF0AAC003F0ABC05B
:1029000004F0000E066E030E056E89EC1BF003C08A
:10291000AEF004C0AFF0D0EC13F0060E296E13D069
:1029200020C003F021C004F029C005F0220E066E7D
:10293000000E076ECCEC11F0220E156E000E166E16
:1029400029505BEC12F029062928D8A4E9D7BEEC5F
:1029500018F01200000E1A6E42504318D8B405D079
:10296000000E036E425088EC0DF042504318D8B46C
:1029700005D0000E036E435088EC0DF024EC1CF0E3
:10298000000E60EC1CF0010E6BEC1CF0000E046EEF
:10299000050E036EAFEC19F00C0E126E000EF7EC84
:1029A0001BF00F0E156E050ED5EC1BF0020EC7ECDA
:1029B00017F00009D8B402D0010E466E060E07ECDF
:1029C0001CF01A6E000EC7EC17F04AEC1CF0000E5B
:1029D000126E1D0EF7EC1BF0000E126E1C0EF7ECC3
:1029E0001BF0700E126E070EF7EC1BF04C0E9CECF9
:1029F0001BF097EC1CF0A3EC1CF0C2EC1BF0000EDB
:102A000007EC1CF0FE0B126E000EF7EC1BF0000E34
:102A1000196E1A50D8B412001A28D8B41200010E38
:102A2000196E12001B50D8B405D05FEC18F0010EDF
:102A300060EC1CF075EC1CF003C028F004C029F019
:102A400005C02AF006C02BF040D093EC1CF01C6EA1
:102A50001CA83BD0100E126E070EF7EC1BF0000EF8
:102A600060EC1CF0010E60EC1CF028C01CF029C0CA
:102A70001DF02AC01EF02BC01FF01C1E1D1E1E1EA6
:102A80001F1E1C2A000E1D221E221F2275EC1CF088
:102A90001C500324206E1D500420216E1E50052062
:102AA000226E1F500620236E1750205C18502158AC
:102AB000195022581A502358D8A007D0000E60ECA5
:102AC0001CF0A3EC1CF0000E1200170E07EC1CF01B
:102AD0001C6E1CA8BAD7000E60EC1CF0010E120090
:102AE00005C00DF006C00EF003C00BF004C00CF0E2
:102AF0000B500D5C0C500E58D8B02CD007500D2444
:102B0000096E08500E200A6E09500B5C0A500C58D2
:102B1000D8B020D007500D2608500E2207500B26A3
:102B200008500C220D06D8A00E060DC0D9FF0EC00D
:102B3000DAFF0B06D8A00C060BC0E9FF0CC0EAFFB9
:102B4000DFCFEFFF0706D8A0080607500810D8B45B
:102B50001200E8D707500810D8B412000DC0D9FFF2
:102B60000EC0DAFF0BC0E9FF0CC0EAFFDFCFEFFFBA
:102B70000D4A0E2A0B4A0C2A0706D8A00806EAD7E7
:102B8000000E3D6E34C003F035C004F036C005F0D1
:102B9000380E066E000E076ECCEC11F020EED3F06E
:102BA000DFA45FEC18F03750D8B406D0000E156ED5
:102BB000000EE9EC18F005D0010E156E000EE9ECE0
:102BC00018F0380E156E000E166E8CEC17F0B00E65
:102BD0002F6E000E306EDBC031F0000E326E35EC21
:102BE0001AF03D6E20EED3F0DFB412D0AAC017F079
:102BF000ABC018F0ACC019F0ADC01AF0000E1B6EDF
:102C000012EC15F03D6E000E156E000EE9EC18F09A
:102C10003D50120010C020F011C021F04750125C4E
:102C2000D8A003D047C022F002D012C022F0236AFD
:102C300022C012F04850D8A40ED01250146E156A5B
:102C4000141E151E144A152A47501424246E000E13
:102C50001520256E04D0000E256E000E246E24C0B3
:102C60001FF09FEC1CF013507EEC1CF01E6E09D080
:102C700020C0D9FF21C0DAFFDF507EEC1CF0204AD3
:102C8000212A12061228D8B404D0F2D7000E7EEC06
:102C90001CF01F061F28D8A4F9D79BEC1CF01200CB
:102CA000E5EC0AF03AD0290E0F6E000E106E310ED0
:102CB000116E000E126E000E146E080E136E3BECB9
:102CC00011F03B0E216E100E226E51EC17F035C044
:102CD0001DF036C01EF037C01FF038C020F046ECA3
:102CE0001BF01DC021F01EC022F051EC17F04D0E5C
:102CF000216E100E226E51EC17F031C01DF032C063
:102D00001EF033C01FF034C020F046EC1BF01DC095
:102D100027F01EC028F031EC1CF0E6EC1BF0000997
:102D2000D8B41200C0D7000E0B6E000E0C6E000E51
:102D30000D6E000E0E6E0750081009100A10D8B460
:102D40002AD0010E0F6E06D0D89007360836093605
:102D50000A360F2A0AAEF8D7D8900B360C360D3645
:102D60000E360750035C08500458095005580A50A5
:102D70000658D8A009D00750035E0850045A0950DD
:102D8000055A0A50065A0B80D8900A320932083286
:102D900007320F2EE1D70BC003F00CC004F00DC0BA
:102DA00005F00EC006F0120010C01DF011C01EF09C
:102DB0001250475CD8A047C012F04850D8A40ED09B
:102DC0001250136E146A131E141E134A142A47500D
:102DD00013241F6E000E1420206E04D0000E206EEF
:102DE000000E1F6E1FC01CF09FEC1CF0610E7EECED
:102DF0001CF01B6E0AD0FF0E7EEC1CF01DC0D9FF2C
:102E00001EC0DAFFDF6E1D4A1E2A12061228D8B431
:102E100004D0F1D7FF0E7EEC1CF01C061C28D8A4B1
:102E2000F9D79BEC1CF01200948C948E000E036E6C
:102E3000480E046EE80E056E010E066E10C014F00A
:102E400011C015F012C016F013C017F0020ED89082
:102E50001436153616361736E82EF9D714C007F093
:102E600015C008F016C009F017C00AF093EC16F070
:102E7000FF0E0324106EFF0E0420116EFF0E0520BE
:102E8000126EFF0E0620136E10C0AFFF11C0B0FF10
:102E9000AC9CAC98AC84B886AB9CAB88AC8AAB8E4F
:102EA0001200000E266E000E256E1BD02550212428
:102EB000236E26502220246E23C0F6FF24C0F7FF85
:102EC000000EF86E0F0EF76403D00800F55005D021
:102ED000F6CFE9FFF7CFEAFFEF508DEC1CF0254A63
:102EE000262A25502124236E26502220246E23C01A
:102EF000F6FF24C0F7FF000EF86E0F0EF76403D044
:102F00000800F55005D0F6CFE9FFF7CFEAFFEF5004
:102F10000009D8B41200CAD7000E246E040E24642F
:102F200001D01DD02450176E186A171E181E174A9C
:102F3000182A040E1726000E182217501524D96ED1
:102F400018501620DA6E2450010D1F0EF324E96E7E
:102F5000000EF420EA6EDFCFEFFF242ADFD71F0E2A
:102F6000106E000E116E4EC012F00A0EE3EC1AF055
:102F70001F0E106E000E116E4EC012F0100EE3EC1C
:102F80001AF047C012F0110EF7EC1BF01200166E8B
:102F9000000E156E060E07EC1CF0176ED70E1716F6
:102FA000550E4F6E000E506E000E516E000E526E9A
:102FB000020E1618D8A403D0178A9B0E05D016044B
:102FC000D8A409D01786410E4F6E000E506E000E29
:102FD000516E000E526E17C012F0060EF7EC1BF089
:102FE000060E07EC1CF01718D8A402D0010E156EBF
:102FF000155012000750081009100A10D8B424D038
:10300000010E0B6E06D0D8900736083609360A3600
:103010000B2A0AAEF8D70750035C08500458095031
:1030200005580A500658D8A008D00750035E08502B
:10303000045A0950055A0A50065AD8900A320932E1
:10304000083207320B2EE7D703C003F004C004F0A8
:1030500005C005F006C006F01200000E116E09C092
:1030600003F00AC004F05DEC1BF00009D8B425D0D1
:1030700020EEE1F0DECF0BF0DDCF0CF00B1C0D6E7F
:103080000C1C0E6ED8900D360E36D8900D360E36BE
:10309000D8900D360E360DC00FF00EC010F00F5048
:1030A00009140B6E10500A140C6E0B500C10D8A49F
:1030B00002D0010E01D0000E116E11501200000E50
:1030C00060EC1CF04F50F5EC19F01D0E07EC1CF0F5
:1030D000156E15A205D04F50F5EC19F0A3EC1CF0BD
:1030E000000E07EC1CF0FE0B126E000EF7EC1BF04E
:1030F0000D0EF66E100EF76E0800F5CF15F0010EEE
:10310000166E152A02D0D8901636152EFCD7020E50
:1031100007EC1CF01610126E020EF7EC1BF01200FA
:10312000E30EE8CF7DF1000EE8CF7EF18B0EE8CF05
:1031300089F1010EE8CF8AF17F0EE8CFD0F0010EC1
:10314000E8CFD1F0000EE8CFD4F0000EE8CFD5F0F4
:10315000000EE8CFD6F0000EE8CFD7F0000EE8CF93
:10316000D3F0000EE8CFD2F0000EE8CFA9F0180E91
:10317000E8CFDCF0000EE8CFDDF01200C2EC1BF06F
:10318000000E07EC1CF00109126E000EF7EC1BF0AC
:10319000700E126E070EF7EC1BF0010E60EC1CF0C7
:1031A0004950D8B40AD0490E106E000E116E4EC0B0
:1031B00012F00A0EE3EC1AF003D0000E15EC1AF030
:1031C0001D0E07EC1CF01A6E1AA21200A3EC1CF0E4
:1031D0001200196E070E19601200010E07EC1CF0A8
:1031E000186E1550D8B40DD019C016F0010E176E18
:1031F000162A02D0D8901736162EFCD71750181260
:103200000DD019C016F0010E176E162A02D0D890F4
:103210001736162EFCD71750FF0A181618C012F0D2
:10322000010EF7EC1BF01200000E096E000E086E86
:1032300005500610D8B41CD0010E076E04D0D890EB
:1032400005360636072A06AEFAD7D890083609366C
:103250000550035C06500458D8A005D00550035E05
:103260000650045A0880D89006320532072EEDD752
:1032700008C003F009C004F01200230E036E240EF0
:103280002EEC1BF090EC18F0000E106EE10E116E9B
:10329000000E126E000E136E14EC17F0170E276E50
:1032A000100E286E31EC1CF0AAEC14F0150EF66E20
:1032B000100EF76E0900F5CF20F00A00F5CF21F0CF
:1032C0005A0E3EEC14F01200086E000E0A6E010E4B
:1032D000096E0850D8B414D00804030DF3CF05F0DC
:1032E00009C006F00AC007F0052A03D0D8900636B8
:1032F0000736052EFBD706C009F007C00AF005D037
:10330000000E046E000E036E120009C003F00AC026
:1033100004F0120000EEA9F021EE72F0EE6ADD502A
:10332000D950FCE1DA50FAE100EE3EF0240EEE6AEC
:10333000E806FDE10C0EF66E390EF76E000EF86E23
:1033400000EE62F020EE0EF00900F5CFEEFFDD504A
:10335000D950FAE1000EF86E000116EF1BF0000ED6
:10336000066E000E056E19D0000E086E000E076E78
:10337000200E075C030E0858D8B00DD000F000F006
:1033800000F000F000F000F000F000F000F000F0BD
:10339000074A082AEDD7054A062A0350055C04505F
:1033A0000658D8B01200E0D705500610D8B418D08F
:1033B000010E076E04D0D89005360636072A06AEF1
:1033C000FAD70550035C06500458D8A004D0055025
:1033D000035E0650045AD89006320532072EF1D704
:1033E00003C003F004C004F012000A6E000E0C6E5D
:1033F000000E0B6E10D0000E0E6E000E0D6E0E50F5
:1034000008E1080E0D5CD8B004D000F00D4A0E2A79
:10341000F6D70B4A0C2A0A50036E046A03500B5C61
:1034200004500C58D8B01200E6D7196E1950010D8F
:103430000D0EF324F66E100EF420F76E0800F5CF93
:1034400015F0010E166E152A02D0D8901636152EDC
:10345000FCD71650FF0A176E020E07EC1CF017146B
:10346000126E020EF7EC1BF012000CD093EC1CF065
:10347000336E33A807D0100E126E070EF7EC1BF058
:10348000000E120093EC1CF0336E33B0EFD72FC058
:1034900026F030C027F031C028F032C029F0010EEC
:1034A0002A6E75EC1AF0010E120005C00BF006C072
:1034B0000CF003C009F004C00AF00ED00BC0D9FF15
:1034C0000CC0DAFF09C0E9FF0AC0EAFFDFCFEFFF57
:1034D0000B4A0C2A094A0A2A0706D8A00806072818
:1034E000EDE10828D8B41200E9D72950D8A404D0B7
:1034F000000E2E6EA00E03D0000E2E6EB00E2D6E9E
:1035000026C010F027C011F028C012F02DC013F013
:103510000AEC16F02A50D8B41200010E60EC1CF030
:103520001200000E156E9FEC1CF0600E7EEC1CF07D
:10353000FF0E7EEC1CF0156E9BEC1CF0200E15644B
:103540000AD097EC1CF0000E046E020E036EAFEC76
:1035500019F0000E120015501200010E066E12D066
:103560000350070B056E050E056403D0000E066EB2
:103570000DD0D89004320332D89004320332D89060
:103580000432033203500410D8A4EAD706501200C4
:10359000070E20EEE1F0DECF05F0DDCF06F0D8908B
:1035A00005360636D89005360636D89005360636E6
:1035B0000510076E0650086E07500314036E08507E
:1035C0000414046E1200146E9FEC1CF014501F0BB8
:1035D00020097EEC1CF0136E09D010C0D9FF11C079
:1035E000DAFFDF507EEC1CF0104A112A1206122876
:1035F000D8A4F3D79BEC1CF01200170E07EC1CF0BC
:10360000166E16B011D014501510D8B40BD093EC20
:103610001CF0186ED8901830070B14C0D9FF15C0D5
:10362000DAFFDF6E010E1200000E1200000E3E6E79
:10363000000E3F6E000E406E000E416ED59CD59A76
:10364000D586000ED76EC00ED66EF294F28EF28A38
:10365000D58E3DEC19F050EC16F0FDD7046E04C089
:1036600042F003C043F0000E466E200E476E000E7F
:10367000486E050E4E6E050E536E000E546E000E13
:10368000556E000E566E000E496E1200580E106EEA
:10369000000E116E1DC012F01EC013F01FC014F0FA
:1036A00020C015F0000E176E0A0E166EE4EC12F034
:1036B000580E1D6E000E1E6E120020EED9F000EEA8
:1036C000E1F0EECF07F0EDCF08F0035007160450FD
:1036D0000816DE50071806E1DE500818D8A402D0FC
:1036E000010E1200000E1200060016EE92F0F2A477
:1036F0000BD0E00ED76EC00ED66E010E3E26000E29
:103700003F2240224122F29402C0E2FF01C0E1FFC9
:10371000110003500502F3CF07F0F4CF08F0035077
:103720000602F350082604500502F350082607C08D
:1037300003F008C004F01200176E7D0E186E1850CA
:10374000175CD8A003D018C015F002D017C015F030
:10375000166A15C012F0050EF7EC1BF012001D0ED4
:1037600007EC1CF00409126E1D0EF7EC1BF01C0E8A
:1037700007EC1CF03F09126E1C0EF7EC1BF0010E5B
:10378000486E1200000E07EC1CF0156E15B2120008
:1037900015500209126E000EF7EC1BF0000E046EBD
:1037A000050E036EAFEC19F01200186E15C016F07E
:1037B0000F0E161618C017F00F0E17161738F00B4D
:1037C0001610126E040EF7EC1BF0120021EE7DF0C5
:1037D000DECF03F0DDCF04F00450000802E1035017
:1037E000E308D8B002D0010E1200000E1200136ED2
:1037F0009FEC1CF013501F0B20097EEC1CF0146E84
:1038000012507EEC1CF09BEC1CF014501200106E59
:103810009FEC1CF010501F0B7EEC1CF0FF0E7EEC9A
:103820001CF0116E9BEC1CF01150120021C010F026
:1038300022C011F023C012F0D4EC16F0700E126EFC
:10384000070EF7EC1BF0120094889496949AC69A8F
:10385000C78CC698C79EC650F00B0109C66EC68AB3
:10386000120027C021F028C022F051EC17F0520EB0
:10387000216E100E226E51EC17F01200000E036E36
:103880004228D8B405D04328D8B402D0010E036E24
:10389000035012009FEC1CF0500E7EEC1CF0730ED7
:1038A0007EEC1CF09BEC1CF01200126E9FEC1CF0E6
:1038B00012507EEC1CF0136E9BEC1CF013501200A7
:1038C000066E42504318D8B4120006C003F04250AE
:1038D000C7EC0EF012000F6E0FC003F04350C7ECA0
:1038E0000EF05350F5EC19F012003EC003F03FC04B
:1038F00004F040C005F041C006F01200036EC7900E
:1039000003C0C9FFC7A0FED7C9501200C33C33CEC5
:103910003EE3ECCCCCCCCCCC0100036E03C0ADFFBD
:10392000ACB21200FDD7FF0E55EC1CF01200E20EF7
:1039300055EC1CF01200010E6BEC1CF01200000E96
:0E3940006BEC1CF01200E10E55EC1CF01200B6
:020000040020DA
:08000000FFFFFFFFFFFFFFFF00
:020000040030CA
:0E000000FF06181EFF8180FF0FC00FE00F40AB
:00000001FF
