:040000000AEF00F013
:10000800E1CF01F0E2CF02F0A8ED1CF012EE47F0CC
:0400180083EF19F069
:10100000001112131415160A0B0C0D0E0F0001021D
:10101000030405D007000000000100524632344EA0
:101020006574776F726B2F6578616D706C65732F67
:1010300068656C6C6F776F726C645F74782F0053A7
:10104000656E64696E672E2E2E006661696C65643C
:101050002E006F6B2E000D0A0000000E276E07C1D8
:1010600015F0F80E1524286E296AFF0E2922010EAC
:10107000266E20EE06F01350D9261450DA22940E74
:10108000DE18D8B420D020EE06F01350D926145024
:10109000DA22950EDE18D8B416D020EE06F01350E2
:1010A000D9261450DA22960EDE18D8B40CD020EED1
:1010B00006F01350D9261450DA22C80EDE18D8B420
:1010C00002D0000E266E26C023F02350D8B4D5D10E
:1010D00020EE06F01350D9261450DA22940EDE18B2
:1010E000D8A4A3D020EE07F01350D9261450DA224A
:1010F000DF50156E000E046E0A0E036E08C105F077
:1011000009C106F039EC1AF0031E041E034A042A32
:101110009A0E0326000E04221550035C000E04589C
:10112000D8B005D0000EE8CFB2F1000E120020EECC
:1011300004F01350D9261450DA2201EEAFF0DE503D
:10114000EE1813E1DE50EE18D8A40FD013C0D9FF6B
:1011500014C0DAFF01EEABF0DE50EE1806E1DE500F
:10116000EE18D8A402D0010E120020EE07F01350A2
:10117000D9261450DA22DF50156E1550180D21EEC5
:10118000A9F0DECF16F0DDCF17F0D50E186E000EE9
:10119000196E3A0E1826000E1922181E191E184A2A
:1011A000192A1650182617501922181E191E184AE7
:1011B000192A900E1826000E1922F350185C1950A7
:1011C000800A1A6EF450800A1A58D8B007D0FFC0AF
:1011D000E8FF0109E8CFFFF01EEC19F0AB0E036E3B
:1011E000010E046EDC0E056E000E066E000E086E1B
:1011F000080E076E1AEC1BF0B5C103F0B6C104F07F
:10120000E40E056E000E066E28C007F029C008F037
:101210001AEC1BF028C0B3F129C0B4F1B2C1E8FF49
:10122000FF0FE8CFB2F1010E120020EE06F01350CE
:10123000D9261450DA22960EDE18D8B414D020EE37
:1012400006F01350D9261450DA22950EDE18D8B4C1
:101250000AD020EE06F01350D9261450DA22C80E18
:10126000DE18D8A42ED121EEB3F0DECF15F0DDCFFD
:1012700016F02850152629501622165004E1910E1A
:10128000155CD8A005D0000EE8CFB2F1000E120018
:1012900021EEB2F0DF50D8B425D020EE06F0135086
:1012A000D9261450DA22960EDE18D8B40CD021EECE
:1012B000B2F000EE07F01350E9261450EA22DE5097
:1012C000EE18D8A40FD020EE04F01350D9261450F5
:1012D000DA2201EEAFF0DE50EE1804E1DE50EE1837
:1012E000D8B402D0000E120021EEB3F0DECF15F01C
:1012F000DDCF16F021EEB5F0DECF17F0DDCF18F020
:1013000015501724036E16501820046EE40E056E57
:10131000000E066E28C007F029C008F01AEC1BF07A
:1013200021EEB3F02850DE262950DD2220EE06F013
:101330001350D9261450DA22960EDE18D8B407D0EE
:10134000B2C1E8FFFF0FE8CFB2F1010E1200000EAC
:10135000E8CFB2F120EE07F01350D9261450DA226C
:10136000DF50156E15C0B1F1B1C1E8FF830AD8A4F2
:1013700002D0020E120021EEB3F001EEA9F0EECF82
:1013800017F0EDCF18F0D50E196E000E1A6E3A0E4A
:101390001926000E1A22191E1A1E194A1A2A175047
:1013A000192618501A22191E1A1E194A1A2A900EA6
:1013B0001926000E1A22DE50195C1A50800A1B6E84
:1013C000DE50800A1B58D8A04FD0A9C103F0AAC193
:1013D00004F0AB0E056E010E066E000E086E0A0ECE
:1013E000076E1AEC1BF021EEA9F0DECF15F0DDCF71
:1013F00016F00A0E1524036E000E1620046EB5C1F9
:1014000005F0B6C106F0B3C107F0B4C108F01AEC9C
:101410001BF021EEB3F0DECF15F0DDCF16F00A0E93
:101420001526000E162221EEA9F01550DE261650C4
:10143000DD220101B3510A0F030B246E2450D8B4EE
:1014400011D02450156E166A151E161E154A162A3E
:10145000040E1526000E162221EEA9F01550DE26E8
:101460001650DD22010E12001EEC19F0FFC0E8FF3D
:101470000109E8CFFFF0000E120020EE06F0135035
:10148000D9261450DA22830EDE18D8A41AD0AB0E57
:10149000036E010E046EDC0E056E000E066E000E6D
:1014A000086E080E076E1AEC1BF0E40EE8CFB5F1DB
:1014B000000EE8CFB6F128C0B3F129C0B4F1020E96
:1014C000120021EEA9F0DECF15F0DDCF16F0D50E1B
:1014D000176E000E186E3A0E1726000E1822171EF1
:1014E000181E174A182A1550172616501822285069
:1014F00017262950182218BE06D0185064E19B0EFA
:10150000175CD8B060D0A9C103F0AAC104F0DC0E0A
:10151000056E000E066E000E086E080E076E1AECC1
:101520001BF021EEA9F0DECF15F0DDCF16F0080E8E
:101530001524036E000E1620046E280E056E000E94
:10154000066E000E086E020E076E1AEC1BF021EEFE
:10155000A9F0DECF15F0DDCF16F00A0E1524036ECC
:10156000000E1620046EE40E056E000E066E28C0F6
:1015700007F029C008F01AEC1BF00A0E2824156E9B
:10158000000E2920166E21EEA9F01550DE26165009
:10159000DD2228500A0F030B256E2550D8B411D038
:1015A0002550156E166A151E161E154A162A040EAB
:1015B0001526000E162221EEA9F01550DE26165033
:1015C000DD22010E01D0000E276E27501200050EFD
:1015D000E126000EE222FE0EE36A20EEFFF0DFB20B
:1015E00085D220EEFFF0DFB01ED021EEA9F0DECFD5
:1015F0006BF0DDCF6CF0D50E746E000E756EE80EDC
:10160000726EFF0E736E7450725E7550735A6B502B
:1016100072266C50732273BE69D2735004E19B0E24
:10162000725CD8A063D22FEC1DF00009D8A406D0BC
:10163000FFC0E8FFFE0BE8CFFFF058D2000E9BD1B1
:10164000D7EC1BF021EE07F0DF6E080EDF6007D04D
:10165000000E046E0A0E036ED4EC1AF047D2DC0EB4
:101660001D6E000E1E6E07C11FF05FEC1DF0000E18
:101670006A6EFD0E6AC0E3FFDC0E6A6EFC0E6AC085
:10168000E3FFFC0EE3CF6BF0FD0EE3CF6CF0020E38
:101690006B24D96E000E6C20DA6EDECF03F0DDCF46
:1016A00004F02AEC1CF00009D8B420D2FC0EE3CFE1
:1016B0006BF0FD0EE3CF6CF0060E6B24D96E000EBE
:1016C0006C20DA6EDF50756EFE0E75C0E3FF21EE02
:1016D00005F0FC0EE3CF6BF0FD0EE3CF6CF0020ED5
:1016E0006B24E96E000E6C20EA6EDE50EE1803E10A
:1016F000DE50EE18D8A441D1FC0EE3CF6BF0FD0E06
:10170000E3CF6CF0060E6B24D96E000E6C20DA6EFF
:10171000820EDE18D8B4EAD1FC0EE3CF6BF0FD0EDA
:10172000E3CF6CF0060E6B24D96E000E6C20DA6EDF
:10173000800EDE18D8A450D021EE05F0240EDE185D
:1017400004E1090EDE18D8B447D0FC0EE3CF6BF0ED
:10175000FD0EE3CF6CF0020E6B24D96E000E6C20F0
:10176000DA6E240EDE6E090EDD6E020EE66EFB0EE4
:10177000E3CF6BF0FC0EE3CF6CF0020E6B24D96E5E
:10178000000E6C20DA6EDECF6BF0DDCF6CF06BC03C
:10179000E6FF6CC0E6FF90EC0DF0000E046E0A0E42
:1017A000036ED4EC1AF0020EE66EFB0EE3CF6BF084
:1017B000FC0EE3CF6CF0020E6B24D96E000E6C2091
:1017C000DA6EDECF6BF0DDCF6CF06BC0E6FF6CC085
:1017D000E6FF90EC0DF08AD1FC0EE3CF6BF0FD0E2E
:1017E000E3CF6CF0060E6B24D96E000E6C20DA6E1F
:1017F000C30EDE18D8A43BD021EE05F0DE50DE107B
:10180000D8B435D021EE05F0FC0EE3CFE9FFFD0E94
:10181000E3CFEAFFDECFEEFFDDCFEDFFFC0EE3CF3F
:101820006BF0FD0EE3CF6CF0020E6B24D96E000E50
:101830006C20DA6E000EDE6E000EDD6E000EE66EBF
:10184000FB0EE3CF6BF0FC0EE3CF6CF0020E6B24CB
:10185000D96E000E6C20DA6EDECF6BF0DDCF6CF04F
:101860006BC0E6FF6CC0E6FF90EC0DF03FD120EEC0
:10187000FEF0DF50D8B40FD0FC0EE3CF6BF0FD0EBE
:10188000E3CF6CF0060E6B24D96E000E6C20DA6E7E
:10189000800EDF6010D0FC0EE3CF6BF0FD0EE3CFC7
:1018A0006CF0060E6B24D96E000E6C20DA6EC10E41
:1018B000DE18D8A454D0FC0EE3CF6BF0FD0EE3CFBE
:1018C0006CF0060E6B24D96E000E6C20DA6E940E4E
:1018D000DE18D8B444D0FC0EE3CF6BF0FD0EE3CF9E
:1018E0006CF0060E6B24D96E000E6C20DA6E950E2D
:1018F000DE18D8B434D0FC0EE3CF6BF0FD0EE3CF8E
:101900006CF0060E6B24D96E000E6C20DA6EC80ED9
:10191000DE18D8B424D0FC0EE3CF6BF0FD0EE3CF7D
:101920006CF0060E6B24D96E000E6C20DA6E830EFE
:10193000DE18D8B414D0FC0EE3CF6BF0FD0EE3CF6D
:101940006CF0060E6B24D96E000E6C20DA6E960ECB
:10195000DE18D8B404D0FE0EE3CF6AF0DCD0FC0E63
:10196000E3CF13F0FD0EE3CF14F02DEC08F0020AE4
:10197000D8A4BCD0830E6A6ECED0FC0EE3CF6BF041
:10198000FD0EE3CF6CF0020E6B24D96E000E6C20BE
:10199000DA6E400EDE18DE10D8A490D0FC0EE3CF35
:1019A0006BF0FD0EE3CF6CF0060E6B24D96E000ECB
:1019B0006C20DA6EC20EDE18D8A44FD020EEFFF0F5
:1019C000DFB694D021EE05F0240EDE1804E1090EF6
:1019D000DE18D8B48BD0FC0EE3CFD9FFFD0EE3CFD9
:1019E000DAFFFC0EE3CF6BF0FD0EE3CF6CF0020EDE
:1019F0006B24E96E000E6C20EA6EDECFEEFFDDCFC9
:101A0000EDFF21EE05F0FC0EE3CFE9FFFD0EE3CF85
:101A1000EAFFDECFEEFFDDCFEDFF21EE0CF0DF5071
:101A2000036E046AD4EC1AF0020EE66EFB0EE3CFEE
:101A30006BF0FC0EE3CF6CF0020E6B24D96E000E3F
:101A40006C20DA6EDECF6BF0DDCF6CF06BC0E6FFA2
:101A50006CC0E6FF90EC0DF049D0FC0EE3CF13F024
:101A6000FD0EE3CF14F02DEC08F0756EFB0E75C083
:101A7000E3FF20EED5F0DF50D8B41AD0040EE66EA6
:101A800021EE04F0DF5089EC1AF003C06BF004C0C3
:101A90006CF0D8906B366C36D8906B366C36D8902C
:101AA0006B366C366BC0E6FF6CC0E6FF90EC0DF059
:101AB000FB0EE3CF6AF0020E6A185AD7010EE66EEB
:101AC000FB0EE3CF6BF0FC0EE3CF6CF0020E6B2449
:101AD000D96E000E6C20DA6EDECF6BF0DDCF6CF0CD
:101AE0006BC0E6FF6CC0E6FF90EC0DF06DEC1DF0F6
:101AF0000009D8B430D7FF0EE1246B6EFF0EE22050
:101B00006C6E6BC010F06CC011F078EC1CF000092A
:101B1000D8B421D795D5FB0EE126FF0EE2221200A4
:101B20000C0EE126000EE222FF0EE36A20EEE2F048
:101B3000400EDF6408D020EEE2F0C00EDF6003D07C
:101B4000FF0EE36AE32AF20EE3CF03F0F30EE3CFD6
:101B500004F02AEC1CF00009D8A403D0000E6A6E31
:101B600065D1F20EE3CF6AF0F60E6AC0E3FFF30E22
:101B7000E3CF6AF0F70E6AC0E3FFF80EE124D96EF6
:101B8000FF0EE220DA6EF10EE3CFDFFFF90EE12463
:101B9000D96EFF0EE220DA6E000EDF6EF60EE12443
:101BA0006B6EFF0EE2206C6E6BC015F06CC016F011
:101BB000D7EC14F0F60EE3CF30F0F70EE3CF31F0B0
:101BC000F80EE124D96EFF0EE220DA6EDF50326E9D
:101BD000F90EE124D96EFF0EE220DA6EDF50336E8B
:101BE0005AEC17F0756EFE0E75C0E3FFF10EE304BC
:101BF000D8A489D0FE0EE350D8B485D0E150F60FBA
:101C0000D96EE250DA6EFF0EDA22F20EE350DE18E1
:101C10007AE1F30EE350DE18D8A475D0FF0EE3503E
:101C2000D8B471D0000E6A6EF50E6AC0E3FFDC0E08
:101C30006A6EF40E6AC0E3FFF40EE3CF6BF0F50EAC
:101C4000E3CF6CF0060E6B24D96E000E6C20DA6EBA
:101C5000C10EDF6EF40EE3CFD9FFF50EE3CFDAFF4E
:101C6000F40EE3CF6BF0F50EE3CF6CF0020E6B24B5
:101C7000E96E000E6C20EA6EDECFEEFFDDCFEDFFE9
:101C8000F40EE3CFE9FFF50EE3CFEAFFF60EEECF59
:101C9000E3FFF70EEDCFE3FFF80EE124D96EFF0E60
:101CA000E220DA6E010EDF6EF90EE124D96EFF0E2E
:101CB000E220DA6E000EDF6EF60EE1246B6EFF0E90
:101CC000E2206C6E6BC015F06CC016F0D7EC14F00F
:101CD000080EE8CF07F1F60EE3CF30F0F70EE3CFB2
:101CE00031F0F80EE124D96EFF0EE220DA6EDF50FB
:101CF000326EF90EE124D96EFF0EE220DA6EDF506B
:101D0000336E5AEC17F0FE0EE350D8B487D0E15092
:101D1000F60FD96EE250DA6EFF0EDA22F20EE350C1
:101D2000DE1805E1F30EE350DE18D8B477D0F10EDB
:101D3000E350D8B407D0F10EE3CF6AF0030E6A186F
:101D4000D8A46CD0FF0EE350D8B468D020EEFFF0DA
:101D5000DFA416D0D6C013F0D7C014F0D8C015F049
:101D6000D9C016F0000E176EFCEC16F0FFC0E8FFAD
:101D7000FB0BE8CFFFF0000E116E000E0EEC1AF018
:101D8000E2EC19F0C5EC1DF003C072F004C073F072
:101D900005C074F006C075F0FA0E72C0E3FFFB0ECA
:101DA00073C0E3FFFC0E74C0E3FFFD0E75C0E3FFDC
:101DB0002FD0C5EC1DF003C072F004C073F005C055
:101DC00074F006C075F0FA0EE350725EFB0EE3503D
:101DD000735AFC0EE350745AFD0EE350755A20EE10
:101DE000DAF0DECF70F0DDCF71F070506A6E7150B6
:101DF0006B6E6C6A6D6A72506A5C73506B5874508B
:101E00006C5875506D58D8B003D0FE0EE36A06D0FA
:101E1000E7EC0AF0C10E6A18D8A4CBD720EEFFF089
:101E2000DFA4E2EC19F0FE0EE3CF6AF0F10EE1263A
:101E3000FF0EE222120006D0E7EC0AF07F0E6A6481
:101E400001D027D000C153F001C154F002C155F0B8
:101E500003C156F0531E541E551E561E532A000E23
:101E6000542255225622C5EC1DF053500324576EC0
:101E700054500420586E55500520596E5650062077
:101E80005A6E5A505910581004E1190E575CD8A0D8
:101E9000D3D7C80E7AEC1BF021EE08F04F50DE5C71
:101EA0005050DE58D8A029D04FC053F0080E53260A
:101EB00053C007F14BC040F04CC041F04DC042F060
:101EC0004EC043F04FC044F050C045F051C046F002
:101ED00052C047F091EC16F00009D8B402D0010EC0
:101EE0001200C5EC1DF003C000F104C001F105C0F3
:101EF00002F106C003F1000E1200505004E1910EF1
:101F00004F5CD8A002D0000E12004FC003F050C0AA
:101F100004F008C105F009C106F039EC1AF003C05D
:101F200053F004C054F04FC003F050C004F008C197
:101F300005F009C106F0F9EC1AF003500410D8B40A
:101F400002D0010E01D0000E5324636E000E5F6EAE
:101F500020EE02F04B50D9264C50DA22400EDE180B
:101F6000DE10D8B407D0FFC0E8FF0409E8CFFFF0C7
:101F70001EEC19F0000E5B6E20EE06F04B50D926D9
:101F80004C50DA22DF505E6E000E626E94D020EE6E
:101F900007F04B50D9264C50DA2263C0DFFF6304B0
:101FA000D8A411D020EE06F04B50D9264C50DA229E
:101FB000960EDF6E20EE07F04B50D9264C50DA22F9
:101FC0005EC0DFFF13D05F50D8A408D020EE06F02B
:101FD0004B50D9264C50DA22940E07D020EE06F052
:101FE0004B50D9264C50DA22950EDF6E5FC003F0BD
:101FF000046A08C105F009C106F0F8EC1CF003C042
:1020000060F004C061F021EE08F060C055F061C0DE
:1020100056F0551E561E554A562A4F5055265050BA
:102020005622DE50555CDE505658D8A005D008C167
:102030005CF009C15DF00ED060C053F061C054F097
:10204000531E541E534A542A4F5053245C6E505012
:1020500054205D6E5CC053F0080E532653C007F148
:102060004BC040F04CC041F060504D24426E615076
:102070004E20436E5CC044F05DC045F051C046F058
:1020800052C047F091EC16F0626E6250D8A408D0AE
:10209000000E046E020E036ED4EC1AF05B2A04D01C
:1020A000000E5B6E63065F2A6250D8A404D0020E55
:1020B0005B6401D003D06350D8A469D720EE06F04A
:1020C0004B50D9264C50DA225EC0DFFF20EEFFF0E5
:1020D000DFA414D0D6C013F0D7C014F0D8C015F0C8
:1020E000D9C016F0000E176EFCEC16F0626EE2EC32
:1020F00019F0000E116E000E0EEC1AF0FFC0E8FF92
:10210000FB0BE8CFFFF06250D8A402D0000E120003
:102110006350D8B40CD0C5EC1DF003C000F104C06E
:1021200001F105C002F106C003F1000E1200010E1C
:102130001200046ED2D003B002D0929001D09280EF
:10214000120003B002D0929201D09282120003B02A
:1021500002D0929401D09284120003B002D09296E1
:1021600001D09286120003B002D0929801D09288DA
:10217000120003B002D0929A01D0928A120003B0EA
:1021800002D0969001D09680120003B002D09692B1
:1021900001D09682120003B002D0969401D09684AA
:1021A000120003B002D0929E01D0928E120003B0B2
:1021B00002D0929C01D0928C120003B002D0949075
:1021C00001D09480120003B002D0949201D0948286
:1021D000120003B002D0949401D09484120003B092
:1021E00002D0949601D09486120003B002D095904C
:1021F00001D09580120003B002D0959201D0958253
:10220000120003B002D0959401D09584120003B05F
:1022100002D0959601D09586120003B002D0949812
:1022200001D09488120003B002D0949A01D0948A0D
:10223000120003B002D0949C01D0948C120003B021
:1022400002D0949E01D0948E120003B002D09598D3
:1022500001D09588120003B002D0959A01D0958ADA
:10226000120003B002D0959C01D0958C120003B0EF
:1022700002D0959E01D0958E120003B002D09390AB
:1022800001D09380120003B002D0939201D09382C8
:10229000120003B002D0939401D09384120003B0D3
:1022A00002D0939601D09386120003B002D0939887
:1022B00001D09388120003B002D0939A01D0938A80
:1022C000120003B002D0939C01D0938C120003B093
:1022D00002D0939E01D0938E12000450020AD8B40B
:1022E0002AD7010AD8B42DD7070AD8B430D7010AA3
:1022F000D8B433D7030AD8B436D7010AD8B439D7FB
:102300000F0AD8B43CD7010AD8B43FD7030AD8B4CF
:1023100042D7070AD8B445D7030AD8B448D7010A28
:10232000D8B44BD71F0AD8B44ED7010AD8B451D766
:10233000030AD8B454D7010AD8B457D7070AD8B477
:102340005AD7010AD8B45DD7030AD8B460D7010AB6
:10235000D8B463D70F0AD8B466D7010AD8B469D7FE
:10236000030AD8B46CD7010AD8B46FD7070AD8B417
:1023700072D7010AD8B475D7030AD8B478D73F0A00
:10238000D8B47BD7030AD8B47ED7010AD8B481D792
:10239000070AD8B484D7010AD8B487D7030AD8B4B7
:1023A0008AD7010AD8B48DD70F0AD8A412008FD7C4
:1023B000056ED2D003B002D0899001D0898012007E
:1023C00003B002D0899201D08982120003B002D0FA
:1023D000899401D08984120003B002D0899601D07B
:1023E0008986120003B002D0899801D08988120032
:1023F00003B002D0899A01D0898A120003B002D0BA
:102400008D9001D08D80120003B002D08D9201D04A
:102410008D82120003B002D08D9401D08D84120001
:1024200003B002D0899E01D0898E120003B002D081
:10243000899C01D0898C120003B002D08B9001D00E
:102440008B80120003B002D08B9201D08B821200DD
:1024500003B002D08B9401D08B84120003B002D061
:102460008B9601D08B86120003B002D08C9001D0E5
:102470008C80120003B002D08C9201D08C821200AA
:1024800003B002D08C9401D08C84120003B002D02F
:102490008C9601D08C86120003B002D08B9801D0AC
:1024A0008B88120003B002D08B9A01D08B8A120065
:1024B00003B002D08B9C01D08B8C120003B002D0F1
:1024C0008B9E01D08B8E120003B002D08C9801D06D
:1024D0008C88120003B002D08C9A01D08C8A120032
:1024E00003B002D08C9C01D08C8C120003B002D0BF
:1024F0008C9E01D08C8E120003B002D08A9001D045
:102500008A80120003B002D08A9201D08A8212001F
:1025100003B002D08A9401D08A84120003B002D0A2
:102520008A9601D08A86120003B002D08A9801D020
:102530008A88120003B002D08A9A01D08A8A1200D7
:1025400003B002D08A9C01D08A8C120003B002D062
:102550008A9E01D08A8E12000550020AD8B42AD76A
:10256000010AD8B42DD7070AD8B430D7010AD8B495
:1025700033D7030AD8B436D7010AD8B439D70F0AEB
:10258000D8B43CD7010AD8B43FD7030AD8B442D74D
:10259000070AD8B445D7030AD8B448D7010AD8B433
:1025A0004BD71F0AD8B44ED7010AD8B451D7030A63
:1025B000D8B454D7010AD8B457D7070AD8B45AD7D1
:1025C000010AD8B45DD7030AD8B460D7010AD8B4D9
:1025D00063D70F0AD8B466D7010AD8B469D7030AFB
:1025E000D8B46CD7010AD8B46FD7070AD8B472D759
:1025F000010AD8B475D7030AD8B478D73F0AD8B43B
:102600007BD7030AD8B47ED7010AD8B481D7070A8A
:10261000D8B484D7010AD8B487D7030AD8B48AD7E4
:10262000010AD8B48DD70F0AD8A412008FD7E7ECCF
:102630000AF0C5EC1DF003C0B5F004C0B6F005C04B
:10264000B7F006C0B8F0130EF66E100EF76E80C02D
:10265000ACF081C0ADF082C0AEF083C0AFF000013D
:10266000AC1FAD1FAE1FAF1FAC2B000EAD23AE23B2
:10267000AF230001B5510001AC250001B06F00018E
:10268000B6510001AD210001B16F0001B751000149
:10269000AE210001B26F0001B8510001AF2100016D
:1026A000B36F0900F5500001B05D0900F55000015D
:1026B000B1590900F5500001B2590900F550000167
:1026C000B359D8A01200B5C080F0B6C081F0B7C031
:1026D00082F0B8C083F03F0E046E100E056EAFECB2
:1026E0001AF0C5EC1DF003C0B9F004C0BAF005C083
:1026F000BBF006C0BCF088C0BDF089C0BEF08AC087
:10270000BFF08BC0C0F0010E00018827000E8923A6
:102710008A238B23C10E036E000E046E170EF66E15
:10272000100EF76E0900F5CF05F00A00F5CF06F0A0
:10273000000E076E9AEC1BF0C10E646E000E656E03
:10274000B90E666E000E676E000E696E080E686E3A
:10275000E5EC1CF00001B46F0001B4510001D8B4E5
:1027600007D0520E0A6E100E0B6E96EC1DF0120082
:102770004A0E0A6E100E0B6E96EC1DF0120020EE43
:10278000D0F000EE17F0040EDBCFEBFFE806FCE222
:10279000170E1F6E000E206E010E1E6E03C01CF081
:1027A00004C01DF027D00550D8A404D00350041055
:1027B000D8A416D0070E1C14086E000E1D14096E46
:1027C000C90E0824D96E000E0920DA6E1E50010DC4
:1027D000F3501F24E96EF4502020EA6EDFCFEFFFA4
:1027E000D8901D321C32D8901D321C32D8901D3228
:1027F0001C321E2A1C501D10D8A4D5D70550D8A4B1
:1028000004D003500410D8A40DD00550010DC90EFA
:10281000F324D96E000EF420DA6E1FC0E9FF20C049
:10282000EAFF17D0FF0E086EFF0E096E1E500A6EEB
:102830000B6A08500A2609500B22C90E0A24D96EC9
:10284000000E0B20DA6E00EE01F01F50E92620503A
:10285000EA22DFCFEFFF000E216E040E216401D0CB
:1028600012002150086E096A081E091E084A092A2A
:10287000040E0826000E0922170E0824D96E000E39
:102880000920DA6E2150010DF3500624E96EF45050
:102890000720EA6EDFCFEFFF212ADFD71B6E000E85
:1028A0001A6E040E1A6401D01DD01A50136E146AE9
:1028B000131E141E134A142A040E1326000E14228B
:1028C00013501124D96E14501220DA6E1A50010DD3
:1028D000150EF324E96E000EF420EA6EDFCFEFFF51
:1028E0001A2ADFD71B50D8A40DD0930E036E000E0A
:1028F000046E150E056E000E066E98C007F0086A8D
:102900001AEC1BF0070E1B601200020E1B6013D0A6
:10291000150E0C6E000E0D6E98C00EF01B50010DC2
:10292000070EF324F66E100EF420F76E0800F55033
:1029300045EC1CF012D0150E0C6E000E0D6E010E43
:102940000E6E1B50010D070EF324F66E100EF420D0
:10295000F76E0800F55045EC1CF091C00EF01B50CE
:10296000010D010EF324F66E100EF420F76E080030
:10297000F55040EC1DF01B50010D0D0EF324F66ECA
:10298000100EF420F76E0800F5CF13F0010E146E50
:10299000132A02D0D8901436132EFCD7020E50EC16
:1029A0001DF014100E6E020E40EC1DF0120015C04A
:1029B00028F016C029F0020E1524256E000E1620F0
:1029C000266E030E1524216E000E1620226E0AC1FB
:1029D00023F00BC124F00CC127F025C0D9FF26C07D
:1029E000DAFF010EDF6410D028C0D9FF29C0DAFF5A
:1029F000DECF23F0DDCF24F021C0D9FF22C0DAFFE3
:102A0000010EDF6E000E16D028C0D9FF29C0DAFFF4
:102A1000DECF09F0DDCF0AF051EC19F00009D8B48F
:102A20000BD028C0D9FF29C0DAFFDECF23F0DDCFDD
:102A300024F01DD0276E1DD028C0D9FF29C0DAFF91
:102A4000DECF03F0DDCF04F091EC1CF00009D8B428
:102A500010D028C0D9FF29C0DAFFDECF03F0DDCFC8
:102A600004F00FEC1CF003C023F004C024F0050EAA
:102A7000E1D728C0D9FF29C0DAFF23C0DEFF24C078
:102A8000DDFF25C0D9FF26C0DAFF27C0DFFF120017
:102A9000000E166E00018C5100018D19D8B406D0BD
:102AA000000E036E00018C5199EC10F000018C5166
:102AB00000018D19D8B406D0000E036E00018D51AF
:102AC00099EC10F089EC1DF0000E7BEC1DF0010E6E
:102AD000A3EC1DF0000E046E050E036ED4EC1AF08C
:102AE0000C0E0E6E000E40EC1DF00F0E116E050E5A
:102AF0001EEC1DF0020EE9EC18F00009D8B403D06A
:102B0000010E0001906F060E50EC1DF0166E000EC7
:102B1000E9EC18F0AFEC1DF0000E0E6E1D0E40EC4F
:102B20001DF0000E0E6E1C0E40EC1DF0700E0E6EB1
:102B3000070E40EC1DF04C0ED2EC1CF0E2EC1DF048
:102B4000F2EC1DF00BEC1DF0000E50EC1DF0FE0B36
:102B50000E6E000E40EC1DF0000E156E1650D8B42F
:102B600012001628D8B41200010E156E12000C685F
:102B70000D68000E096E0AD0D8900C360D36D8902C
:102B80000C360D36D8900C360D36092A21EE05F09C
:102B9000DECF03F0DDCF04F00C5003160D50041609
:102BA00003500410D8A4E8D721EE04F009C0DFFFD9
:102BB0000C1C036E0D1C046E03C00DF104C00EF15D
:102BC00021EE0DF0DECF03F0DDCF04F0D89004321B
:102BD0000332D89004320332D8900432033203C057
:102BE0000AF004C00BF021EE05F0DECF03F0DDCFDC
:102BF00004F00A5003160B50041603C00AF104C077
:102C00000BF105C105F006C106F00AC007F00BC0C4
:102C100008F012D0D89006320532D890063205322C
:102C2000D89006320532D89008320732D890083250
:102C30000732D8900832073207500810D8A4EAD7D4
:102C400021EE0CF005C0DFFF12002A6E22C003F057
:102C500023C004F02AEC1CF00009D8B4120022C0F2
:102C600005F123C006F16DEC1DF00009D8B4120087
:102C70002A28D8B403D02A50D2EC1CF0000E116ED2
:102C8000000E0EEC1AF0BEEC1CF005C103F006C1FC
:102C900004F0000E066E060E056EF9EC1AF0D890E0
:102CA0000334050F296E050E116E29501EEC1DF020
:102CB000190EE8CFD6F0000EE8CFD7F0000EE8CF1F
:102CC000D8F0000EE8CFD9F0D6C003F0D7C004F09A
:102CD000000E066E030E056EF8EC1CF003C0DAF071
:102CE00004C0DBF0B7EC15F0060E2B6E13D022C03B
:102CF00003F023C004F02BC005F0240E066E000E76
:102D0000076EBFEC13F0240E116E000E126E2B50E6
:102D10004EEC14F02B062B28D8A4E9D7E2EC19F0DE
:102D2000120021EE05F040C0E9FF41C0EAFFDECF0E
:102D3000EEFFDDCFEDFFDC0E036E000E046E40C033
:102D400005F041C006F0000E086E080E076E1AEC82
:102D50001BF044504510D8B40ED0E40E036E000EA4
:102D6000046E42C005F043C006F044C007F045C001
:102D700008F01AEC1BF0380E46184710D8B428D0CB
:102D8000030E4A6E20EE02F04050D9264150DA225E
:102D9000400EDE18DE10D8A402D0040E4A6E20EEDB
:102DA00002F04050D9264150DA224650DE1806E1A2
:102DB0004750DE18D8A402D0020E4A6E4A50E66E82
:102DC00046C0E6FF47C0E6FF90EC0DF06A501200E7
:102DD000000EE66E20EE02F04050D9264150DA2275
:102DE000DECF48F0DDCF49F048C0E6FF49C0E6FF3E
:102DF00090EC0DF06A5012001750D8B405D01EECBC
:102E000019F0010E7BEC1DF0C5EC1DF003C020F0A5
:102E100004C021F005C022F006C023F040D0E6EC4B
:102E20001DF0186E18A83BD0100E0E6E070E40EC69
:102E30001DF0000E7BEC1DF0010E7BEC1DF020C0A0
:102E400018F021C019F022C01AF023C01BF0181E80
:102E5000191E1A1E1B1E182A000E19221A221B22C6
:102E6000C5EC1DF0185003241C6E195004201D6E73
:102E70001A5005201E6E1B5006201F6E13501C5C3E
:102E800014501D5815501E5816501F58D8A007D062
:102E9000000E7BEC1DF0F2EC1DF0000E1200170E80
:102EA00050EC1DF0186E18A8BAD7000E7BEC1DF080
:102EB000010E1200000E3F6E30C003F031C004F06E
:102EC00032C005F03A0E066E000E076EBFEC13F02E
:102ED00020EEFFF0DFA41EEC19F03350D8B406D07A
:102EE000000E116E000E0EEC1AF005D0010E116EE0
:102EF000000E0EEC1AF03A0E116E000E126EAEECD1
:102F000018F0DC0E2B6E000E2C6E07C12DF0000E9B
:102F10002E6E3AEC1BF03F6E20EEFFF0DFB412D0C5
:102F2000D6C013F0D7C014F0D8C015F0D9C016F031
:102F3000000E176EFCEC16F03F6E000E116E000EC8
:102F40000EEC1AF03F5012000CC01BF00DC01CF02C
:102F5000000191510E5CD8A003D091C01DF002D0A9
:102F60000EC01DF01E6A1DC00EF000019251D8A4C3
:102F70000FD00E50106E116A101E111E104A112A29
:102F80000001915110241F6E000E1120206E04D0FC
:102F9000000E206E000E1F6E1FC021F0EEEC1DF023
:102FA0000F50CEEC1DF01A6E09D01BC0D9FF1CC00B
:102FB000DAFFDF50CEEC1DF01B4A1C2A0E060E284D
:102FC000D8B404D0F2D7000ECEEC1DF02106212893
:102FD000D8A4F9D7EAEC1DF012000CC018F00DC00F
:102FE00019F00E500001915DD8A091C00EF00001C3
:102FF0009251D8A40FD00E500F6E106A0F1E101EE3
:103000000F4A102A000191510F241A6E000E102051
:103010001B6E04D0000E1B6E000E1A6E1AC01CF040
:10302000EEEC1DF0610ECEEC1DF0176E0AD0FF0E17
:10303000CEEC1DF018C0D9FF19C0DAFFDF6E184AB8
:10304000192A0E060E28D8B404D0F1D7FF0ECEEC04
:103050001DF01C061C28D8A4F9D7EAEC1DF01200BC
:10306000000E0B6E000E0C6E000E0D6E000E0E6E3E
:103070000750081009100A10D8B42AD0010E0F6E9C
:1030800006D0D8900736083609360A360F2A0AAE17
:10309000F8D7D8900B360C360D360E360750035C39
:1030A00008500458095005580A500658D8A009D0AD
:1030B0000750035E0850045A0950055A0A50065A30
:1030C0000B80D8900A320932083207320F2EE1D72E
:1030D0000BC003F00CC004F00DC005F00EC006F0EC
:1030E0001200948C948E000E036E480E046EE80E4F
:1030F000056E010E066E10C014F011C015F012C05E
:1031000016F013C017F0020ED89014361536163686
:103110001736E82EF9D714C007F015C008F016C00E
:1031200009F017C00AF030EC18F0FF0E0324106EFF
:10313000FF0E0420116EFF0E0520126EFF0E0620FA
:10314000136E10C0AFFF11C0B0FFAC9CAC98AC8444
:10315000B886AB9CAB88AC8AAB8E1200000E206E9A
:10316000040E206401D01DD02050136E146A131E6B
:10317000141E134A142A040E1326000E1422135090
:103180001124D96E14501220DA6E2050010D1B0E3E
:10319000F324E96E000EF420EA6EDFCFEFFF202A61
:1031A000DFD71B0E0C6E000E0D6E98C00EF00A0ECF
:1031B00045EC1CF01B0E0C6E000E0D6E98C00EF050
:1031C000100E45EC1CF091C00EF0110E40EC1DF0FD
:1031D0001200126E000E116E060E50EC1DF0136EF2
:1031E000D70E1316550E0001996F000E9A6F000E40
:1031F0009B6F000E9C6F020E1218D8A403D0138A86
:103200009B0E05D01204D8A40AD01386410E0001EB
:10321000996F000E9A6F000E9B6F000E9C6F13C08B
:103220000EF0060E40EC1DF0060E50EC1DF01318CB
:10323000D8A402D0010E116E11501200000E7BECCA
:103240001DF0000199517AEC1BF01D0E50EC1DF0A1
:10325000116E11A206D0000199517AEC1BF0F2EC2C
:103260001DF0000E50EC1DF0FE0B0E6E000E40EC3B
:103270001DF00D0EF66E100EF76E0800F5CF11F072
:10328000010E126E112A02D0D8901236112EFCD7E0
:10329000020E50EC1DF012100E6E020E40EC1DF0EE
:1032A0001200000E146E09C003F00AC004F091EC85
:1032B0001CF00009D8B425D021EE0DF0DECF0BF0C4
:1032C000DDCF0CF00B1C0D6E0C1C0E6ED8900D3665
:1032D0000E36D8900D360E36D8900D360E360DC0FF
:1032E00012F00EC013F0125009140B6E13500A1492
:1032F0000C6E0B500C10D8A402D0010E01D0000EA1
:10330000146E1450120000EED5F021EE72F0EE6A49
:10331000DD50D950FCE1DA50FAE100EE80F02C0EDD
:10332000EE6AE806FDE1AC0EF66E3B0EF76E000E9F
:10333000F86E00EEC9F020EE0CF00900F5CFEEFFBC
:10334000DD50D950FAE1EC0EF66E3B0EF76E000E32
:10335000F86E0900F5CF76F00900F5CF77F0000E92
:10336000F86E00015FEF1CF00F0EE8CFA9F1010E1F
:10337000E8CFAAF1B70EE8CFB5F1010EE8CFB6F16C
:10338000AB0EE8CFFCF0010EE8CFFDF0000EE8CF69
:1033900000F1000EE8CF01F1000EE8CF02F1000EBF
:1033A000E8CF03F1000EE8CFFFF0000EE8CFFEF00B
:1033B000000EE8CFD5F0180EE8CF08F1000EE8CFE8
:1033C00009F112000BEC1DF0000E50EC1DF001098C
:1033D0000E6E000E40EC1DF0700E0E6E070E40ECEF
:1033E0001DF0010E7BEC1DF000019351D8B40AD002
:1033F000930E0C6E000E0D6E98C00EF00A0E45EC8A
:103400001CF003D0000E5AEC1BF01D0E50EC1DF00A
:10341000166E16A21200F2EC1DF01200156E070EC9
:1034200015601200010E50EC1DF0146E1150D8B44E
:103430000DD015C012F0010E136E122A02D0D890D2
:103440001336122EFCD7135014120DD015C012F0E3
:10345000010E136E122A02D0D8901336122EFCD70A
:103460001350FF0A141614C00EF0010E40EC1DF0AC
:103470001200000E086E000E076E05500610D8B43C
:103480001CD0010E096E04D0D89005360636092AE4
:1034900006AEFAD7D890073608360550035C0650BA
:1034A0000458D8A005D00550035E0650045A078082
:1034B000D89006320532092EEDD707C003F008C0B8
:1034C00004F01200230E036E240EB9EC1BF0B4ECD2
:1034D00019F0000E106EE10E116E000E126E000E4D
:1034E000136E71EC18F01B0E0A6E100E0B6E96EC3C
:1034F0001DF048EC15F0190EF66E100EF76E09006F
:10350000F5CF22F00A00F5CF23F05A0E25EC16F085
:1035100012000B6E000E0D6E010E0C6E0B50D8B427
:1035200014D00B04030DF3CF05F00CC006F00DC052
:1035300007F0052A03D0D89006360736052EFBD7AC
:1035400006C00CF007C00DF005D0000E046E000E92
:10355000036E12000CC003F00DC004F01200000E48
:10356000096E000E086E10D008500424066E095033
:103570000520076E06C0F6FF07C0F7FF0800F550EC
:10358000DCEC1DF0084A092A08500424066E095094
:103590000520076E06C0F6FF07C0F7FF0800F550CC
:1035A0000009D8B41200E0D7000E066E000E056EBA
:1035B00019D0000E086E000E076E200E075C030E79
:1035C0000858D8B00DD000F000F000F000F000F086
:1035D00000F000F000F000F000F0074A082AEDD7F4
:1035E000054A062A0350055C04500658D8B012005C
:1035F000E0D705500610D8B418D0010E076E04D0DD
:10360000D89005360636072A06AEFAD70550035C71
:1036100006500458D8A004D00550035E0650045A42
:10362000D89006320532072EF1D703C003F004C04C
:1036300004F0120005C00BF006C00CF003C009F046
:1036400004C00AF00ED00BC0D9FF0CC0DAFF09C0CD
:10365000E9FF0AC0EAFFDFCFEFFF0B4A0C2A094A55
:103660000A2A0706D8A008060728EDE10828D8B4DA
:103670001200E9D70CD0E6EC1DF02F6E2FA807D072
:10368000100E0E6E070E40EC1DF0000E1200E6EC60
:103690001DF02F6E2FB0EFD72BC022F02CC023F0DF
:1036A0002DC024F02EC025F0010E266EF3EC1BF089
:1036B000010E1200156E1550010D0D0EF324F66E5D
:1036C000100EF420F76E0800F5CF11F0010E126E07
:1036D000112A02D0D8901236112EFCD71250FF0AB0
:1036E000136E020E50EC1DF013140E6E020E40EC21
:1036F0001DF01200056E000E076E000E066E10D053
:10370000000E096E000E086E095008E1080E085CF4
:10371000D8B004D000F0084A092AF6D7064A072A8A
:103720000550036E046A0350065C04500758D8B075
:103730001200E6D720EE02F00350D9260450DA2218
:1037400005C0DEFF06C0DDFF20EE04F00350D926E1
:103750000450DA2276C0DEFF77C0DDFF764A772A92
:1037600020EE06F00350D9260450DA2207C0DFFF0E
:103770001200046E04C08CF003C08DF0000E000136
:10378000906F200E0001916F000E0001926F050EE8
:103790000001986F050E00019D6F000E9E6F000ED8
:1037A0009F6F000EA06F000E0001936F1200000EBD
:1037B000116EEEEC1DF0600ECEEC1DF0FF0ECEECA7
:1037C0001DF0116EEAEC1DF0200E11640AD0E2EC3F
:1037D0001DF0000E046E020E036ED4EC1AF0000E03
:1037E0001200115012002550D8A404D0000E2A6EE9
:1037F000A00E03D0000E2A6EB00E296E22C00CF06F
:1038000023C00DF024C00EF029C00FF0A4EC17F077
:103810002650D8B41200010E7BEC1DF01200070EEA
:1038200021EE0DF0DECF05F0DDCF06F0D8900536A5
:103830000636D89005360636D89005360636051079
:10384000096E06500A6E09500314036E0A500414E0
:10385000046E1200010E086E12D00350070B076EA3
:10386000050E076403D0000E086E0DD0D890043208
:103870000332D89004320332D8900432033203501A
:103880000410D8A4EAD708501200106EEEEC1DF018
:1038900010501F0B2009CEEC1DF00F6E09D00CC08C
:1038A000D9FF0DC0DAFFDF50CEEC1DF00C4A0D2A17
:1038B0000E060E28D8A4F3D7EAEC1DF01200000E75
:1038C0000001846F000E856F000E866F000E876FFB
:1038D000D59CD59AD586E00ED76EC00ED66EF294E2
:1038E000F28EF28AD58E62EC1AF017EC13F0FDD747
:1038F000170E50EC1DF0126E12B011D010501110B6
:10390000D8B40BD0E6EC1DF0146ED8901430070B31
:1039100010C0D9FF11C0DAFFDF6E010E1200000ED9
:10392000120021EE05F001EE0DF0EECF07F0EDCF25
:1039300008F00350071604500816DE50071806E179
:10394000DE500818D8A402D0010E1200000E12009A
:10395000060016EEB0F0F2A40CD0E00ED76EC00E4A
:10396000D66E010E00018427000E8523862387234F
:10397000F29402C0E2FF01C0E1FF11001D0E50EC05
:103980001DF004090E6E1D0E40EC1DF01C0E50ECD7
:103990001DF03F090E6E1C0E40EC1DF0010E0001E3
:1039A000926F1200136E7D0E146E1450135CD8A02B
:1039B00003D014C011F002D013C011F0126A11C06C
:1039C0000EF0050E40EC1DF0120064C04BF065C017
:1039D0004CF066C04DF067C04EF068C04FF069C053
:1039E00050F0000E526E380E516E1BEC0FF01200AC
:1039F00003500502F3CF07F0F4CF08F0035006029E
:103A0000F350082604500502F350082607C003F0BF
:103A100008C004F01200000E50EC1DF0126E12B23D
:103A20001200125002090E6E000E40EC1DF0000E46
:103A3000046E050E036ED4EC1AF01200146E11C061
:103A400012F00F0E121614C013F00F0E13161338C7
:103A5000F00B12100E6E040E40EC1DF0120021EE61
:103A6000A9F0DECF03F0DDCF04F00450010802E13D
:103A700003500F08D8B002D0010E1200000E120041
:103A80000F6EEEEC1DF00F501F0B2009CEEC1DF059
:103A9000106E0E50CEEC1DF0EAEC1DF0105012002E
:103AA0000C6EEEEC1DF00C501F0BCEEC1DF0FF0E5B
:103AB000CEEC1DF00D6EEAEC1DF00D5012001DC095
:103AC0000CF01EC00DF01FC00EF0EDEC17F0700EE4
:103AD0000E6E070E40EC1DF01200000E046E000189
:103AE0008C29D8B406D000018D29D8B402D0010E9B
:103AF000046E04501200076E00018C5100018D19F4
:103B0000D8B4120007C003F000018C51D8EC11F0BA
:103B1000120094889496949AC69AC78CC698C79EA9
:103B2000C650F00B0109C66EC68A12000AC004F026
:103B30000BC005F0AFEC1AF0560E046E100E056EB9
:103B4000AFEC1AF012000B6E0BC003F000018D51A8
:103B5000D8EC11F000019D517AEC1BF01200EEEC54
:103B60001DF0500ECEEC1DF0730ECEEC1DF0EAEC05
:103B70001DF012000E6EEEEC1DF00E50CEEC1DF09E
:103B80000F6EEAEC1DF00F50120084C003F085C0E8
:103B900004F086C005F087C006F01200036EC790DF
:103BA00003C0C9FFC7A0FED7C9501200C33C33CE23
:103BB0003EE3ECCCCCCCCCCC036E03C0ADFFACB2BE
:103BC0001200FDD7E20EBAEC1DF01200FF0EBAECA7
:103BD0001DF01200010EA3EC1DF01200000EA3EC6C
:0E3BE0001DF01200E10EBAEC1DF01200010003
:020000040020DA
:08000000FFFFFFFFFFFFFFFF00
:020000040030CA
:0E000000FF06181EFF8180FF0FC00FE00F40AB
:00000001FF
